{
  "contractName": "LiquidityPoolManager",
  "abi": [
    {
      "inputs": [
        {
          "internalType": "address",
          "name": "wavax_",
          "type": "address"
        },
        {
          "internalType": "address",
          "name": "party_",
          "type": "address"
        },
        {
          "internalType": "address",
          "name": "treasuryVester_",
          "type": "address"
        }
      ],
      "stateMutability": "nonpayable",
      "type": "constructor"
    },
    {
      "anonymous": false,
      "inputs": [
        {
          "indexed": true,
          "internalType": "address",
          "name": "previousOwner",
          "type": "address"
        },
        {
          "indexed": true,
          "internalType": "address",
          "name": "newOwner",
          "type": "address"
        }
      ],
      "name": "OwnershipTransferred",
      "type": "event"
    },
    {
      "inputs": [],
      "name": "avaxPartyPair",
      "outputs": [
        {
          "internalType": "address",
          "name": "",
          "type": "address"
        }
      ],
      "stateMutability": "view",
      "type": "function",
      "constant": true
    },
    {
      "inputs": [],
      "name": "avaxSplit",
      "outputs": [
        {
          "internalType": "uint256",
          "name": "",
          "type": "uint256"
        }
      ],
      "stateMutability": "view",
      "type": "function",
      "constant": true
    },
    {
      "inputs": [
        {
          "internalType": "uint256",
          "name": "",
          "type": "uint256"
        }
      ],
      "name": "distribution",
      "outputs": [
        {
          "internalType": "uint256",
          "name": "",
          "type": "uint256"
        }
      ],
      "stateMutability": "view",
      "type": "function",
      "constant": true
    },
    {
      "inputs": [],
      "name": "numPools",
      "outputs": [
        {
          "internalType": "uint256",
          "name": "",
          "type": "uint256"
        }
      ],
      "stateMutability": "view",
      "type": "function",
      "constant": true
    },
    {
      "inputs": [],
      "name": "owner",
      "outputs": [
        {
          "internalType": "address",
          "name": "",
          "type": "address"
        }
      ],
      "stateMutability": "view",
      "type": "function",
      "constant": true
    },
    {
      "inputs": [],
      "name": "party",
      "outputs": [
        {
          "internalType": "address",
          "name": "",
          "type": "address"
        }
      ],
      "stateMutability": "view",
      "type": "function",
      "constant": true
    },
    {
      "inputs": [],
      "name": "partySplit",
      "outputs": [
        {
          "internalType": "uint256",
          "name": "",
          "type": "uint256"
        }
      ],
      "stateMutability": "view",
      "type": "function",
      "constant": true
    },
    {
      "inputs": [],
      "name": "renounceOwnership",
      "outputs": [],
      "stateMutability": "nonpayable",
      "type": "function"
    },
    {
      "inputs": [],
      "name": "splitPools",
      "outputs": [
        {
          "internalType": "bool",
          "name": "",
          "type": "bool"
        }
      ],
      "stateMutability": "view",
      "type": "function",
      "constant": true
    },
    {
      "inputs": [
        {
          "internalType": "address",
          "name": "",
          "type": "address"
        }
      ],
      "name": "stakes",
      "outputs": [
        {
          "internalType": "address",
          "name": "",
          "type": "address"
        }
      ],
      "stateMutability": "view",
      "type": "function",
      "constant": true
    },
    {
      "inputs": [
        {
          "internalType": "address",
          "name": "newOwner",
          "type": "address"
        }
      ],
      "name": "transferOwnership",
      "outputs": [],
      "stateMutability": "nonpayable",
      "type": "function"
    },
    {
      "inputs": [],
      "name": "treasuryVester",
      "outputs": [
        {
          "internalType": "address",
          "name": "",
          "type": "address"
        }
      ],
      "stateMutability": "view",
      "type": "function",
      "constant": true
    },
    {
      "inputs": [],
      "name": "unallocatedParty",
      "outputs": [
        {
          "internalType": "uint256",
          "name": "",
          "type": "uint256"
        }
      ],
      "stateMutability": "view",
      "type": "function",
      "constant": true
    },
    {
      "inputs": [],
      "name": "wavax",
      "outputs": [
        {
          "internalType": "address",
          "name": "",
          "type": "address"
        }
      ],
      "stateMutability": "view",
      "type": "function",
      "constant": true
    },
    {
      "inputs": [
        {
          "internalType": "address",
          "name": "",
          "type": "address"
        }
      ],
      "name": "weights",
      "outputs": [
        {
          "internalType": "uint256",
          "name": "",
          "type": "uint256"
        }
      ],
      "stateMutability": "view",
      "type": "function",
      "constant": true
    },
    {
      "inputs": [
        {
          "internalType": "address",
          "name": "pair",
          "type": "address"
        }
      ],
      "name": "isWhitelisted",
      "outputs": [
        {
          "internalType": "bool",
          "name": "",
          "type": "bool"
        }
      ],
      "stateMutability": "view",
      "type": "function",
      "constant": true
    },
    {
      "inputs": [
        {
          "internalType": "address",
          "name": "pair",
          "type": "address"
        }
      ],
      "name": "isAvaxPair",
      "outputs": [
        {
          "internalType": "bool",
          "name": "",
          "type": "bool"
        }
      ],
      "stateMutability": "view",
      "type": "function",
      "constant": true
    },
    {
      "inputs": [
        {
          "internalType": "address",
          "name": "pair",
          "type": "address"
        }
      ],
      "name": "isPartyPair",
      "outputs": [
        {
          "internalType": "bool",
          "name": "",
          "type": "bool"
        }
      ],
      "stateMutability": "view",
      "type": "function",
      "constant": true
    },
    {
      "inputs": [
        {
          "internalType": "address",
          "name": "avaxPartyPair_",
          "type": "address"
        }
      ],
      "name": "setavaxPartyPair",
      "outputs": [],
      "stateMutability": "nonpayable",
      "type": "function"
    },
    {
      "inputs": [
        {
          "internalType": "address",
          "name": "pair",
          "type": "address"
        },
        {
          "internalType": "uint256",
          "name": "weight",
          "type": "uint256"
        }
      ],
      "name": "addWhitelistedPool",
      "outputs": [],
      "stateMutability": "nonpayable",
      "type": "function"
    },
    {
      "inputs": [
        {
          "internalType": "address",
          "name": "pair",
          "type": "address"
        }
      ],
      "name": "removeWhitelistedPool",
      "outputs": [],
      "stateMutability": "nonpayable",
      "type": "function"
    },
    {
      "inputs": [
        {
          "internalType": "address",
          "name": "pair",
          "type": "address"
        },
        {
          "internalType": "uint256",
          "name": "weight",
          "type": "uint256"
        }
      ],
      "name": "changeWeight",
      "outputs": [],
      "stateMutability": "nonpayable",
      "type": "function"
    },
    {
      "inputs": [
        {
          "internalType": "uint256",
          "name": "avaxSplit_",
          "type": "uint256"
        },
        {
          "internalType": "uint256",
          "name": "partySplit_",
          "type": "uint256"
        }
      ],
      "name": "activateFeeSplit",
      "outputs": [],
      "stateMutability": "nonpayable",
      "type": "function"
    },
    {
      "inputs": [],
      "name": "deactivateFeeSplit",
      "outputs": [],
      "stateMutability": "nonpayable",
      "type": "function"
    },
    {
      "inputs": [
        {
          "internalType": "address",
          "name": "pair",
          "type": "address"
        }
      ],
      "name": "getAvaxLiquidity",
      "outputs": [
        {
          "internalType": "uint256",
          "name": "",
          "type": "uint256"
        }
      ],
      "stateMutability": "view",
      "type": "function",
      "constant": true
    },
    {
      "inputs": [
        {
          "internalType": "address",
          "name": "pair",
          "type": "address"
        },
        {
          "internalType": "uint256",
          "name": "conversionFactor",
          "type": "uint256"
        }
      ],
      "name": "getPartyLiquidity",
      "outputs": [
        {
          "internalType": "uint256",
          "name": "",
          "type": "uint256"
        }
      ],
      "stateMutability": "view",
      "type": "function",
      "constant": true
    },
    {
      "inputs": [],
      "name": "getAvaxPartyRatio",
      "outputs": [
        {
          "internalType": "uint256",
          "name": "conversionFactor",
          "type": "uint256"
        }
      ],
      "stateMutability": "view",
      "type": "function",
      "constant": true
    },
    {
      "inputs": [],
      "name": "calculateReturns",
      "outputs": [],
      "stateMutability": "nonpayable",
      "type": "function"
    },
    {
      "inputs": [],
      "name": "distributeTokens",
      "outputs": [],
      "stateMutability": "nonpayable",
      "type": "function"
    },
    {
      "inputs": [
        {
          "internalType": "uint256",
          "name": "pairIndex",
          "type": "uint256"
        }
      ],
      "name": "distributeTokensSinglePool",
      "outputs": [],
      "stateMutability": "nonpayable",
      "type": "function"
    },
    {
      "inputs": [],
      "name": "calculateAndDistribute",
      "outputs": [],
      "stateMutability": "nonpayable",
      "type": "function"
    },
    {
      "inputs": [],
      "name": "vestAllocation",
      "outputs": [],
      "stateMutability": "nonpayable",
      "type": "function"
    }
  ],
  "bytecode": "0x60806040526000600f8190556010805460ff191690556012553480156200002557600080fd5b5060405162004cf238038062004cf2833981016040819052620000489162000164565b60006200005462000143565b600080546001600160a01b0319166001600160a01b0383169081178255604051929350917f8be0079c531659141344cd1fd0a4f28419497f9722a3daafe3b4186f6b6457e0908290a350600180556001600160a01b03831615801590620000c357506001600160a01b03821615155b8015620000d857506001600160a01b03811615155b620001005760405162461bcd60e51b8152600401620000f790620001ad565b60405180910390fd5b600b80546001600160a01b039485166001600160a01b031991821617909155600c805493851693821693909317909255600e80549190931691161790556200020a565b3390565b80516001600160a01b03811681146200015f57600080fd5b919050565b60008060006060848603121562000179578283fd5b620001848462000147565b9250620001946020850162000147565b9150620001a46040850162000147565b90509250925092565b60208082526035908201527f4c504d3a3a636f6e7374727563746f723a20417267756d656e74732063616e2760408201527f7420626520746865207a65726f20616464726573730000000000000000000000606082015260800190565b614ad8806200021a6000396000f3fe60806040523480156200001157600080fd5b5060043610620002205760003560e01c8063796cd9ba1162000129578063a8cb13df11620000b1578063f2fde38b116200007b578063f2fde38b146200041e578063f8c19ad91462000435578063fa2c4352146200043f578063fbfd814714620004565762000220565b8063a8cb13df14620003c2578063aa8b067014620003d9578063d459778314620003f0578063db130a4914620004075762000220565b8063933733cf11620000f3578063933733cf146200038d5780639ab1b4841462000397578063a325f4c914620003a1578063a7cac84614620003ab5762000220565b8063796cd9ba146200034b5780637d8a6c2314620003625780638c31ceff146200036c5780638da5cb5b14620003835762000220565b806335c62bc211620001ad5780635278f89c11620001775780635278f89c146200031657806369b2fbf51462000320578063715018a614620003375780637615d88b14620003415762000220565b806335c62bc214620002d45780633af32abf14620002de57806346e16a1114620002f55780634ad00082146200030c5762000220565b80631709f8f011620001ef5780631709f8f014620002815780631bd172d014620002a75780632be40cbe14620002c0578063354284f214620002ca5762000220565b8063114d14751462000225578063117be4c21462000247578063150895db146200026057806316934fc4146200026a575b600080fd5b6200022f62000460565b6040516200023e91906200316e565b60405180910390f35b62000251620005f7565b6040516200023e919062002595565b6200025162000606565b620002516200027b3660046200245f565b62000615565b62000298620002923660046200245f565b62000630565b6040516200023e9190620025dc565b620002be620002b83660046200249d565b62000647565b005b6200029862000704565b620002516200070d565b6200022f6200071c565b62000298620002ef3660046200245f565b62000722565b620002be620003063660046200249d565b62000745565b620002be62000aa1565b620002be62000ff3565b620002be620003313660046200245f565b620011a8565b620002be62001239565b6200022f620012c9565b620002be6200035c36600462002541565b620012cf565b6200022f62001558565b620002986200037d3660046200245f565b6200155e565b620002516200156d565b620002be6200157c565b620002be62001592565b620002be620017ee565b6200022f620003bc3660046200245f565b6200186f565b620002be620003d33660046200245f565b62001881565b6200022f620003ea36600462002541565b62001ada565b620002be6200040136600462002573565b62001afc565b6200022f620004183660046200245f565b62001bb8565b620002be6200042f3660046200245f565b62001dd4565b6200025162001e9e565b6200022f620004503660046200249d565b62001ead565b6200022f620020e7565b600d546000906001600160a01b0316620004975760405162461bcd60e51b81526004016200048e9062002892565b60405180910390fd5b600080600d60009054906101000a90046001600160a01b03166001600160a01b0316630902f1ac6040518163ffffffff1660e01b815260040160606040518083038186803b158015620004e957600080fd5b505afa158015620004fe573d6000803e3d6000fd5b505050506040513d601f19601f82011682018060405250810190620005249190620024ed565b50600b54600d5460408051630dfe168160e01b815290516001600160701b0395861697509390941694506001600160a01b0391821693911691630dfe168191600480820192602092909190829003018186803b1580156200058457600080fd5b505afa15801562000599573d6000803e3d6000fd5b505050506040513d601f19601f82011682018060405250810190620005bf91906200247e565b6001600160a01b03161415620005e357620005db8183620020ed565b9250620005f2565b620005ef8282620020ed565b92505b505090565b600b546001600160a01b031681565b600e546001600160a01b031681565b6006602052600090815260409020546001600160a01b031681565b60006200063f60048362002146565b90505b919050565b6200065162002164565b6001600160a01b0316620006646200156d565b6001600160a01b0316146200068d5760405162461bcd60e51b81526004016200048e9062002abf565b6001600160a01b038216600090815260076020526040902054620006c55760405162461bcd60e51b81526004016200048e90620029f5565b60008111620006e85760405162461bcd60e51b81526004016200048e906200284c565b6001600160a01b03909116600090815260076020526040902055565b60085460ff1681565b600c546001600160a01b031681565b600f5481565b60006200073160028362002146565b806200063f57506200063f60048362002146565b6200074f62002164565b6001600160a01b0316620007626200156d565b6001600160a01b0316146200078b5760405162461bcd60e51b81526004016200048e9062002abf565b60105460ff1615620007b15760405162461bcd60e51b81526004016200048e9062002da4565b6001600160a01b038216620007da5760405162461bcd60e51b81526004016200048e9062002cab565b620007e58262000722565b15620008055760405162461bcd60e51b81526004016200048e9062002d53565b60008111620008285760405162461bcd60e51b81526004016200048e9062002b5d565b6000826001600160a01b0316630dfe16816040518163ffffffff1660e01b815260040160206040518083038186803b1580156200086457600080fd5b505afa15801562000879573d6000803e3d6000fd5b505050506040513d601f19601f820116820180604052508101906200089f91906200247e565b90506000836001600160a01b031663d21220a76040518163ffffffff1660e01b815260040160206040518083038186803b158015620008dd57600080fd5b505afa158015620008f2573d6000803e3d6000fd5b505050506040513d601f19601f820116820180604052508101906200091891906200247e565b9050806001600160a01b0316826001600160a01b031614156200094f5760405162461bcd60e51b81526004016200048e90620030d7565b600c546040516000916001600160a01b03169086906200096f90620023d2565b6200097c929190620025a9565b604051809103906000f08015801562000999573d6000803e3d6000fd5b506001600160a01b03868116600090815260066020908152604080832080546001600160a01b03191686861617905560079091529020869055600c549192509081169084161480620009f85750600c546001600160a01b038381169116145b1562000a305762000a0b60048662002168565b62000a2a5760405162461bcd60e51b81526004016200048e9062002bab565b62000a87565b600b546001600160a01b038481169116148062000a5a5750600b546001600160a01b038381169116145b1562000a6d5762000a0b60028662002168565b60405162461bcd60e51b81526004016200048e90620028e0565b600f5462000a979060016200217f565b600f555050505050565b60105460ff161562000ac75760405162461bcd60e51b81526004016200048e9062002629565b60006012541162000aec5760405162461bcd60e51b81526004016200048e9062002af4565b600062000afa60046200218d565b111562000b2c57600d546001600160a01b031662000b2c5760405162461bcd60e51b81526004016200048e90620027fe565b600f5467ffffffffffffffff81111562000b5657634e487b7160e01b600052604160045260246000fd5b60405190808252806020026020018201604052801562000b80578160200160208202803683370190505b50805162000b9791601191602090910190620023e0565b5060008060005b62000baa60026200218d565b81101562000c5257600062000bc16002836200219a565b9050600062000bd08262001bb8565b6001600160a01b0383166000908152600760205260408120549192509062000bfa908390620021a8565b9050806011858154811062000c1f57634e487b7160e01b600052603260045260246000fd5b60009182526020909120015562000c3786826200217f565b9550505050808062000c4990620031ef565b91505062000b9e565b50600062000c6160046200218d565b111562000d4857600062000c7462000460565b905060005b62000c8560046200218d565b81101562000d4557600062000c9c6004836200219a565b9050600062000cac828562001ead565b6001600160a01b0383166000908152600760205260408120549192509062000cd6908390620021a8565b905080601162000ce760026200218d565b62000cf3908762003177565b8154811062000d1257634e487b7160e01b600052603260045260246000fd5b60009182526020909120015562000d2a86826200217f565b9550505050808062000d3c90620031ef565b91505062000c79565b50505b60085460009060ff161562000f3a57600062000d7f606462000d78600954601254620021a890919063ffffffff16565b90620021b6565b9050600062000d9a82601254620021c490919063ffffffff16565b905060005b62000dab60026200218d565b81101562000e5157600062000dfb8762000d78866011868154811062000de157634e487b7160e01b600052603260045260246000fd5b9060005260206000200154620021a890919063ffffffff16565b9050806011838154811062000e2057634e487b7160e01b600052603260045260246000fd5b60009182526020909120015562000e3885826200217f565b945050808062000e4890620031ef565b91505062000d9f565b50600062000e6060046200218d565b111562000f325760005b62000e7660046200218d565b81101562000f3057600062000ec38662000d7885601162000e9860026200218d565b62000ea4908862003177565b8154811062000de157634e487b7160e01b600052603260045260246000fd5b905080601162000ed460026200218d565b62000ee0908562003177565b8154811062000eff57634e487b7160e01b600052603260045260246000fd5b60009182526020909120015562000f1785826200217f565b945050808062000f2790620031ef565b91505062000e6a565b505b505062000fe1565b600062000f4884846200217f565b905060005b60115481101562000fde57600062000f888362000d786012546011868154811062000de157634e487b7160e01b600052603260045260246000fd5b9050806011838154811062000fad57634e487b7160e01b600052603260045260246000fd5b60009182526020909120015562000fc584826200217f565b935050808062000fd590620031ef565b91505062000f4d565b50505b50506010805460ff1916600117905550565b60026001541415620010195760405162461bcd60e51b81526004016200048e9062002fa6565b600260015560125415620010415760405162461bcd60e51b81526004016200048e9062002988565b600e60009054906101000a90046001600160a01b03166001600160a01b0316634e71d92d6040518163ffffffff1660e01b8152600401602060405180830381600087803b1580156200109257600080fd5b505af1158015620010a7573d6000803e3d6000fd5b505050506040513d601f19601f82011682018060405250810190620010cd91906200255a565b6012819055620010f15760405162461bcd60e51b81526004016200048e9062002e1f565b600c546040516370a0823160e01b81526000916001600160a01b0316906370a08231906200112490309060040162002595565b60206040518083038186803b1580156200113d57600080fd5b505afa15801562001152573d6000803e3d6000fd5b505050506040513d601f19601f820116820180604052508101906200117891906200255a565b90506012548110156200119f5760405162461bcd60e51b81526004016200048e9062002935565b60125560018055565b620011b262002164565b6001600160a01b0316620011c56200156d565b6001600160a01b031614620011ee5760405162461bcd60e51b81526004016200048e9062002abf565b6001600160a01b038116620012175760405162461bcd60e51b81526004016200048e9062003081565b600d80546001600160a01b0319166001600160a01b0392909216919091179055565b6200124362002164565b6001600160a01b0316620012566200156d565b6001600160a01b0316146200127f5760405162461bcd60e51b81526004016200048e9062002abf565b600080546040516001600160a01b03909116907f8be0079c531659141344cd1fd0a4f28419497f9722a3daafe3b4186f6b6457e0908390a3600080546001600160a01b0319169055565b600a5481565b60026001541415620012f55760405162461bcd60e51b81526004016200048e9062002fa6565b600260015560105460ff166200131f5760405162461bcd60e51b81526004016200048e90620026e5565b600f548110620013435760405162461bcd60e51b81526004016200048e9062002fdd565b60006200135160026200218d565b8210156200138f57600660006200136a6002856200219a565b6001600160a01b039081168252602082019290925260400160002054169050620013d8565b60066000620013b8620013a360026200218d565b620013af9086620031d5565b6004906200219a565b6001600160a01b0390811682526020820192909252604001600020541690505b600060118381548110620013fc57634e487b7160e01b600052603260045260246000fd5b9060005260206000200154905060008111156200154f576000601184815481106200143757634e487b7160e01b600052603260045260246000fd5b600091825260209091200155600c5460405163a9059cbb60e01b81526001600160a01b039091169063a9059cbb90620014779085908590600401620025c3565b602060405180830381600087803b1580156200149257600080fd5b505af1158015620014a7573d6000803e3d6000fd5b505050506040513d601f19601f82011682018060405250810190620014cd9190620024cb565b620014ec5760405162461bcd60e51b81526004016200048e90620027b8565b604051633c6b16ab60e01b81526001600160a01b03831690633c6b16ab906200151a9084906004016200316e565b600060405180830381600087803b1580156200153557600080fd5b505af11580156200154a573d6000803e3d6000fd5b505050505b50506001805550565b60095481565b60006200063f60028362002146565b6000546001600160a01b031690565b6200158662000aa1565b6200159062001592565b565b60026001541415620015b85760405162461bcd60e51b81526004016200048e9062002fa6565b600260015560105460ff16620015e25760405162461bcd60e51b81526004016200048e9062002ee4565b6010805460ff19169055600080805b601154811015620017e0576200160860026200218d565b811015620016465760066000620016216002846200219a565b6001600160a01b03908116825260208201929092526040016000205416925062001686565b60066000620016666200165a60026200218d565b620013af9085620031d5565b6001600160a01b0390811682526020820192909252604001600020541692505b60118181548110620016a857634e487b7160e01b600052603260045260246000fd5b906000526020600020015491506000821115620017cb57600c5460405163a9059cbb60e01b81526001600160a01b039091169063a9059cbb90620016f39086908690600401620025c3565b602060405180830381600087803b1580156200170e57600080fd5b505af115801562001723573d6000803e3d6000fd5b505050506040513d601f19601f82011682018060405250810190620017499190620024cb565b620017685760405162461bcd60e51b81526004016200048e90620027b8565b604051633c6b16ab60e01b81526001600160a01b03841690633c6b16ab90620017969085906004016200316e565b600060405180830381600087803b158015620017b157600080fd5b505af1158015620017c6573d6000803e3d6000fd5b505050505b80620017d781620031ef565b915050620015f1565b505060006012555060018055565b620017f862002164565b6001600160a01b03166200180b6200156d565b6001600160a01b031614620018345760405162461bcd60e51b81526004016200048e9062002abf565b60085460ff16620018595760405162461bcd60e51b81526004016200048e9062003031565b6008805460ff1916905560006009819055600a55565b60076020526000908152604090205481565b6200188b62002164565b6001600160a01b03166200189e6200156d565b6001600160a01b031614620018c75760405162461bcd60e51b81526004016200048e9062002abf565b60105460ff1615620018ed5760405162461bcd60e51b81526004016200048e9062002a3c565b620018f88162000722565b620019175760405162461bcd60e51b81526004016200048e9062002768565b6000816001600160a01b0316630dfe16816040518163ffffffff1660e01b815260040160206040518083038186803b1580156200195357600080fd5b505afa15801562001968573d6000803e3d6000fd5b505050506040513d601f19601f820116820180604052508101906200198e91906200247e565b90506000826001600160a01b031663d21220a76040518163ffffffff1660e01b815260040160206040518083038186803b158015620019cc57600080fd5b505afa158015620019e1573d6000803e3d6000fd5b505050506040513d601f19601f8201168201806040525081019062001a0791906200247e565b6001600160a01b03808516600090815260066020908152604080832080546001600160a01b03191690556007909152812055600c549192508381169116148062001a5e5750600c546001600160a01b038281169116145b1562001a965762001a71600484620021d2565b62001a905760405162461bcd60e51b81526004016200048e9062002f58565b62001ac2565b62001aa3600284620021d2565b62001ac25760405162461bcd60e51b81526004016200048e9062002f58565b600f5462001ad2906001620021c4565b600f55505050565b6011818154811062001aeb57600080fd5b600091825260209091200154905081565b62001b0662002164565b6001600160a01b031662001b196200156d565b6001600160a01b03161462001b425760405162461bcd60e51b81526004016200048e9062002abf565b62001b4e82826200217f565b60641462001b705760405162461bcd60e51b81526004016200048e9062002c5c565b816064148062001b805750806064145b1562001ba05760405162461bcd60e51b81526004016200048e9062002d08565b6008805460ff19166001179055600991909155600a55565b6000806000836001600160a01b0316630902f1ac6040518163ffffffff1660e01b815260040160606040518083038186803b15801562001bf757600080fd5b505afa15801562001c0c573d6000803e3d6000fd5b505050506040513d601f19601f8201168201806040525081019062001c329190620024ed565b506001600160701b031691506001600160701b031691506000600b60009054906101000a90046001600160a01b03166001600160a01b0316856001600160a01b0316630dfe16816040518163ffffffff1660e01b815260040160206040518083038186803b15801562001ca457600080fd5b505afa15801562001cb9573d6000803e3d6000fd5b505050506040513d601f19601f8201168201806040525081019062001cdf91906200247e565b6001600160a01b0316141562001d035762001cfb81846200217f565b905062001dbe565b600b546040805163d21220a760e01b815290516001600160a01b039283169288169163d21220a7916004808301926020929190829003018186803b15801562001d4b57600080fd5b505afa15801562001d60573d6000803e3d6000fd5b505050506040513d601f19601f8201168201806040525081019062001d8691906200247e565b6001600160a01b03161462001daf5760405162461bcd60e51b81526004016200048e9062002e7c565b62001dbb81836200217f565b90505b62001dcb816002620021a8565b95945050505050565b62001dde62002164565b6001600160a01b031662001df16200156d565b6001600160a01b03161462001e1a5760405162461bcd60e51b81526004016200048e9062002abf565b6001600160a01b03811662001e435760405162461bcd60e51b81526004016200048e906200269f565b600080546040516001600160a01b03808516939216917f8be0079c531659141344cd1fd0a4f28419497f9722a3daafe3b4186f6b6457e091a3600080546001600160a01b0319166001600160a01b0392909216919091179055565b600d546001600160a01b031681565b6000806000846001600160a01b0316630902f1ac6040518163ffffffff1660e01b815260040160606040518083038186803b15801562001eec57600080fd5b505afa15801562001f01573d6000803e3d6000fd5b505050506040513d601f19601f8201168201806040525081019062001f279190620024ed565b506001600160701b031691506001600160701b031691506000600c60009054906101000a90046001600160a01b03166001600160a01b0316866001600160a01b0316630dfe16816040518163ffffffff1660e01b815260040160206040518083038186803b15801562001f9957600080fd5b505afa15801562001fae573d6000803e3d6000fd5b505050506040513d601f19601f8201168201806040525081019062001fd491906200247e565b6001600160a01b0316141562001ff85762001ff081846200217f565b9050620020b3565b600c546040805163d21220a760e01b815290516001600160a01b039283169289169163d21220a7916004808301926020929190829003018186803b1580156200204057600080fd5b505afa15801562002055573d6000803e3d6000fd5b505050506040513d601f19601f820116820180604052508101906200207b91906200247e565b6001600160a01b031614620020a45760405162461bcd60e51b81526004016200048e9062002bf3565b620020b081836200217f565b90505b670de0b6b3a7640000620020da8162000d786002620020d3868b620021a8565b90620021a8565b9450505050505b92915050565b60125481565b60008083118015620020ff5750600082115b6200211e5760405162461bcd60e51b81526004016200048e906200312a565b670de0b6b3a76400006200213e620021378285620021a8565b85620021b6565b949350505050565b60006200215d836001600160a01b038416620021e9565b9392505050565b3390565b60006200215d836001600160a01b03841662002201565b60006200215d828462003177565b60006200063f8262002250565b60006200215d838362002254565b60006200215d8284620031b3565b60006200215d828462003192565b60006200215d8284620031d5565b60006200215d836001600160a01b038416620022b1565b60009081526001919091016020526040902054151590565b60006200220f8383620021e9565b6200224757508154600181810184556000848152602080822090930184905584548482528286019093526040902091909155620020e1565b506000620020e1565b5490565b815460009082106200227a5760405162461bcd60e51b81526004016200048e90620025e7565b8260000182815481106200229e57634e487b7160e01b600052603260045260246000fd5b9060005260206000200154905092915050565b60008181526001830160205260408120548015620023c7576000620022d8600183620031d5565b8554909150600090620022ee90600190620031d5565b905060008660000182815481106200231657634e487b7160e01b600052603260045260246000fd5b90600052602060002001549050808760000184815481106200234857634e487b7160e01b600052603260045260246000fd5b6000918252602080832090910192909255828152600189019091526040902084905586548790806200238a57634e487b7160e01b600052603160045260246000fd5b60019003818190600052602060002001600090559055866001016000878152602001908152602001600020600090556001945050505050620020e1565b6000915050620020e1565b611866806200323d83390190565b8280548282559060005260206000209081019282156200241e579160200282015b828111156200241e57825182559160200191906001019062002401565b506200242c92915062002430565b5090565b5b808211156200242c576000815560010162002431565b80516001600160701b03811681146200064257600080fd5b60006020828403121562002471578081fd5b81356200215d8162003223565b60006020828403121562002490578081fd5b81516200215d8162003223565b60008060408385031215620024b0578081fd5b8235620024bd8162003223565b946020939093013593505050565b600060208284031215620024dd578081fd5b815180151581146200215d578182fd5b60008060006060848603121562002502578081fd5b6200250d8462002447565b92506200251d6020850162002447565b9150604084015163ffffffff8116811462002536578182fd5b809150509250925092565b60006020828403121562002553578081fd5b5035919050565b6000602082840312156200256c578081fd5b5051919050565b6000806040838503121562002586578182fd5b50508035926020909101359150565b6001600160a01b0391909116815260200190565b6001600160a01b0392831681529116602082015260400190565b6001600160a01b03929092168252602082015260400190565b901515815260200190565b60208082526022908201527f456e756d657261626c655365743a20696e646578206f7574206f6620626f756e604082015261647360f01b606082015260800190565b60208082526050908201527f4c504d3a3a63616c63756c61746552657475726e733a2050726576696f75732060408201527f72657475726e73206e6f742064697374726962757465642e2043616c6c20646960608201526f7374726962757465546f6b656e73282960801b608082015260a00190565b60208082526026908201527f4f776e61626c653a206e6577206f776e657220697320746865207a65726f206160408201526564647265737360d01b606082015260800190565b60208082526058908201527f4c504d3a3a64697374726962757465546f6b656e7353696e676c65506f6f6c3a60408201527f2050726576696f75732072657475726e73206e6f7420616c6c6f63617465642e60608201527f2043616c6c2063616c63756c61746552657475726e7328290000000000000000608082015260a00190565b60208082526030908201527f4c504d3a3a72656d6f766557686974656c6973746564506f6f6c3a20506f6f6c60408201526f081b9bdd081dda1a5d195b1a5cdd195960821b606082015260800190565b60208082526026908201527f4c504d3a3a64697374726962757465546f6b656e733a205472616e736665722060408201526519985a5b195960d21b606082015260800190565b6020808252602e908201527f4c504d3a3a63616c63756c61746552657475726e733a20417661782f5041525460408201526d164814185a5c881b9bdd081cd95d60921b606082015260800190565b60208082526026908201527f4c504d3a3a6368616e67655765696768743a2052656d6f766520706f6f6c20696040820152651b9cdd19585960d21b606082015260800190565b6020808252602e908201527f4c504d3a3a676574417661785061727479526174696f3a204e6f20415641582d60408201526d1410549516481c185a5c881cd95d60921b606082015260800190565b60208082526035908201527f4c504d3a3a61646457686974656c6973746564506f6f6c3a204e6f20415641586040820152741037b9102820a92a2c9034b7103a3432903830b4b960591b606082015260800190565b60208082526033908201527f4c504d3a3a76657374416c6c6f636174696f6e3a20496e73756666696369656e6040820152721d081410549516481d1c985b9cd9995c9c9959606a1b606082015260800190565b60208082526047908201527f4c504d3a3a76657374416c6c6f636174696f6e3a204f6c64205041525459206960408201527f7320756e616c6c6f63617465642e2043616c6c2064697374726962757465546f60608201526635b2b73994149760c91b608082015260a00190565b60208082526027908201527f4c504d3a3a6368616e67655765696768743a2050616972206e6f742077686974604082015266195b1a5cdd195960ca1b606082015260800190565b6020808252605b908201527f4c504d3a3a72656d6f766557686974656c6973746564506f6f6c3a2043616e6e60408201527f6f742072656d6f766520706f6f6c206265747765656e2063616c63756c61746960608201527f6e6720616e6420646973747269627574696e672072657475726e730000000000608082015260a00190565b6020808252818101527f4f776e61626c653a2063616c6c6572206973206e6f7420746865206f776e6572604082015260600190565b60208082526043908201527f4c504d3a3a63616c63756c61746552657475726e733a204e6f2050415254592060408201527f746f20616c6c6f636174652e2043616c6c2076657374416c6c6f636174696f6e60608201526214149760e91b608082015260a00190565b6020808252602e908201527f4c504d3a3a61646457686974656c6973746564506f6f6c3a205765696768742060408201526d63616e6e6f74206265207a65726f60901b606082015260800190565b60208082526028908201527f4c504d3a3a61646457686974656c6973746564506f6f6c3a2050616972206164604082015267190819985a5b195960c21b606082015260800190565b60208082526043908201527f4c504d3a3a67657450617274794c69717569646974793a204f6e65206f66207460408201527f686520746f6b656e7320696e207468652070616972206d75737420626520504160608201526252545960e81b608082015260a00190565b6020808252602f908201527f4c504d3a3a616374697661746546656553706c69743a2053706c697420646f6560408201526e0736e27742061646420746f2031303608c1b606082015260800190565b60208082526038908201527f4c504d3a3a61646457686974656c6973746564506f6f6c3a20506f6f6c20636160408201527f6e6e6f7420626520746865207a65726f20616464726573730000000000000000606082015260800190565b6020808252602b908201527f4c504d3a3a616374697661746546656553706c69743a2053706c69742063616e60408201526a02774206265203130302f360ac1b606082015260800190565b60208082526031908201527f4c504d3a3a61646457686974656c6973746564506f6f6c3a20506f6f6c20616c6040820152701c9958591e481dda1a5d195b1a5cdd1959607a1b606082015260800190565b60208082526055908201527f4c504d3a3a61646457686974656c6973746564506f6f6c3a2043616e6e6f742060408201527f61646420706f6f6c206265747765656e2063616c63756c6174696e6720616e6460608201527420646973747269627574696e672072657475726e7360581b608082015260a00190565b6020808252603b908201527f4c504d3a3a76657374416c6c6f636174696f6e3a204e6f20504152545920746f60408201527f20636c61696d2e2054727920616761696e20746f6d6f72726f772e0000000000606082015260800190565b60208082526042908201527f4c504d3a3a676574417661784c69717569646974793a204f6e65206f6620746860408201527f6520746f6b656e7320696e207468652070616972206d75737420626520574156606082015261082b60f31b608082015260a00190565b6020808252604e908201527f4c504d3a3a64697374726962757465546f6b656e733a2050726576696f75732060408201527f72657475726e73206e6f7420616c6c6f63617465642e2043616c6c2063616c6360608201526d756c61746552657475726e73282960901b608082015260a00190565b6020808252602e908201527f4c504d3a3a72656d6f766557686974656c6973746564506f6f6c3a205061697260408201526d081c995b5bdd994819985a5b195960921b606082015260800190565b6020808252601f908201527f5265656e7472616e637947756172643a207265656e7472616e742063616c6c00604082015260600190565b60208082526034908201527f4c504d3a3a64697374726962757465546f6b656e7353696e676c65506f6f6c3a60408201527320496e646578206f7574206f6620626f756e647360601b606082015260800190565b60208082526030908201527f4c504d3a3a6465616374697661746546656553706c69743a204665652073706c60408201526f1a5d081b9bdd081858dd1a5d985d195960821b606082015260800190565b60208082526036908201527f4c504d3a3a736574617661785061727479506169723a20506f6f6c2063616e6e6040820152756f7420626520746865207a65726f206164647265737360501b606082015260800190565b60208082526033908201527f4c504d3a3a61646457686974656c6973746564506f6f6c3a20546f6b656e732060408201527218d85b9b9bdd081899481a59195b9d1a58d85b606a1b606082015260800190565b60208082526024908201527f50617274794c6962726172793a20494e53554646494349454e545f4c495155496040820152634449545960e01b606082015260800190565b90815260200190565b600082198211156200318d576200318d6200320d565b500190565b600082620031ae57634e487b7160e01b81526012600452602481fd5b500490565b6000816000190483118215151615620031d057620031d06200320d565b500290565b600082821015620031ea57620031ea6200320d565b500390565b60006000198214156200320657620032066200320d565b5060010190565b634e487b7160e01b600052601160045260246000fd5b6001600160a01b03811681146200323957600080fd5b5056fe608060405260006004556000600555620151806006553480156200002257600080fd5b5060405162001866380380620018668339810160408190526200004591620000f7565b6001600090815562000056620000d6565b600180546001600160a01b0319166001600160a01b038316908117909155604051919250906000907f8be0079c531659141344cd1fd0a4f28419497f9722a3daafe3b4186f6b6457e0908290a350600280546001600160a01b039384166001600160a01b031991821617909155600380549290931691161790556200012e565b3390565b80516001600160a01b0381168114620000f257600080fd5b919050565b600080604083850312156200010a578182fd5b6200011583620000da565b91506200012560208401620000da565b90509250929050565b611728806200013e6000396000f3fe608060405234801561001057600080fd5b506004361061018d5760003560e01c80638980f11f116100de578063cd3daf9d11610097578063e9fad8ee11610071578063e9fad8ee146102ca578063ebe2b12b146102d2578063ecd9ba82146102da578063f2fde38b146102ed5761018d565b8063cd3daf9d146102b2578063d1af0c7d146102ba578063df136d65146102c25761018d565b80638980f11f146102565780638b876347146102695780638da5cb5b1461027c578063a694fc3a14610284578063c8f33c9114610297578063cc1a378f1461029f5761018d565b80633c6b16ab1161014b578063715018a611610125578063715018a61461022957806372f702f3146102315780637b0a47ee1461024657806380faa57d1461024e5761018d565b80633c6b16ab146101fb5780633d18b9121461020e57806370a08231146102165761018d565b80628cc262146101925780630700037d146101bb57806318160ddd146101ce5780631c1f78eb146101d65780632e1a7d4d146101de578063386a9525146101f3575b600080fd5b6101a56101a036600461117a565b610300565b6040516101b29190611639565b60405180910390f35b6101a56101c936600461117a565b610380565b6101a5610392565b6101a5610399565b6101f16101ec3660046111dd565b6103b7565b005b6101a5610503565b6101f16102093660046111dd565b610509565b6101f1610712565b6101a561022436600461117a565b610816565b6101f1610831565b6102396108ba565b6040516101b29190611276565b6101a56108c9565b6101a56108cf565b6101f1610264366004611194565b6108dd565b6101a561027736600461117a565b6109d0565b6102396109e2565b6101f16102923660046111dd565b6109f1565b6101a5610b24565b6101f16102ad3660046111dd565b610b2a565b6101a5610bea565b610239610c38565b6101a5610c47565b6101f1610c4d565b6101a5610c70565b6101f16102e836600461120d565b610c76565b6101f16102fb36600461117a565b610e2a565b6001600160a01b0381166000908152600a60209081526040808320546009909252822054610378919061037290670de0b6b3a76400009061036c9061034d90610347610bea565b90610eeb565b6001600160a01b0388166000908152600c602052604090205490610efe565b90610f0a565b90610f16565b90505b919050565b600a6020526000908152604090205481565b600b545b90565b60006103b2600654600554610efe90919063ffffffff16565b905090565b600260005414156103e35760405162461bcd60e51b81526004016103da906115c1565b60405180910390fd5b6002600055336103f1610bea565b6008556103fc6108cf565b6007556001600160a01b038116156104435761041781610300565b6001600160a01b0382166000908152600a60209081526040808320939093556008546009909152919020555b600082116104635760405162461bcd60e51b81526004016103da90611472565b600b546104709083610eeb565b600b55336000908152600c602052604090205461048d9083610eeb565b336000818152600c60205260409020919091556003546104b9916001600160a01b039091169084610f22565b336001600160a01b03167f7084f5476618d8e60b11ef0d7d3f06914655adb8793e28ff7f018d4c76d505d5836040516104f29190611639565b60405180910390a250506001600055565b60065481565b610511610f7d565b6001600160a01b03166105226109e2565b6001600160a01b0316146105485760405162461bcd60e51b81526004016103da9061149d565b6000610552610bea565b60085561055d6108cf565b6007556001600160a01b038116156105a45761057881610300565b6001600160a01b0382166000908152600a60209081526040808320939093556008546009909152919020555b60045442106105c3576006546105bb908390610f0a565b600555610606565b6004546000906105d39042610eeb565b905060006105ec60055483610efe90919063ffffffff16565b6006549091506106009061036c8684610f16565b60055550505b6002546040516370a0823160e01b81526000916001600160a01b0316906370a0823190610637903090600401611276565b60206040518083038186803b15801561064f57600080fd5b505afa158015610663573d6000803e3d6000fd5b505050506040513d601f19601f8201168201806040525081019061068791906111f5565b905061069e60065482610f0a90919063ffffffff16565b60055411156106bf5760405162461bcd60e51b81526004016103da906114d2565b4260078190556006546106d29190610f16565b6004556040517fde88a922e0d3b88b24e9623efeb464919c6bf9f66857a65e2bfcf2ce87a9433d90610705908590611639565b60405180910390a1505050565b600260005414156107355760405162461bcd60e51b81526004016103da906115c1565b600260005533610743610bea565b60085561074e6108cf565b6007556001600160a01b038116156107955761076981610300565b6001600160a01b0382166000908152600a60209081526040808320939093556008546009909152919020555b336000908152600a6020526040902054801561080d57336000818152600a60205260408120556002546107d4916001600160a01b039091169083610f22565b336001600160a01b03167fe2403640ba68fed3a2f88b7557551d1993f84b99bb10ff833f0cf8db0c5e0486826040516104f29190611639565b50506001600055565b6001600160a01b03166000908152600c602052604090205490565b610839610f7d565b6001600160a01b031661084a6109e2565b6001600160a01b0316146108705760405162461bcd60e51b81526004016103da9061149d565b6001546040516000916001600160a01b0316907f8be0079c531659141344cd1fd0a4f28419497f9722a3daafe3b4186f6b6457e0908390a3600180546001600160a01b0319169055565b6003546001600160a01b031681565b60055481565b60006103b242600454610f81565b6108e5610f7d565b6001600160a01b03166108f66109e2565b6001600160a01b03161461091c5760405162461bcd60e51b81526004016103da9061149d565b6002600054141561093f5760405162461bcd60e51b81526004016103da906115c1565b60026000556003546001600160a01b03838116911614156109725760405162461bcd60e51b81526004016103da906115f8565b61098e61097d6109e2565b6001600160a01b0384169083610f22565b7f8c1256b8896378cd5044f80c202f9772b9d77dc85c8a6eb51967210b09bfaa2882826040516109bf9291906112ef565b60405180910390a150506001600055565b60096020526000908152604090205481565b6001546001600160a01b031690565b60026000541415610a145760405162461bcd60e51b81526004016103da906115c1565b600260005533610a22610bea565b600855610a2d6108cf565b6007556001600160a01b03811615610a7457610a4881610300565b6001600160a01b0382166000908152600a60209081526040808320939093556008546009909152919020555b60008211610a945760405162461bcd60e51b81526004016103da90611404565b600b54610aa19083610f16565b600b55336000908152600c6020526040902054610abe9083610f16565b336000818152600c6020526040902091909155600354610aeb916001600160a01b03909116903085610f97565b336001600160a01b03167f9e71bc8eea02a63969f509818f2dafb9254532904319f9dbda79b67bd34a5f3d836040516104f29190611639565b60075481565b610b32610f7d565b6001600160a01b0316610b436109e2565b6001600160a01b031614610b695760405162461bcd60e51b81526004016103da9061149d565b6004544211610b8a5760405162461bcd60e51b81526004016103da9061133b565b60008111610baa5760405162461bcd60e51b81526004016103da90611540565b60068190556040517ffb46ca5a5e06d4540d6387b930a7c978bce0db5f449ec6b3f5d07c6e1d44f2d390610bdf908390611639565b60405180910390a150565b6000600b5460001415610c005750600854610396565b6103b2610c2f600b5461036c670de0b6b3a7640000610c29600554610c296007546103476108cf565b90610efe565b60085490610f16565b6002546001600160a01b031681565b60085481565b336000908152600c6020526040902054610c66906103b7565b610c6e610712565b565b60045481565b60026000541415610c995760405162461bcd60e51b81526004016103da906115c1565b600260005533610ca7610bea565b600855610cb26108cf565b6007556001600160a01b03811615610cf957610ccd81610300565b6001600160a01b0382166000908152600a60209081526040808320939093556008546009909152919020555b60008611610d195760405162461bcd60e51b81526004016103da90611404565b600b54610d269087610f16565b600b55336000908152600c6020526040902054610d439087610f16565b336000818152600c60205260409081902092909255600354915163d505accf60e01b81526001600160a01b039092169163d505accf91610d919130908b908b908b908b908b906004016112ae565b600060405180830381600087803b158015610dab57600080fd5b505af1158015610dbf573d6000803e3d6000fd5b5050600354610ddc92506001600160a01b03169050333089610f97565b336001600160a01b03167f9e71bc8eea02a63969f509818f2dafb9254532904319f9dbda79b67bd34a5f3d87604051610e159190611639565b60405180910390a25050600160005550505050565b610e32610f7d565b6001600160a01b0316610e436109e2565b6001600160a01b031614610e695760405162461bcd60e51b81526004016103da9061149d565b6001600160a01b038116610e8f5760405162461bcd60e51b81526004016103da906113be565b6001546040516001600160a01b038084169216907f8be0079c531659141344cd1fd0a4f28419497f9722a3daafe3b4186f6b6457e090600090a3600180546001600160a01b0319166001600160a01b0392909216919091179055565b6000610ef78284611699565b9392505050565b6000610ef7828461167a565b6000610ef7828461165a565b6000610ef78284611642565b610f788363a9059cbb60e01b8484604051602401610f419291906112ef565b60408051601f198184030181529190526020810180516001600160e01b03166001600160e01b031990931692909217909152610fbe565b505050565b3390565b6000818310610f905781610ef7565b5090919050565b610fb8846323b872dd60e01b858585604051602401610f419392919061128a565b50505050565b6000611013826040518060400160405280602081526020017f5361666545524332303a206c6f772d6c6576656c2063616c6c206661696c6564815250856001600160a01b031661104d9092919063ffffffff16565b805190915015610f78578080602001905181019061103191906111bd565b610f785760405162461bcd60e51b81526004016103da90611577565b606061105c8484600085611064565b949350505050565b6060824710156110865760405162461bcd60e51b81526004016103da9061142c565b61108f85611124565b6110ab5760405162461bcd60e51b81526004016103da90611509565b600080866001600160a01b031685876040516110c7919061125a565b60006040518083038185875af1925050503d8060008114611104576040519150601f19603f3d011682016040523d82523d6000602084013e611109565b606091505b509150915061111982828661112a565b979650505050505050565b3b151590565b60608315611139575081610ef7565b8251156111495782518084602001fd5b8160405162461bcd60e51b81526004016103da9190611308565b80356001600160a01b038116811461037b57600080fd5b60006020828403121561118b578081fd5b610ef782611163565b600080604083850312156111a6578081fd5b6111af83611163565b946020939093013593505050565b6000602082840312156111ce578081fd5b81518015158114610ef7578182fd5b6000602082840312156111ee578081fd5b5035919050565b600060208284031215611206578081fd5b5051919050565b600080600080600060a08688031215611224578081fd5b8535945060208601359350604086013560ff81168114611242578182fd5b94979396509394606081013594506080013592915050565b6000825161126c8184602087016116b0565b9190910192915050565b6001600160a01b0391909116815260200190565b6001600160a01b039384168152919092166020820152604081019190915260600190565b6001600160a01b0397881681529590961660208601526040850193909352606084019190915260ff16608083015260a082015260c081019190915260e00190565b6001600160a01b03929092168252602082015260400190565b60006020825282518060208401526113278160408501602087016116b0565b601f01601f19169190910160400192915050565b60208082526058908201527f50726576696f7573207265776172647320706572696f64206d7573742062652060408201527f636f6d706c657465206265666f7265206368616e67696e67207468652064757260608201527f6174696f6e20666f7220746865206e657720706572696f640000000000000000608082015260a00190565b60208082526026908201527f4f776e61626c653a206e6577206f776e657220697320746865207a65726f206160408201526564647265737360d01b606082015260800190565b6020808252600e908201526d043616e6e6f74207374616b6520360941b604082015260600190565b60208082526026908201527f416464726573733a20696e73756666696369656e742062616c616e636520666f6040820152651c8818d85b1b60d21b606082015260800190565b602080825260119082015270043616e6e6f74207769746864726177203607c1b604082015260600190565b6020808252818101527f4f776e61626c653a2063616c6c6572206973206e6f7420746865206f776e6572604082015260600190565b60208082526018908201527f50726f76696465642072657761726420746f6f20686967680000000000000000604082015260600190565b6020808252601d908201527f416464726573733a2063616c6c20746f206e6f6e2d636f6e7472616374000000604082015260600190565b6020808252601d908201527f526577617264206475726174696f6e2063616e2774206265207a65726f000000604082015260600190565b6020808252602a908201527f5361666545524332303a204552433230206f7065726174696f6e20646964206e6040820152691bdd081cdd58d8d9595960b21b606082015260800190565b6020808252601f908201527f5265656e7472616e637947756172643a207265656e7472616e742063616c6c00604082015260600190565b60208082526021908201527f43616e6e6f7420776974686472617720746865207374616b696e6720746f6b656040820152603760f91b606082015260800190565b90815260200190565b60008219821115611655576116556116dc565b500190565b60008261167557634e487b7160e01b81526012600452602481fd5b500490565b6000816000190483118215151615611694576116946116dc565b500290565b6000828210156116ab576116ab6116dc565b500390565b60005b838110156116cb5781810151838201526020016116b3565b83811115610fb85750506000910152565b634e487b7160e01b600052601160045260246000fdfea2646970667358221220321ac2a517b33ccaa6e7e3a7bd2621c0a48a4505707388fc8605e1ca1f30bb3764736f6c63430008000033a2646970667358221220b563b73f418be4ec9269b3142e305944bb94412fa3da988b63844638fc2c94df64736f6c63430008000033",
  "immutableReferences": {},
  "source": "pragma solidity 0.8.0;\n\nimport \"@openzeppelin/contracts/access/Ownable.sol\";\nimport \"@openzeppelin/contracts/utils/math/SafeMath.sol\";\nimport \"@openzeppelin/contracts/utils/structs/EnumerableSet.sol\";\nimport \"@openzeppelin/contracts/security/ReentrancyGuard.sol\";\n\nimport \"./StakingRewards.sol\";\n\n/**\n * Contract to distribute PARTY tokens to whitelisted trading pairs. After deploying,\n * whitelist the desired pairs and set the avaxPartyPair. When initial administration\n * is complete. Ownership should be transferred to the Timelock governance contract.\n */\ncontract LiquidityPoolManager is Ownable, ReentrancyGuard {\n    using EnumerableSet for EnumerableSet.AddressSet;\n    using SafeMath for uint256;\n\n    // Whitelisted pairs that offer PARTY rewards\n    // Note: AVAX/PARTY is an AVAX pair\n    EnumerableSet.AddressSet private avaxPairs;\n    EnumerableSet.AddressSet private partyPairs;\n\n    // Maps pairs to their associated StakingRewards contract\n    mapping(address => address) public stakes;\n\n    // Map of pools to weights\n    mapping(address => uint256) public weights;\n\n    // Fields to control potential fee splitting\n    bool public splitPools;\n    uint256 public avaxSplit;\n    uint256 public partySplit;\n\n    // Known contract addresses for WAVAX and PARTY\n    address public wavax;\n    address public party;\n\n    // AVAX/PARTY pair used to determine PARTY liquidity\n    address public avaxPartyPair;\n\n    // TreasuryVester contract that distributes PARTY\n    address public treasuryVester;\n\n    uint256 public numPools = 0;\n\n    bool private readyToDistribute = false;\n\n    // Tokens to distribute to each pool. Indexed by avaxPairs then partyPairs.\n    uint256[] public distribution;\n\n    uint256 public unallocatedParty = 0;\n\n    constructor(\n        address wavax_,\n        address party_,\n        address treasuryVester_\n    ) {\n        require(\n            wavax_ != address(0) &&\n                party_ != address(0) &&\n                treasuryVester_ != address(0),\n            \"LPM::constructor: Arguments can't be the zero address\"\n        );\n        wavax = wavax_;\n        party = party_;\n        treasuryVester = treasuryVester_;\n    }\n\n    /**\n     * Check if the given pair is a whitelisted pair\n     *\n     * Args:\n     *   pair: pair to check if whitelisted\n     *\n     * Return: True if whitelisted\n     */\n    function isWhitelisted(address pair) public view returns (bool) {\n        return avaxPairs.contains(pair) || partyPairs.contains(pair);\n    }\n\n    /**\n     * Check if the given pair is a whitelisted AVAX pair. The AVAX/PARTY pair is\n     * considered an AVAX pair.\n     *\n     * Args:\n     *   pair: pair to check\n     *\n     * Return: True if whitelisted and pair contains AVAX\n     */\n    function isAvaxPair(address pair) external view returns (bool) {\n        return avaxPairs.contains(pair);\n    }\n\n    /**\n     * Check if the given pair is a whitelisted PARTY pair. The AVAX/PARTY pair is\n     * not considered a PARTY pair.\n     *\n     * Args:\n     *   pair: pair to check\n     *\n     * Return: True if whitelisted and pair contains PARTY but is not AVAX/PARTY pair\n     */\n    function isPartyPair(address pair) external view returns (bool) {\n        return partyPairs.contains(pair);\n    }\n\n    /**\n     * Sets the AVAX/PARTY pair. Pair's tokens must be AVAX and PARTY.\n     *\n     * Args:\n     *   pair: AVAX/PARTY pair\n     */\n    function setavaxPartyPair(address avaxPartyPair_) external onlyOwner {\n        require(\n            avaxPartyPair_ != address(0),\n            \"LPM::setavaxPartyPair: Pool cannot be the zero address\"\n        );\n        avaxPartyPair = avaxPartyPair_;\n    }\n\n    /**\n     * Adds a new whitelisted liquidity pool pair. Generates a staking contract.\n     * Liquidity providers may stake this liquidity provider reward token and\n     * claim PARTY rewards proportional to their stake. Pair must contain either\n     * AVAX or PARTY. Associates a weight with the pair. Rewards are distributed\n     * to the pair proportionally based on its share of the total weight.\n     *\n     * Args:\n     *   pair: pair to whitelist\n     *   weight: how heavily to distribute rewards to this pool relative to other\n     *     pools\n     */\n    function addWhitelistedPool(address pair, uint256 weight)\n        external\n        onlyOwner\n    {\n        require(\n            !readyToDistribute,\n            \"LPM::addWhitelistedPool: Cannot add pool between calculating and distributing returns\"\n        );\n        require(\n            pair != address(0),\n            \"LPM::addWhitelistedPool: Pool cannot be the zero address\"\n        );\n        require(\n            isWhitelisted(pair) == false,\n            \"LPM::addWhitelistedPool: Pool already whitelisted\"\n        );\n        require(weight > 0, \"LPM::addWhitelistedPool: Weight cannot be zero\");\n\n        address token0 = IPartyPair(pair).token0();\n        address token1 = IPartyPair(pair).token1();\n\n        require(\n            token0 != token1,\n            \"LPM::addWhitelistedPool: Tokens cannot be identical\"\n        );\n\n        // Create the staking contract and associate it with the pair\n        address stakeContract = address(new StakingRewards(party, pair));\n        stakes[pair] = stakeContract;\n\n        weights[pair] = weight;\n\n        // Add as an AVAX or PARTY pair\n        if (token0 == party || token1 == party) {\n            require(\n                partyPairs.add(pair),\n                \"LPM::addWhitelistedPool: Pair add failed\"\n            );\n        } else if (token0 == wavax || token1 == wavax) {\n            require(\n                avaxPairs.add(pair),\n                \"LPM::addWhitelistedPool: Pair add failed\"\n            );\n        } else {\n            // The governance contract can be used to deploy an altered\n            // LiquidityPoolManager if non-AVAX/PARTY pools are desired.\n            revert(\"LPM::addWhitelistedPool: No AVAX or PARTY in the pair\");\n        }\n\n        numPools = numPools.add(1);\n    }\n\n    /**\n     * Delists a whitelisted pool. Liquidity providers will not receiving future rewards.\n     * Already vested funds can still be claimed. Re-whitelisting a delisted pool will\n     * deploy a new staking contract.\n     *\n     * Args:\n     *   pair: pair to remove from whitelist\n     */\n    function removeWhitelistedPool(address pair) external onlyOwner {\n        require(\n            !readyToDistribute,\n            \"LPM::removeWhitelistedPool: Cannot remove pool between calculating and distributing returns\"\n        );\n        require(\n            isWhitelisted(pair),\n            \"LPM::removeWhitelistedPool: Pool not whitelisted\"\n        );\n\n        address token0 = IPartyPair(pair).token0();\n        address token1 = IPartyPair(pair).token1();\n\n        stakes[pair] = address(0);\n        weights[pair] = 0;\n\n        if (token0 == party || token1 == party) {\n            require(\n                partyPairs.remove(pair),\n                \"LPM::removeWhitelistedPool: Pair remove failed\"\n            );\n        } else {\n            require(\n                avaxPairs.remove(pair),\n                \"LPM::removeWhitelistedPool: Pair remove failed\"\n            );\n        }\n        numPools = numPools.sub(1);\n    }\n\n    /**\n     * Adjust the weight of an existing pool\n     *\n     * Args:\n     *   pair: pool to adjust weight of\n     *   weight: new weight\n     */\n    function changeWeight(address pair, uint256 weight) external onlyOwner {\n        require(weights[pair] > 0, \"LPM::changeWeight: Pair not whitelisted\");\n        require(weight > 0, \"LPM::changeWeight: Remove pool instead\");\n        weights[pair] = weight;\n    }\n\n    /**\n     * Activates the fee split mechanism. Divides rewards between AVAX\n     * and PARTY pools regardless of liquidity. AVAX and PARTY pools will\n     * receive a fixed proportion of the pool rewards. The AVAX and PARTY\n     * splits should correspond to percentage of rewards received for\n     * each and must add up to 100. For the purposes of fee splitting,\n     * the AVAX/PARTY pool is a PARTY pool. This method can also be used to\n     * change the split ratio after fee splitting has been activated.\n     *\n     * Args:\n     *   avaxSplit: Percent of rewards to distribute to AVAX pools\n     *   partySplit: Percent of rewards to distribute to PARTY pools\n     */\n    function activateFeeSplit(uint256 avaxSplit_, uint256 partySplit_)\n        external\n        onlyOwner\n    {\n        require(\n            avaxSplit_.add(partySplit_) == 100,\n            \"LPM::activateFeeSplit: Split doesn't add to 100\"\n        );\n        require(\n            !(avaxSplit_ == 100 || partySplit_ == 100),\n            \"LPM::activateFeeSplit: Split can't be 100/0\"\n        );\n        splitPools = true;\n        avaxSplit = avaxSplit_;\n        partySplit = partySplit_;\n    }\n\n    /**\n     * Deactivates fee splitting.\n     */\n    function deactivateFeeSplit() external onlyOwner {\n        require(splitPools, \"LPM::deactivateFeeSplit: Fee split not activated\");\n        splitPools = false;\n        avaxSplit = 0;\n        partySplit = 0;\n    }\n\n    /**\n     * Calculates the amount of liquidity in the pair. For an AVAX pool, the liquidity in the\n     * pair is two times the amount of AVAX. Only works for AVAX pairs.\n     *\n     * Args:\n     *   pair: AVAX pair to get liquidity in\n     *\n     * Returns: the amount of liquidity in the pool in units of AVAX\n     */\n    function getAvaxLiquidity(address pair) public view returns (uint256) {\n        (uint256 reserve0, uint256 reserve1, ) = IPartyPair(pair).getReserves();\n\n        uint256 liquidity = 0;\n\n        // add the avax straight up\n        if (IPartyPair(pair).token0() == wavax) {\n            liquidity = liquidity.add(reserve0);\n        } else {\n            require(\n                IPartyPair(pair).token1() == wavax,\n                \"LPM::getAvaxLiquidity: One of the tokens in the pair must be WAVAX\"\n            );\n            liquidity = liquidity.add(reserve1);\n        }\n        liquidity = liquidity.mul(2);\n        return liquidity;\n    }\n\n    /**\n     * Calculates the amount of liquidity in the pair. For a PARTY pool, the liquidity in the\n     * pair is two times the amount of PARTY multiplied by the price of AVAX per PARTY. Only\n     * works for PARTY pairs.\n     *\n     * Args:\n     *   pair: PARTY pair to get liquidity in\n     *   conversionFactor: the price of AVAX to PARTY\n     *\n     * Returns: the amount of liquidity in the pool in units of AVAX\n     */\n    function getPartyLiquidity(address pair, uint256 conversionFactor)\n        public\n        view\n        returns (uint256)\n    {\n        (uint256 reserve0, uint256 reserve1, ) = IPartyPair(pair).getReserves();\n\n        uint256 liquidity = 0;\n\n        // add the party straight up\n        if (IPartyPair(pair).token0() == party) {\n            liquidity = liquidity.add(reserve0);\n        } else {\n            require(\n                IPartyPair(pair).token1() == party,\n                \"LPM::getPartyLiquidity: One of the tokens in the pair must be PARTY\"\n            );\n            liquidity = liquidity.add(reserve1);\n        }\n\n        uint256 oneToken = 1e18;\n        liquidity = liquidity.mul(conversionFactor).mul(2).div(oneToken);\n        return liquidity;\n    }\n\n    /**\n     * Calculates the price of swapping AVAX for 1 PARTY\n     *\n     * Returns: the price of swapping AVAX for 1 PARTY\n     */\n    function getAvaxPartyRatio()\n        public\n        view\n        returns (uint256 conversionFactor)\n    {\n        require(\n            !(avaxPartyPair == address(0)),\n            \"LPM::getAvaxPartyRatio: No AVAX-PARTY pair set\"\n        );\n        (uint256 reserve0, uint256 reserve1, ) = IPartyPair(avaxPartyPair)\n            .getReserves();\n\n        if (IPartyPair(avaxPartyPair).token0() == wavax) {\n            conversionFactor = quote(reserve1, reserve0);\n        } else {\n            conversionFactor = quote(reserve0, reserve1);\n        }\n    }\n\n    /**\n     * Determine how the vested PARTY allocation will be distributed to the liquidity\n     * pool staking contracts. Must be called before distributeTokens(). Tokens are\n     * distributed to pools based on relative liquidity proportional to total\n     * liquidity. Should be called after vestAllocation()/\n     */\n    function calculateReturns() public {\n        require(\n            !readyToDistribute,\n            \"LPM::calculateReturns: Previous returns not distributed. Call distributeTokens()\"\n        );\n        require(\n            unallocatedParty > 0,\n            \"LPM::calculateReturns: No PARTY to allocate. Call vestAllocation().\"\n        );\n        if (partyPairs.length() > 0) {\n            require(\n                !(avaxPartyPair == address(0)),\n                \"LPM::calculateReturns: Avax/PARTY Pair not set\"\n            );\n        }\n\n        // Calculate total liquidity\n        distribution = new uint256[](numPools);\n        uint256 avaxLiquidity = 0;\n        uint256 partyLiquidity = 0;\n\n        // Add liquidity from AVAX pairs\n        for (uint256 i = 0; i < avaxPairs.length(); i++) {\n            address pair = avaxPairs.at(i);\n            uint256 pairLiquidity = getAvaxLiquidity(pair);\n            uint256 weightedLiquidity = pairLiquidity.mul(weights[pair]);\n            distribution[i] = weightedLiquidity;\n            avaxLiquidity = SafeMath.add(avaxLiquidity, weightedLiquidity);\n        }\n\n        // Add liquidity from PARTY pairs\n        if (partyPairs.length() > 0) {\n            uint256 conversionRatio = getAvaxPartyRatio();\n            for (uint256 i = 0; i < partyPairs.length(); i++) {\n                address pair = partyPairs.at(i);\n                uint256 pairLiquidity = getPartyLiquidity(\n                    pair,\n                    conversionRatio\n                );\n                uint256 weightedLiquidity = pairLiquidity.mul(weights[pair]);\n                distribution[i + avaxPairs.length()] = weightedLiquidity;\n                partyLiquidity = SafeMath.add(\n                    partyLiquidity,\n                    weightedLiquidity\n                );\n            }\n        }\n\n        // Calculate tokens for each pool\n        uint256 transferred = 0;\n        if (splitPools) {\n            uint256 avaxAllocatedParty = unallocatedParty.mul(avaxSplit).div(\n                100\n            );\n            uint256 partyAllocatedParty = unallocatedParty.sub(\n                avaxAllocatedParty\n            );\n\n            for (uint256 i = 0; i < avaxPairs.length(); i++) {\n                uint256 pairTokens = distribution[i]\n                    .mul(avaxAllocatedParty)\n                    .div(avaxLiquidity);\n                distribution[i] = pairTokens;\n                transferred = transferred.add(pairTokens);\n            }\n\n            if (partyPairs.length() > 0) {\n                for (uint256 i = 0; i < partyPairs.length(); i++) {\n                    uint256 pairTokens = distribution[i + avaxPairs.length()]\n                        .mul(partyAllocatedParty)\n                        .div(partyLiquidity);\n                    distribution[i + avaxPairs.length()] = pairTokens;\n                    transferred = transferred.add(pairTokens);\n                }\n            }\n        } else {\n            uint256 totalLiquidity = avaxLiquidity.add(partyLiquidity);\n\n            for (uint256 i = 0; i < distribution.length; i++) {\n                uint256 pairTokens = distribution[i].mul(unallocatedParty).div(\n                    totalLiquidity\n                );\n                distribution[i] = pairTokens;\n                transferred = transferred.add(pairTokens);\n            }\n        }\n        readyToDistribute = true;\n    }\n\n    /**\n     * After token distributions have been calculated, actually distribute the vested PARTY\n     * allocation to the staking pools. Must be called after calculateReturns().\n     */\n    function distributeTokens() public nonReentrant {\n        require(\n            readyToDistribute,\n            \"LPM::distributeTokens: Previous returns not allocated. Call calculateReturns()\"\n        );\n        readyToDistribute = false;\n        address stakeContract;\n        uint256 rewardTokens;\n        for (uint256 i = 0; i < distribution.length; i++) {\n            if (i < avaxPairs.length()) {\n                stakeContract = stakes[avaxPairs.at(i)];\n            } else {\n                stakeContract = stakes[partyPairs.at(i - avaxPairs.length())];\n            }\n            rewardTokens = distribution[i];\n            if (rewardTokens > 0) {\n                require(\n                    IPARTY(party).transfer(stakeContract, rewardTokens),\n                    \"LPM::distributeTokens: Transfer failed\"\n                );\n                StakingRewards(stakeContract).notifyRewardAmount(rewardTokens);\n            }\n        }\n        unallocatedParty = 0;\n    }\n\n    /**\n     * Fallback for distributeTokens in case of gas overflow. Distributes PARTY tokens to a single pool.\n     * distibuteTokens() must still be called once to reset the contract state before calling vestAllocation.\n     *\n     * Args:\n     *   pairIndex: index of pair to distribute tokens to, AVAX pairs come first in the ordering\n     */\n    function distributeTokensSinglePool(uint256 pairIndex)\n        external\n        nonReentrant\n    {\n        require(\n            readyToDistribute,\n            \"LPM::distributeTokensSinglePool: Previous returns not allocated. Call calculateReturns()\"\n        );\n        require(\n            pairIndex < numPools,\n            \"LPM::distributeTokensSinglePool: Index out of bounds\"\n        );\n\n        address stakeContract;\n        if (pairIndex < avaxPairs.length()) {\n            stakeContract = stakes[avaxPairs.at(pairIndex)];\n        } else {\n            stakeContract = stakes[\n                partyPairs.at(pairIndex - avaxPairs.length())\n            ];\n        }\n\n        uint256 rewardTokens = distribution[pairIndex];\n        if (rewardTokens > 0) {\n            distribution[pairIndex] = 0;\n            require(\n                IPARTY(party).transfer(stakeContract, rewardTokens),\n                \"LPM::distributeTokens: Transfer failed\"\n            );\n            StakingRewards(stakeContract).notifyRewardAmount(rewardTokens);\n        }\n    }\n\n    /**\n     * Calculate pool token distribution and distribute tokens. Methods are separate\n     * to use risk of approaching the gas limit. There must be vested tokens to\n     * distribute, so this method should be called after vestAllocation.\n     */\n    function calculateAndDistribute() external {\n        calculateReturns();\n        distributeTokens();\n    }\n\n    /**\n     * Claim today's vested tokens for the manager to distribute. Moves tokens from\n     * the TreasuryVester to the LPM. Can only be called if all\n     * previously allocated tokens have been distributed. Call distributeTokens() if\n     * that is not the case. If any additional PARTY tokens have been transferred to this\n     * this contract, they will be marked as unallocated and prepared for distribution.\n     */\n    function vestAllocation() external nonReentrant {\n        require(\n            unallocatedParty == 0,\n            \"LPM::vestAllocation: Old PARTY is unallocated. Call distributeTokens().\"\n        );\n        unallocatedParty = ITreasuryVester(treasuryVester).claim();\n        require(\n            unallocatedParty > 0,\n            \"LPM::vestAllocation: No PARTY to claim. Try again tomorrow.\"\n        );\n\n        // Check if we've received extra tokens or didn't receive enough\n        uint256 actualBalance = IPARTY(party).balanceOf(address(this));\n        require(\n            actualBalance >= unallocatedParty,\n            \"LPM::vestAllocation: Insufficient PARTY transferred\"\n        );\n        unallocatedParty = actualBalance;\n    }\n\n    /**\n     * Calculate the equivalent of 1e18 of token A denominated in token B for a pair\n     * with reserveA and reserveB reserves.\n     *\n     * Args:\n     *   reserveA: reserves of token A\n     *   reserveB: reserves of token B\n     *\n     * Returns: the amount of token B equivalent to 1e18 of token A\n     */\n    function quote(uint256 reserveA, uint256 reserveB)\n        internal\n        pure\n        returns (uint256 amountB)\n    {\n        require(\n            reserveA > 0 && reserveB > 0,\n            \"PartyLibrary: INSUFFICIENT_LIQUIDITY\"\n        );\n        uint256 oneToken = 1e18;\n        amountB = SafeMath.div(SafeMath.mul(oneToken, reserveB), reserveA);\n    }\n}\n\ninterface ITreasuryVester {\n    function claim() external returns (uint256);\n}\n\ninterface IPARTY {\n    function balanceOf(address account) external view returns (uint256);\n\n    function transfer(address dst, uint256 rawAmount) external returns (bool);\n}\n\ninterface IPartyPair {\n    function token0() external view returns (address);\n\n    function token1() external view returns (address);\n\n    function factory() external view returns (address);\n\n    function balanceOf(address owner) external view returns (uint256);\n\n    function transfer(address to, uint256 value) external returns (bool);\n\n    function burn(address to)\n        external\n        returns (uint256 amount0, uint256 amount1);\n\n    function getReserves()\n        external\n        view\n        returns (\n            uint112 _reserve0,\n            uint112 _reserve1,\n            uint32 _blockTimestampLast\n        );\n}\n",
  "sourcePath": "/home/pedro/Documents/projects/avalabs/party-swap/party-pinatas/contracts/LiquidityPoolManager.sol",
  "compiler": {
    "name": "solc",
    "version": "0.8.0+commit.c7dfd78e.Emscripten.clang"
  },
  "schemaVersion": "3.4.1",
  "updatedAt": "2021-09-30T03:05:11.595Z",
  "networkType": "ethereum",
  "devdoc": {
    "kind": "dev",
    "methods": {
      "owner()": {
        "details": "Returns the address of the current owner."
      },
      "renounceOwnership()": {
        "details": "Leaves the contract without owner. It will not be possible to call `onlyOwner` functions anymore. Can only be called by the current owner. NOTE: Renouncing ownership will leave the contract without an owner, thereby removing any functionality that is only available to the owner."
      },
      "transferOwnership(address)": {
        "details": "Transfers ownership of the contract to a new account (`newOwner`). Can only be called by the current owner."
      }
    },
    "version": 1
  },
  "userdoc": {
    "kind": "user",
    "methods": {
      "activateFeeSplit(uint256,uint256)": {
        "notice": "Activates the fee split mechanism. Divides rewards between AVAX and PARTY pools regardless of liquidity. AVAX and PARTY pools will receive a fixed proportion of the pool rewards. The AVAX and PARTY splits should correspond to percentage of rewards received for each and must add up to 100. For the purposes of fee splitting, the AVAX/PARTY pool is a PARTY pool. This method can also be used to change the split ratio after fee splitting has been activated. Args:   avaxSplit: Percent of rewards to distribute to AVAX pools   partySplit: Percent of rewards to distribute to PARTY pools"
      },
      "addWhitelistedPool(address,uint256)": {
        "notice": "Adds a new whitelisted liquidity pool pair. Generates a staking contract. Liquidity providers may stake this liquidity provider reward token and claim PARTY rewards proportional to their stake. Pair must contain either AVAX or PARTY. Associates a weight with the pair. Rewards are distributed to the pair proportionally based on its share of the total weight. Args:   pair: pair to whitelist   weight: how heavily to distribute rewards to this pool relative to other     pools"
      },
      "calculateAndDistribute()": {
        "notice": "Calculate pool token distribution and distribute tokens. Methods are separate to use risk of approaching the gas limit. There must be vested tokens to distribute, so this method should be called after vestAllocation."
      },
      "calculateReturns()": {
        "notice": "Determine how the vested PARTY allocation will be distributed to the liquidity pool staking contracts. Must be called before distributeTokens(). Tokens are distributed to pools based on relative liquidity proportional to total liquidity. Should be called after vestAllocation()/"
      },
      "changeWeight(address,uint256)": {
        "notice": "Adjust the weight of an existing pool Args:   pair: pool to adjust weight of   weight: new weight"
      },
      "deactivateFeeSplit()": {
        "notice": "Deactivates fee splitting."
      },
      "distributeTokens()": {
        "notice": "After token distributions have been calculated, actually distribute the vested PARTY allocation to the staking pools. Must be called after calculateReturns()."
      },
      "distributeTokensSinglePool(uint256)": {
        "notice": "Fallback for distributeTokens in case of gas overflow. Distributes PARTY tokens to a single pool. distibuteTokens() must still be called once to reset the contract state before calling vestAllocation. Args:   pairIndex: index of pair to distribute tokens to, AVAX pairs come first in the ordering"
      },
      "getAvaxLiquidity(address)": {
        "notice": "Calculates the amount of liquidity in the pair. For an AVAX pool, the liquidity in the pair is two times the amount of AVAX. Only works for AVAX pairs. Args:   pair: AVAX pair to get liquidity in Returns: the amount of liquidity in the pool in units of AVAX"
      },
      "getAvaxPartyRatio()": {
        "notice": "Calculates the price of swapping AVAX for 1 PARTY Returns: the price of swapping AVAX for 1 PARTY"
      },
      "getPartyLiquidity(address,uint256)": {
        "notice": "Calculates the amount of liquidity in the pair. For a PARTY pool, the liquidity in the pair is two times the amount of PARTY multiplied by the price of AVAX per PARTY. Only works for PARTY pairs. Args:   pair: PARTY pair to get liquidity in   conversionFactor: the price of AVAX to PARTY Returns: the amount of liquidity in the pool in units of AVAX"
      },
      "isAvaxPair(address)": {
        "notice": "Check if the given pair is a whitelisted AVAX pair. The AVAX/PARTY pair is considered an AVAX pair. Args:   pair: pair to check Return: True if whitelisted and pair contains AVAX"
      },
      "isPartyPair(address)": {
        "notice": "Check if the given pair is a whitelisted PARTY pair. The AVAX/PARTY pair is not considered a PARTY pair. Args:   pair: pair to check Return: True if whitelisted and pair contains PARTY but is not AVAX/PARTY pair"
      },
      "isWhitelisted(address)": {
        "notice": "Check if the given pair is a whitelisted pair Args:   pair: pair to check if whitelisted Return: True if whitelisted"
      },
      "removeWhitelistedPool(address)": {
        "notice": "Delists a whitelisted pool. Liquidity providers will not receiving future rewards. Already vested funds can still be claimed. Re-whitelisting a delisted pool will deploy a new staking contract. Args:   pair: pair to remove from whitelist"
      },
      "setavaxPartyPair(address)": {
        "notice": "Sets the AVAX/PARTY pair. Pair's tokens must be AVAX and PARTY. Args:   pair: AVAX/PARTY pair"
      },
      "vestAllocation()": {
        "notice": "Claim today's vested tokens for the manager to distribute. Moves tokens from the TreasuryVester to the LPM. Can only be called if all previously allocated tokens have been distributed. Call distributeTokens() if that is not the case. If any additional PARTY tokens have been transferred to this this contract, they will be marked as unallocated and prepared for distribution."
      }
    },
    "notice": "Contract to distribute PARTY tokens to whitelisted trading pairs. After deploying, whitelist the desired pairs and set the avaxPartyPair. When initial administration is complete. Ownership should be transferred to the Timelock governance contract.",
    "version": 1
  }
}