{
  "contractName": "PartyJacuzzis",
  "abi": [
    {
      "inputs": [
        {
          "internalType": "contract YAYToken",
          "name": "_yay",
          "type": "address"
        }
      ],
      "stateMutability": "nonpayable",
      "type": "constructor"
    },
    {
      "anonymous": false,
      "inputs": [
        {
          "indexed": true,
          "internalType": "address",
          "name": "owner",
          "type": "address"
        },
        {
          "indexed": true,
          "internalType": "address",
          "name": "spender",
          "type": "address"
        },
        {
          "indexed": false,
          "internalType": "uint256",
          "name": "value",
          "type": "uint256"
        }
      ],
      "name": "Approval",
      "type": "event"
    },
    {
      "anonymous": false,
      "inputs": [
        {
          "indexed": true,
          "internalType": "address",
          "name": "previousOwner",
          "type": "address"
        },
        {
          "indexed": true,
          "internalType": "address",
          "name": "newOwner",
          "type": "address"
        }
      ],
      "name": "OwnershipTransferred",
      "type": "event"
    },
    {
      "anonymous": false,
      "inputs": [
        {
          "indexed": true,
          "internalType": "address",
          "name": "from",
          "type": "address"
        },
        {
          "indexed": true,
          "internalType": "address",
          "name": "to",
          "type": "address"
        },
        {
          "indexed": false,
          "internalType": "uint256",
          "name": "value",
          "type": "uint256"
        }
      ],
      "name": "Transfer",
      "type": "event"
    },
    {
      "inputs": [],
      "name": "LOCK_PERIOD",
      "outputs": [
        {
          "internalType": "uint256",
          "name": "",
          "type": "uint256"
        }
      ],
      "stateMutability": "view",
      "type": "function",
      "constant": true
    },
    {
      "inputs": [],
      "name": "MAX_EARLY_WITHDRAW_FEE",
      "outputs": [
        {
          "internalType": "uint256",
          "name": "",
          "type": "uint256"
        }
      ],
      "stateMutability": "view",
      "type": "function",
      "constant": true
    },
    {
      "inputs": [
        {
          "internalType": "address",
          "name": "owner",
          "type": "address"
        },
        {
          "internalType": "address",
          "name": "spender",
          "type": "address"
        }
      ],
      "name": "allowance",
      "outputs": [
        {
          "internalType": "uint256",
          "name": "",
          "type": "uint256"
        }
      ],
      "stateMutability": "view",
      "type": "function",
      "constant": true
    },
    {
      "inputs": [
        {
          "internalType": "address",
          "name": "spender",
          "type": "address"
        },
        {
          "internalType": "uint256",
          "name": "amount",
          "type": "uint256"
        }
      ],
      "name": "approve",
      "outputs": [
        {
          "internalType": "bool",
          "name": "",
          "type": "bool"
        }
      ],
      "stateMutability": "nonpayable",
      "type": "function"
    },
    {
      "inputs": [
        {
          "internalType": "address",
          "name": "account",
          "type": "address"
        }
      ],
      "name": "balanceOf",
      "outputs": [
        {
          "internalType": "uint256",
          "name": "",
          "type": "uint256"
        }
      ],
      "stateMutability": "view",
      "type": "function",
      "constant": true
    },
    {
      "inputs": [],
      "name": "decimals",
      "outputs": [
        {
          "internalType": "uint8",
          "name": "",
          "type": "uint8"
        }
      ],
      "stateMutability": "view",
      "type": "function",
      "constant": true
    },
    {
      "inputs": [
        {
          "internalType": "address",
          "name": "spender",
          "type": "address"
        },
        {
          "internalType": "uint256",
          "name": "subtractedValue",
          "type": "uint256"
        }
      ],
      "name": "decreaseAllowance",
      "outputs": [
        {
          "internalType": "bool",
          "name": "",
          "type": "bool"
        }
      ],
      "stateMutability": "nonpayable",
      "type": "function"
    },
    {
      "inputs": [],
      "name": "earlyWithdrawalFee",
      "outputs": [
        {
          "internalType": "uint256",
          "name": "",
          "type": "uint256"
        }
      ],
      "stateMutability": "view",
      "type": "function",
      "constant": true
    },
    {
      "inputs": [
        {
          "internalType": "address",
          "name": "spender",
          "type": "address"
        },
        {
          "internalType": "uint256",
          "name": "addedValue",
          "type": "uint256"
        }
      ],
      "name": "increaseAllowance",
      "outputs": [
        {
          "internalType": "bool",
          "name": "",
          "type": "bool"
        }
      ],
      "stateMutability": "nonpayable",
      "type": "function"
    },
    {
      "inputs": [],
      "name": "name",
      "outputs": [
        {
          "internalType": "string",
          "name": "",
          "type": "string"
        }
      ],
      "stateMutability": "view",
      "type": "function",
      "constant": true
    },
    {
      "inputs": [],
      "name": "owner",
      "outputs": [
        {
          "internalType": "address",
          "name": "",
          "type": "address"
        }
      ],
      "stateMutability": "view",
      "type": "function",
      "constant": true
    },
    {
      "inputs": [],
      "name": "renounceOwnership",
      "outputs": [],
      "stateMutability": "nonpayable",
      "type": "function"
    },
    {
      "inputs": [],
      "name": "symbol",
      "outputs": [
        {
          "internalType": "string",
          "name": "",
          "type": "string"
        }
      ],
      "stateMutability": "view",
      "type": "function",
      "constant": true
    },
    {
      "inputs": [],
      "name": "totalSupply",
      "outputs": [
        {
          "internalType": "uint256",
          "name": "",
          "type": "uint256"
        }
      ],
      "stateMutability": "view",
      "type": "function",
      "constant": true
    },
    {
      "inputs": [
        {
          "internalType": "address",
          "name": "recipient",
          "type": "address"
        },
        {
          "internalType": "uint256",
          "name": "amount",
          "type": "uint256"
        }
      ],
      "name": "transfer",
      "outputs": [
        {
          "internalType": "bool",
          "name": "",
          "type": "bool"
        }
      ],
      "stateMutability": "nonpayable",
      "type": "function"
    },
    {
      "inputs": [
        {
          "internalType": "address",
          "name": "sender",
          "type": "address"
        },
        {
          "internalType": "address",
          "name": "recipient",
          "type": "address"
        },
        {
          "internalType": "uint256",
          "name": "amount",
          "type": "uint256"
        }
      ],
      "name": "transferFrom",
      "outputs": [
        {
          "internalType": "bool",
          "name": "",
          "type": "bool"
        }
      ],
      "stateMutability": "nonpayable",
      "type": "function"
    },
    {
      "inputs": [
        {
          "internalType": "address",
          "name": "newOwner",
          "type": "address"
        }
      ],
      "name": "transferOwnership",
      "outputs": [],
      "stateMutability": "nonpayable",
      "type": "function"
    },
    {
      "inputs": [],
      "name": "unlockDate",
      "outputs": [
        {
          "internalType": "uint256",
          "name": "",
          "type": "uint256"
        }
      ],
      "stateMutability": "view",
      "type": "function",
      "constant": true
    },
    {
      "inputs": [],
      "name": "yay",
      "outputs": [
        {
          "internalType": "contract YAYToken",
          "name": "",
          "type": "address"
        }
      ],
      "stateMutability": "view",
      "type": "function",
      "constant": true
    },
    {
      "inputs": [
        {
          "internalType": "uint256",
          "name": "_amount",
          "type": "uint256"
        }
      ],
      "name": "enter",
      "outputs": [],
      "stateMutability": "nonpayable",
      "type": "function"
    },
    {
      "inputs": [
        {
          "internalType": "uint256",
          "name": "_share",
          "type": "uint256"
        }
      ],
      "name": "leave",
      "outputs": [],
      "stateMutability": "nonpayable",
      "type": "function"
    },
    {
      "inputs": [
        {
          "internalType": "uint256",
          "name": "_earlyWithdrawalFee",
          "type": "uint256"
        }
      ],
      "name": "setEarlyWithdrawalFee",
      "outputs": [],
      "stateMutability": "nonpayable",
      "type": "function"
    }
  ],
  "bytecode": "0x60806040526109c46007553480156200001757600080fd5b5060405162002b7738038062002b7783398181016040528101906200003d9190620002e0565b6040518060400160405280600d81526020017f50617274794a6163757a7a6973000000000000000000000000000000000000008152506040518060400160405280600481526020017f78594159000000000000000000000000000000000000000000000000000000008152508160039080519060200190620000c192919062000219565b508060049080519060200190620000da92919062000219565b5050506000620000ef620001f960201b60201c565b905080600560006101000a81548173ffffffffffffffffffffffffffffffffffffffff021916908373ffffffffffffffffffffffffffffffffffffffff1602179055508073ffffffffffffffffffffffffffffffffffffffff16600073ffffffffffffffffffffffffffffffffffffffff167f8be0079c531659141344cd1fd0a4f28419497f9722a3daafe3b4186f6b6457e060405160405180910390a35080600660006101000a81548173ffffffffffffffffffffffffffffffffffffffff021916908373ffffffffffffffffffffffffffffffffffffffff160217905550620001ec62ed4e00426200020160201b620012311790919060201c565b6008819055505062000469565b600033905090565b600081836200021191906200030c565b905092915050565b8280546200022790620003bb565b90600052602060002090601f0160209004810192826200024b576000855562000297565b82601f106200026657805160ff191683800117855562000297565b8280016001018555821562000297579182015b828111156200029657825182559160200191906001019062000279565b5b509050620002a69190620002aa565b5090565b5b80821115620002c5576000816000905550600101620002ab565b5090565b600081519050620002da816200044f565b92915050565b600060208284031215620002f357600080fd5b60006200030384828501620002c9565b91505092915050565b60006200031982620003b1565b91506200032683620003b1565b9250827fffffffffffffffffffffffffffffffffffffffffffffffffffffffffffffffff038211156200035e576200035d620003f1565b5b828201905092915050565b6000620003768262000391565b9050919050565b60006200038a8262000369565b9050919050565b600073ffffffffffffffffffffffffffffffffffffffff82169050919050565b6000819050919050565b60006002820490506001821680620003d457607f821691505b60208210811415620003eb57620003ea62000420565b5b50919050565b7f4e487b7100000000000000000000000000000000000000000000000000000000600052601160045260246000fd5b7f4e487b7100000000000000000000000000000000000000000000000000000000600052602260045260246000fd5b6200045a816200037d565b81146200046657600080fd5b50565b6126fe80620004796000396000f3fe608060405234801561001057600080fd5b50600436106101425760003560e01c8063715018a6116100b8578063a9059cbb1161007c578063a9059cbb14610369578063d569bdeb14610399578063dd62ed3e146103b7578063ddc16b31146103e7578063f2fde38b14610405578063f826ed2e1461042157610142565b8063715018a6146102d75780638da5cb5b146102e157806395d89b41146102ff578063a457c2d71461031d578063a59f3e0c1461034d57610142565b806323b872dd1161010a57806323b872dd146101ef578063313ce5671461021f578063395093511461023d57806367dfd4c91461026d57806369ac57211461028957806370a08231146102a757610142565b806306fdde0314610147578063095ea7b31461016557806316330d401461019557806318160ddd146101b35780631820cabb146101d1575b600080fd5b61014f61043d565b60405161015c91906121de565b60405180910390f35b61017f600480360381019061017a9190611b10565b6104cf565b60405161018c91906121a8565b60405180910390f35b61019d6104ed565b6040516101aa91906123a0565b60405180910390f35b6101bb6104f3565b6040516101c891906123a0565b60405180910390f35b6101d96104fd565b6040516101e691906123a0565b60405180910390f35b61020960048036038101906102049190611ac1565b610504565b60405161021691906121a8565b60405180910390f35b610227610605565b60405161023491906123bb565b60405180910390f35b61025760048036038101906102529190611b10565b61060e565b60405161026491906121a8565b60405180910390f35b61028760048036038101906102829190611b75565b6106ba565b005b6102916109e4565b60405161029e91906123a0565b60405180910390f35b6102c160048036038101906102bc9190611a5c565b6109ea565b6040516102ce91906123a0565b60405180910390f35b6102df610a32565b005b6102e9610b6f565b6040516102f6919061212d565b60405180910390f35b610307610b99565b60405161031491906121de565b60405180910390f35b61033760048036038101906103329190611b10565b610c2b565b60405161034491906121a8565b60405180910390f35b61036760048036038101906103629190611b75565b610d1f565b005b610383600480360381019061037e9190611b10565b610ee9565b60405161039091906121a8565b60405180910390f35b6103a1610f07565b6040516103ae91906121c3565b60405180910390f35b6103d160048036038101906103cc9190611a85565b610f2d565b6040516103de91906123a0565b60405180910390f35b6103ef610fb4565b6040516103fc91906123a0565b60405180910390f35b61041f600480360381019061041a9190611a5c565b610fba565b005b61043b60048036038101906104369190611b75565b611166565b005b60606003805461044c906125b3565b80601f0160208091040260200160405190810160405280929190818152602001828054610478906125b3565b80156104c55780601f1061049a576101008083540402835291602001916104c5565b820191906000526020600020905b8154815290600101906020018083116104a857829003601f168201915b5050505050905090565b60006104e36104dc611247565b848461124f565b6001905092915050565b60075481565b6000600254905090565b62ed4e0081565b600061051184848461141a565b6000600160008673ffffffffffffffffffffffffffffffffffffffff1673ffffffffffffffffffffffffffffffffffffffff168152602001908152602001600020600061055c611247565b73ffffffffffffffffffffffffffffffffffffffff1673ffffffffffffffffffffffffffffffffffffffff168152602001908152602001600020549050828110156105dc576040517f08c379a00000000000000000000000000000000000000000000000000000000081526004016105d3906122a0565b60405180910390fd5b6105f9856105e8611247565b85846105f491906124d3565b61124f565b60019150509392505050565b60006012905090565b60006106b061061b611247565b848460016000610629611247565b73ffffffffffffffffffffffffffffffffffffffff1673ffffffffffffffffffffffffffffffffffffffff16815260200190815260200160002060008873ffffffffffffffffffffffffffffffffffffffff1673ffffffffffffffffffffffffffffffffffffffff168152602001908152602001600020546106ab91906123f2565b61124f565b6001905092915050565b60006106c46104f3565b9050600061079782610789600660009054906101000a900473ffffffffffffffffffffffffffffffffffffffff1673ffffffffffffffffffffffffffffffffffffffff166370a08231306040518263ffffffff1660e01b815260040161072a919061212d565b60206040518083038186803b15801561074257600080fd5b505afa158015610756573d6000803e3d6000fd5b505050506040513d601f19601f8201168201806040525081019061077a9190611b9e565b8661169990919063ffffffff16565b6116af90919063ffffffff16565b90506107a333846116c5565b600854421061086157600660009054906101000a900473ffffffffffffffffffffffffffffffffffffffff1673ffffffffffffffffffffffffffffffffffffffff1663a9059cbb33836040518363ffffffff1660e01b815260040161080992919061217f565b602060405180830381600087803b15801561082357600080fd5b505af1158015610837573d6000803e3d6000fd5b505050506040513d601f19601f8201168201806040525081019061085b9190611b4c565b506109df565b600061088c61271061087e6007548561169990919063ffffffff16565b6116af90919063ffffffff16565b9050600660009054906101000a900473ffffffffffffffffffffffffffffffffffffffff1673ffffffffffffffffffffffffffffffffffffffff1663a9059cbb336108e0848661189990919063ffffffff16565b6040518363ffffffff1660e01b81526004016108fd92919061217f565b602060405180830381600087803b15801561091757600080fd5b505af115801561092b573d6000803e3d6000fd5b505050506040513d601f19601f8201168201806040525081019061094f9190611b4c565b50600660009054906101000a900473ffffffffffffffffffffffffffffffffffffffff1673ffffffffffffffffffffffffffffffffffffffff1663dd7f92d2826040518263ffffffff1660e01b81526004016109ab91906123a0565b600060405180830381600087803b1580156109c557600080fd5b505af11580156109d9573d6000803e3d6000fd5b50505050505b505050565b60085481565b60008060008373ffffffffffffffffffffffffffffffffffffffff1673ffffffffffffffffffffffffffffffffffffffff168152602001908152602001600020549050919050565b610a3a611247565b73ffffffffffffffffffffffffffffffffffffffff16610a58610b6f565b73ffffffffffffffffffffffffffffffffffffffff1614610aae576040517f08c379a0000000000000000000000000000000000000000000000000000000008152600401610aa5906122c0565b60405180910390fd5b600073ffffffffffffffffffffffffffffffffffffffff16600560009054906101000a900473ffffffffffffffffffffffffffffffffffffffff1673ffffffffffffffffffffffffffffffffffffffff167f8be0079c531659141344cd1fd0a4f28419497f9722a3daafe3b4186f6b6457e060405160405180910390a36000600560006101000a81548173ffffffffffffffffffffffffffffffffffffffff021916908373ffffffffffffffffffffffffffffffffffffffff160217905550565b6000600560009054906101000a900473ffffffffffffffffffffffffffffffffffffffff16905090565b606060048054610ba8906125b3565b80601f0160208091040260200160405190810160405280929190818152602001828054610bd4906125b3565b8015610c215780601f10610bf657610100808354040283529160200191610c21565b820191906000526020600020905b815481529060010190602001808311610c0457829003601f168201915b5050505050905090565b60008060016000610c3a611247565b73ffffffffffffffffffffffffffffffffffffffff1673ffffffffffffffffffffffffffffffffffffffff16815260200190815260200160002060008573ffffffffffffffffffffffffffffffffffffffff1673ffffffffffffffffffffffffffffffffffffffff16815260200190815260200160002054905082811015610cf7576040517f08c379a0000000000000000000000000000000000000000000000000000000008152600401610cee90612360565b60405180910390fd5b610d14610d02611247565b858584610d0f91906124d3565b61124f565b600191505092915050565b6000600660009054906101000a900473ffffffffffffffffffffffffffffffffffffffff1673ffffffffffffffffffffffffffffffffffffffff166370a08231306040518263ffffffff1660e01b8152600401610d7c919061212d565b60206040518083038186803b158015610d9457600080fd5b505afa158015610da8573d6000803e3d6000fd5b505050506040513d601f19601f82011682018060405250810190610dcc9190611b9e565b90506000610dd86104f3565b90506000811480610de95750600082145b15610dfd57610df833846118af565b610e32565b6000610e2483610e16848761169990919063ffffffff16565b6116af90919063ffffffff16565b9050610e3033826118af565b505b600660009054906101000a900473ffffffffffffffffffffffffffffffffffffffff1673ffffffffffffffffffffffffffffffffffffffff166323b872dd3330866040518463ffffffff1660e01b8152600401610e9193929190612148565b602060405180830381600087803b158015610eab57600080fd5b505af1158015610ebf573d6000803e3d6000fd5b505050506040513d601f19601f82011682018060405250810190610ee39190611b4c565b50505050565b6000610efd610ef6611247565b848461141a565b6001905092915050565b600660009054906101000a900473ffffffffffffffffffffffffffffffffffffffff1681565b6000600160008473ffffffffffffffffffffffffffffffffffffffff1673ffffffffffffffffffffffffffffffffffffffff16815260200190815260200160002060008373ffffffffffffffffffffffffffffffffffffffff1673ffffffffffffffffffffffffffffffffffffffff16815260200190815260200160002054905092915050565b61271081565b610fc2611247565b73ffffffffffffffffffffffffffffffffffffffff16610fe0610b6f565b73ffffffffffffffffffffffffffffffffffffffff1614611036576040517f08c379a000000000000000000000000000000000000000000000000000000000815260040161102d906122c0565b60405180910390fd5b600073ffffffffffffffffffffffffffffffffffffffff168173ffffffffffffffffffffffffffffffffffffffff1614156110a6576040517f08c379a000000000000000000000000000000000000000000000000000000000815260040161109d90612240565b60405180910390fd5b8073ffffffffffffffffffffffffffffffffffffffff16600560009054906101000a900473ffffffffffffffffffffffffffffffffffffffff1673ffffffffffffffffffffffffffffffffffffffff167f8be0079c531659141344cd1fd0a4f28419497f9722a3daafe3b4186f6b6457e060405160405180910390a380600560006101000a81548173ffffffffffffffffffffffffffffffffffffffff021916908373ffffffffffffffffffffffffffffffffffffffff16021790555050565b61116e611247565b73ffffffffffffffffffffffffffffffffffffffff1661118c610b6f565b73ffffffffffffffffffffffffffffffffffffffff16146111e2576040517f08c379a00000000000000000000000000000000000000000000000000000000081526004016111d9906122c0565b60405180910390fd5b612710811115611227576040517f08c379a000000000000000000000000000000000000000000000000000000000815260040161121e906122e0565b60405180910390fd5b8060078190555050565b6000818361123f91906123f2565b905092915050565b600033905090565b600073ffffffffffffffffffffffffffffffffffffffff168373ffffffffffffffffffffffffffffffffffffffff1614156112bf576040517f08c379a00000000000000000000000000000000000000000000000000000000081526004016112b690612340565b60405180910390fd5b600073ffffffffffffffffffffffffffffffffffffffff168273ffffffffffffffffffffffffffffffffffffffff16141561132f576040517f08c379a000000000000000000000000000000000000000000000000000000000815260040161132690612260565b60405180910390fd5b80600160008573ffffffffffffffffffffffffffffffffffffffff1673ffffffffffffffffffffffffffffffffffffffff16815260200190815260200160002060008473ffffffffffffffffffffffffffffffffffffffff1673ffffffffffffffffffffffffffffffffffffffff168152602001908152602001600020819055508173ffffffffffffffffffffffffffffffffffffffff168373ffffffffffffffffffffffffffffffffffffffff167f8c5be1e5ebec7d5bd14f71427d1e84f3dd0314c0f7b2291e5b200ac8c7c3b9258360405161140d91906123a0565b60405180910390a3505050565b600073ffffffffffffffffffffffffffffffffffffffff168373ffffffffffffffffffffffffffffffffffffffff16141561148a576040517f08c379a000000000000000000000000000000000000000000000000000000000815260040161148190612320565b60405180910390fd5b600073ffffffffffffffffffffffffffffffffffffffff168273ffffffffffffffffffffffffffffffffffffffff1614156114fa576040517f08c379a00000000000000000000000000000000000000000000000000000000081526004016114f190612200565b60405180910390fd5b611505838383611a03565b60008060008573ffffffffffffffffffffffffffffffffffffffff1673ffffffffffffffffffffffffffffffffffffffff1681526020019081526020016000205490508181101561158b576040517f08c379a000000000000000000000000000000000000000000000000000000000815260040161158290612280565b60405180910390fd5b818161159791906124d3565b6000808673ffffffffffffffffffffffffffffffffffffffff1673ffffffffffffffffffffffffffffffffffffffff16815260200190815260200160002081905550816000808573ffffffffffffffffffffffffffffffffffffffff1673ffffffffffffffffffffffffffffffffffffffff168152602001908152602001600020600082825461162791906123f2565b925050819055508273ffffffffffffffffffffffffffffffffffffffff168473ffffffffffffffffffffffffffffffffffffffff167fddf252ad1be2c89b69c2b068fc378daa952ba7f163c4a11628f55a4df523b3ef8460405161168b91906123a0565b60405180910390a350505050565b600081836116a79190612479565b905092915050565b600081836116bd9190612448565b905092915050565b600073ffffffffffffffffffffffffffffffffffffffff168273ffffffffffffffffffffffffffffffffffffffff161415611735576040517f08c379a000000000000000000000000000000000000000000000000000000000815260040161172c90612300565b60405180910390fd5b61174182600083611a03565b60008060008473ffffffffffffffffffffffffffffffffffffffff1673ffffffffffffffffffffffffffffffffffffffff168152602001908152602001600020549050818110156117c7576040517f08c379a00000000000000000000000000000000000000000000000000000000081526004016117be90612220565b60405180910390fd5b81816117d391906124d3565b6000808573ffffffffffffffffffffffffffffffffffffffff1673ffffffffffffffffffffffffffffffffffffffff16815260200190815260200160002081905550816002600082825461182791906124d3565b92505081905550600073ffffffffffffffffffffffffffffffffffffffff168373ffffffffffffffffffffffffffffffffffffffff167fddf252ad1be2c89b69c2b068fc378daa952ba7f163c4a11628f55a4df523b3ef8460405161188c91906123a0565b60405180910390a3505050565b600081836118a791906124d3565b905092915050565b600073ffffffffffffffffffffffffffffffffffffffff168273ffffffffffffffffffffffffffffffffffffffff16141561191f576040517f08c379a000000000000000000000000000000000000000000000000000000000815260040161191690612380565b60405180910390fd5b61192b60008383611a03565b806002600082825461193d91906123f2565b92505081905550806000808473ffffffffffffffffffffffffffffffffffffffff1673ffffffffffffffffffffffffffffffffffffffff168152602001908152602001600020600082825461199291906123f2565b925050819055508173ffffffffffffffffffffffffffffffffffffffff16600073ffffffffffffffffffffffffffffffffffffffff167fddf252ad1be2c89b69c2b068fc378daa952ba7f163c4a11628f55a4df523b3ef836040516119f791906123a0565b60405180910390a35050565b505050565b600081359050611a1781612683565b92915050565b600081519050611a2c8161269a565b92915050565b600081359050611a41816126b1565b92915050565b600081519050611a56816126b1565b92915050565b600060208284031215611a6e57600080fd5b6000611a7c84828501611a08565b91505092915050565b60008060408385031215611a9857600080fd5b6000611aa685828601611a08565b9250506020611ab785828601611a08565b9150509250929050565b600080600060608486031215611ad657600080fd5b6000611ae486828701611a08565b9350506020611af586828701611a08565b9250506040611b0686828701611a32565b9150509250925092565b60008060408385031215611b2357600080fd5b6000611b3185828601611a08565b9250506020611b4285828601611a32565b9150509250929050565b600060208284031215611b5e57600080fd5b6000611b6c84828501611a1d565b91505092915050565b600060208284031215611b8757600080fd5b6000611b9584828501611a32565b91505092915050565b600060208284031215611bb057600080fd5b6000611bbe84828501611a47565b91505092915050565b611bd081612507565b82525050565b611bdf81612519565b82525050565b611bee8161255c565b82525050565b6000611bff826123d6565b611c0981856123e1565b9350611c19818560208601612580565b611c2281612672565b840191505092915050565b6000611c3a6023836123e1565b91507f45524332303a207472616e7366657220746f20746865207a65726f206164647260008301527f65737300000000000000000000000000000000000000000000000000000000006020830152604082019050919050565b6000611ca06022836123e1565b91507f45524332303a206275726e20616d6f756e7420657863656564732062616c616e60008301527f63650000000000000000000000000000000000000000000000000000000000006020830152604082019050919050565b6000611d066026836123e1565b91507f4f776e61626c653a206e6577206f776e657220697320746865207a65726f206160008301527f64647265737300000000000000000000000000000000000000000000000000006020830152604082019050919050565b6000611d6c6022836123e1565b91507f45524332303a20617070726f766520746f20746865207a65726f20616464726560008301527f73730000000000000000000000000000000000000000000000000000000000006020830152604082019050919050565b6000611dd26026836123e1565b91507f45524332303a207472616e7366657220616d6f756e742065786365656473206260008301527f616c616e636500000000000000000000000000000000000000000000000000006020830152604082019050919050565b6000611e386028836123e1565b91507f45524332303a207472616e7366657220616d6f756e742065786365656473206160008301527f6c6c6f77616e63650000000000000000000000000000000000000000000000006020830152604082019050919050565b6000611e9e6020836123e1565b91507f4f776e61626c653a2063616c6c6572206973206e6f7420746865206f776e65726000830152602082019050919050565b6000611ede602b836123e1565b91507f43616e27742068617665207769746864726177616c206665652067726561746560008301527f72207468616e20313030250000000000000000000000000000000000000000006020830152604082019050919050565b6000611f446021836123e1565b91507f45524332303a206275726e2066726f6d20746865207a65726f2061646472657360008301527f73000000000000000000000000000000000000000000000000000000000000006020830152604082019050919050565b6000611faa6025836123e1565b91507f45524332303a207472616e736665722066726f6d20746865207a65726f20616460008301527f64726573730000000000000000000000000000000000000000000000000000006020830152604082019050919050565b60006120106024836123e1565b91507f45524332303a20617070726f76652066726f6d20746865207a65726f2061646460008301527f72657373000000000000000000000000000000000000000000000000000000006020830152604082019050919050565b60006120766025836123e1565b91507f45524332303a2064656372656173656420616c6c6f77616e63652062656c6f7760008301527f207a65726f0000000000000000000000000000000000000000000000000000006020830152604082019050919050565b60006120dc601f836123e1565b91507f45524332303a206d696e7420746f20746865207a65726f2061646472657373006000830152602082019050919050565b61211881612545565b82525050565b6121278161254f565b82525050565b60006020820190506121426000830184611bc7565b92915050565b600060608201905061215d6000830186611bc7565b61216a6020830185611bc7565b612177604083018461210f565b949350505050565b60006040820190506121946000830185611bc7565b6121a1602083018461210f565b9392505050565b60006020820190506121bd6000830184611bd6565b92915050565b60006020820190506121d86000830184611be5565b92915050565b600060208201905081810360008301526121f88184611bf4565b905092915050565b6000602082019050818103600083015261221981611c2d565b9050919050565b6000602082019050818103600083015261223981611c93565b9050919050565b6000602082019050818103600083015261225981611cf9565b9050919050565b6000602082019050818103600083015261227981611d5f565b9050919050565b6000602082019050818103600083015261229981611dc5565b9050919050565b600060208201905081810360008301526122b981611e2b565b9050919050565b600060208201905081810360008301526122d981611e91565b9050919050565b600060208201905081810360008301526122f981611ed1565b9050919050565b6000602082019050818103600083015261231981611f37565b9050919050565b6000602082019050818103600083015261233981611f9d565b9050919050565b6000602082019050818103600083015261235981612003565b9050919050565b6000602082019050818103600083015261237981612069565b9050919050565b60006020820190508181036000830152612399816120cf565b9050919050565b60006020820190506123b5600083018461210f565b92915050565b60006020820190506123d0600083018461211e565b92915050565b600081519050919050565b600082825260208201905092915050565b60006123fd82612545565b915061240883612545565b9250827fffffffffffffffffffffffffffffffffffffffffffffffffffffffffffffffff0382111561243d5761243c6125e5565b5b828201905092915050565b600061245382612545565b915061245e83612545565b92508261246e5761246d612614565b5b828204905092915050565b600061248482612545565b915061248f83612545565b9250817fffffffffffffffffffffffffffffffffffffffffffffffffffffffffffffffff04831182151516156124c8576124c76125e5565b5b828202905092915050565b60006124de82612545565b91506124e983612545565b9250828210156124fc576124fb6125e5565b5b828203905092915050565b600061251282612525565b9050919050565b60008115159050919050565b600073ffffffffffffffffffffffffffffffffffffffff82169050919050565b6000819050919050565b600060ff82169050919050565b60006125678261256e565b9050919050565b600061257982612525565b9050919050565b60005b8381101561259e578082015181840152602081019050612583565b838111156125ad576000848401525b50505050565b600060028204905060018216806125cb57607f821691505b602082108114156125df576125de612643565b5b50919050565b7f4e487b7100000000000000000000000000000000000000000000000000000000600052601160045260246000fd5b7f4e487b7100000000000000000000000000000000000000000000000000000000600052601260045260246000fd5b7f4e487b7100000000000000000000000000000000000000000000000000000000600052602260045260246000fd5b6000601f19601f8301169050919050565b61268c81612507565b811461269757600080fd5b50565b6126a381612519565b81146126ae57600080fd5b50565b6126ba81612545565b81146126c557600080fd5b5056fea264697066735822122011fa7b5098214844bb4762be77d4f8cd09d15da19cd2d46cc99d9cac8485b0f064736f6c63430008000033",
  "immutableReferences": {},
  "source": "import \"@openzeppelin/contracts/utils/math/SafeMath.sol\";\nimport \"@openzeppelin/contracts/token/ERC20/ERC20.sol\";\nimport \"@openzeppelin/contracts/access/Ownable.sol\";\nimport \"./YAYToken.sol\";\n\npragma solidity >=0.6.12;\n\n// PartyJacuzzis is the coolest bar in town. You come in with some YAY, and leave\n// with more! The longer you stay, the more YAY you get.\n//\n// This contract handles swapping to and from xYAY, PartFinance's staking token.\ncontract PartyJacuzzis is ERC20(\"PartyJacuzzis\", \"xYAY\"), Ownable {\n    using SafeMath for uint256;\n    YAYToken public yay;\n\n    uint256 public constant MAX_EARLY_WITHDRAW_FEE = 10000;\n    // This is a variable that can be changed by the owner\n    uint256 public earlyWithdrawalFee = 2500;\n\n    // Start time of when this contract was created\n    uint256 public unlockDate;\n    uint256 public constant LOCK_PERIOD = 180 days;\n\n    // Make sure that the YAYToken contract we are passing in here\n    // has the function `burnOwnTokens` which will burn tokens of your own\n    // address.\n    constructor(YAYToken _yay) public {\n        yay = _yay;\n        unlockDate = block.timestamp.add(LOCK_PERIOD);\n    }\n\n    // Enter the bar. Pay some YAY. Earn some shares.\n    // Locks YAY and mints xYay\n    function enter(uint256 _amount) public {\n        // Gets the amount of YAY locked in the contract\n        uint256 totalYay = yay.balanceOf(address(this));\n        // Gets the amount of xYAY in existence\n        uint256 totalShares = totalSupply();\n        // If no xYAY exists, mint it 1:1 to the amount put in\n        if (totalShares == 0 || totalYay == 0) {\n            _mint(msg.sender, _amount);\n        }\n        // Calculate and mint the amount of xYAY the YAY is worth.\n        // The ratio will change overtime, as xYAY is burned/minted and YAY\n        // deposited + gained from fees / withdrawn.\n        else {\n            uint256 what = _amount.mul(totalShares).div(totalYay);\n            _mint(msg.sender, what);\n        }\n        // Lock the YAY in the contract\n        yay.transferFrom(msg.sender, address(this), _amount);\n    }\n\n    // Leave the bar. Claim back your YAY.\n    // Unclocks the staked + gained Pefi and burns xYay\n    function leave(uint256 _share) public {\n        // Gets the amount of xYay in existence\n        uint256 totalShares = totalSupply();\n        // Calculates the amount of Pefi the xYay is worth\n        uint256 what =\n            _share.mul(yay.balanceOf(address(this))).div(totalShares);\n        _burn(msg.sender, _share);\n        if (block.timestamp >= unlockDate) {\n            yay.transfer(msg.sender, what);\n        } else {\n            uint256 toBurn =\n                what.mul(earlyWithdrawalFee).div(MAX_EARLY_WITHDRAW_FEE);\n            // Send the person's YAY to their address\n            yay.transfer(msg.sender, what.sub(toBurn));\n            // BURN the YAY in this address\n            yay.burnOwnTokens(toBurn);\n        }\n    }\n\n    // Change the early withdrawal amount\n    function setEarlyWithdrawalFee(uint256 _earlyWithdrawalFee)\n        external\n        onlyOwner\n    {\n        require(\n            _earlyWithdrawalFee <= MAX_EARLY_WITHDRAW_FEE,\n            \"Can't have withdrawal fee greater than 100%\"\n        );\n        earlyWithdrawalFee = _earlyWithdrawalFee;\n    }\n}\n",
  "sourcePath": "/home/pedro/Documents/projects/avalabs/pefi/penguin-contracts-deployed/contracts/PartyJacuzzis.sol",
  "compiler": {
    "name": "solc",
    "version": "0.8.0+commit.c7dfd78e.Emscripten.clang"
  },
  "schemaVersion": "3.4.1",
  "updatedAt": "2021-06-22T01:36:47.543Z",
  "networkType": "ethereum",
  "devdoc": {
    "kind": "dev",
    "methods": {
      "allowance(address,address)": {
        "details": "See {IERC20-allowance}."
      },
      "approve(address,uint256)": {
        "details": "See {IERC20-approve}. Requirements: - `spender` cannot be the zero address."
      },
      "balanceOf(address)": {
        "details": "See {IERC20-balanceOf}."
      },
      "decimals()": {
        "details": "Returns the number of decimals used to get its user representation. For example, if `decimals` equals `2`, a balance of `505` tokens should be displayed to a user as `5,05` (`505 / 10 ** 2`). Tokens usually opt for a value of 18, imitating the relationship between Ether and Wei. This is the value {ERC20} uses, unless this function is overridden; NOTE: This information is only used for _display_ purposes: it in no way affects any of the arithmetic of the contract, including {IERC20-balanceOf} and {IERC20-transfer}."
      },
      "decreaseAllowance(address,uint256)": {
        "details": "Atomically decreases the allowance granted to `spender` by the caller. This is an alternative to {approve} that can be used as a mitigation for problems described in {IERC20-approve}. Emits an {Approval} event indicating the updated allowance. Requirements: - `spender` cannot be the zero address. - `spender` must have allowance for the caller of at least `subtractedValue`."
      },
      "increaseAllowance(address,uint256)": {
        "details": "Atomically increases the allowance granted to `spender` by the caller. This is an alternative to {approve} that can be used as a mitigation for problems described in {IERC20-approve}. Emits an {Approval} event indicating the updated allowance. Requirements: - `spender` cannot be the zero address."
      },
      "name()": {
        "details": "Returns the name of the token."
      },
      "owner()": {
        "details": "Returns the address of the current owner."
      },
      "renounceOwnership()": {
        "details": "Leaves the contract without owner. It will not be possible to call `onlyOwner` functions anymore. Can only be called by the current owner. NOTE: Renouncing ownership will leave the contract without an owner, thereby removing any functionality that is only available to the owner."
      },
      "symbol()": {
        "details": "Returns the symbol of the token, usually a shorter version of the name."
      },
      "totalSupply()": {
        "details": "See {IERC20-totalSupply}."
      },
      "transfer(address,uint256)": {
        "details": "See {IERC20-transfer}. Requirements: - `recipient` cannot be the zero address. - the caller must have a balance of at least `amount`."
      },
      "transferFrom(address,address,uint256)": {
        "details": "See {IERC20-transferFrom}. Emits an {Approval} event indicating the updated allowance. This is not required by the EIP. See the note at the beginning of {ERC20}. Requirements: - `sender` and `recipient` cannot be the zero address. - `sender` must have a balance of at least `amount`. - the caller must have allowance for ``sender``'s tokens of at least `amount`."
      },
      "transferOwnership(address)": {
        "details": "Transfers ownership of the contract to a new account (`newOwner`). Can only be called by the current owner."
      }
    },
    "version": 1
  },
  "userdoc": {
    "kind": "user",
    "methods": {},
    "version": 1
  }
}