{
  "contractName": "StakingRewards",
  "abi": [
    {
      "inputs": [
        {
          "internalType": "address",
          "name": "_rewardsToken",
          "type": "address"
        },
        {
          "internalType": "address",
          "name": "_stakingToken",
          "type": "address"
        }
      ],
      "stateMutability": "nonpayable",
      "type": "constructor"
    },
    {
      "anonymous": false,
      "inputs": [
        {
          "indexed": true,
          "internalType": "address",
          "name": "previousOwner",
          "type": "address"
        },
        {
          "indexed": true,
          "internalType": "address",
          "name": "newOwner",
          "type": "address"
        }
      ],
      "name": "OwnershipTransferred",
      "type": "event"
    },
    {
      "anonymous": false,
      "inputs": [
        {
          "indexed": false,
          "internalType": "address",
          "name": "token",
          "type": "address"
        },
        {
          "indexed": false,
          "internalType": "uint256",
          "name": "amount",
          "type": "uint256"
        }
      ],
      "name": "Recovered",
      "type": "event"
    },
    {
      "anonymous": false,
      "inputs": [
        {
          "indexed": false,
          "internalType": "uint256",
          "name": "reward",
          "type": "uint256"
        }
      ],
      "name": "RewardAdded",
      "type": "event"
    },
    {
      "anonymous": false,
      "inputs": [
        {
          "indexed": true,
          "internalType": "address",
          "name": "user",
          "type": "address"
        },
        {
          "indexed": false,
          "internalType": "uint256",
          "name": "reward",
          "type": "uint256"
        }
      ],
      "name": "RewardPaid",
      "type": "event"
    },
    {
      "anonymous": false,
      "inputs": [
        {
          "indexed": false,
          "internalType": "uint256",
          "name": "newDuration",
          "type": "uint256"
        }
      ],
      "name": "RewardsDurationUpdated",
      "type": "event"
    },
    {
      "anonymous": false,
      "inputs": [
        {
          "indexed": true,
          "internalType": "address",
          "name": "user",
          "type": "address"
        },
        {
          "indexed": false,
          "internalType": "uint256",
          "name": "amount",
          "type": "uint256"
        }
      ],
      "name": "Staked",
      "type": "event"
    },
    {
      "anonymous": false,
      "inputs": [
        {
          "indexed": true,
          "internalType": "address",
          "name": "user",
          "type": "address"
        },
        {
          "indexed": false,
          "internalType": "uint256",
          "name": "amount",
          "type": "uint256"
        }
      ],
      "name": "Withdrawn",
      "type": "event"
    },
    {
      "inputs": [],
      "name": "lastUpdateTime",
      "outputs": [
        {
          "internalType": "uint256",
          "name": "",
          "type": "uint256"
        }
      ],
      "stateMutability": "view",
      "type": "function"
    },
    {
      "inputs": [],
      "name": "owner",
      "outputs": [
        {
          "internalType": "address",
          "name": "",
          "type": "address"
        }
      ],
      "stateMutability": "view",
      "type": "function"
    },
    {
      "inputs": [],
      "name": "periodFinish",
      "outputs": [
        {
          "internalType": "uint256",
          "name": "",
          "type": "uint256"
        }
      ],
      "stateMutability": "view",
      "type": "function"
    },
    {
      "inputs": [],
      "name": "renounceOwnership",
      "outputs": [],
      "stateMutability": "nonpayable",
      "type": "function"
    },
    {
      "inputs": [],
      "name": "rewardPerTokenStored",
      "outputs": [
        {
          "internalType": "uint256",
          "name": "",
          "type": "uint256"
        }
      ],
      "stateMutability": "view",
      "type": "function"
    },
    {
      "inputs": [],
      "name": "rewardRate",
      "outputs": [
        {
          "internalType": "uint256",
          "name": "",
          "type": "uint256"
        }
      ],
      "stateMutability": "view",
      "type": "function"
    },
    {
      "inputs": [
        {
          "internalType": "address",
          "name": "",
          "type": "address"
        }
      ],
      "name": "rewards",
      "outputs": [
        {
          "internalType": "uint256",
          "name": "",
          "type": "uint256"
        }
      ],
      "stateMutability": "view",
      "type": "function"
    },
    {
      "inputs": [],
      "name": "rewardsDuration",
      "outputs": [
        {
          "internalType": "uint256",
          "name": "",
          "type": "uint256"
        }
      ],
      "stateMutability": "view",
      "type": "function"
    },
    {
      "inputs": [],
      "name": "rewardsToken",
      "outputs": [
        {
          "internalType": "contract IERC20",
          "name": "",
          "type": "address"
        }
      ],
      "stateMutability": "view",
      "type": "function"
    },
    {
      "inputs": [],
      "name": "stakingToken",
      "outputs": [
        {
          "internalType": "contract IERC20",
          "name": "",
          "type": "address"
        }
      ],
      "stateMutability": "view",
      "type": "function"
    },
    {
      "inputs": [
        {
          "internalType": "address",
          "name": "newOwner",
          "type": "address"
        }
      ],
      "name": "transferOwnership",
      "outputs": [],
      "stateMutability": "nonpayable",
      "type": "function"
    },
    {
      "inputs": [
        {
          "internalType": "address",
          "name": "",
          "type": "address"
        }
      ],
      "name": "userRewardPerTokenPaid",
      "outputs": [
        {
          "internalType": "uint256",
          "name": "",
          "type": "uint256"
        }
      ],
      "stateMutability": "view",
      "type": "function"
    },
    {
      "inputs": [],
      "name": "totalSupply",
      "outputs": [
        {
          "internalType": "uint256",
          "name": "",
          "type": "uint256"
        }
      ],
      "stateMutability": "view",
      "type": "function"
    },
    {
      "inputs": [
        {
          "internalType": "address",
          "name": "account",
          "type": "address"
        }
      ],
      "name": "balanceOf",
      "outputs": [
        {
          "internalType": "uint256",
          "name": "",
          "type": "uint256"
        }
      ],
      "stateMutability": "view",
      "type": "function"
    },
    {
      "inputs": [],
      "name": "lastTimeRewardApplicable",
      "outputs": [
        {
          "internalType": "uint256",
          "name": "",
          "type": "uint256"
        }
      ],
      "stateMutability": "view",
      "type": "function"
    },
    {
      "inputs": [],
      "name": "rewardPerToken",
      "outputs": [
        {
          "internalType": "uint256",
          "name": "",
          "type": "uint256"
        }
      ],
      "stateMutability": "view",
      "type": "function"
    },
    {
      "inputs": [
        {
          "internalType": "address",
          "name": "account",
          "type": "address"
        }
      ],
      "name": "earned",
      "outputs": [
        {
          "internalType": "uint256",
          "name": "",
          "type": "uint256"
        }
      ],
      "stateMutability": "view",
      "type": "function"
    },
    {
      "inputs": [],
      "name": "getRewardForDuration",
      "outputs": [
        {
          "internalType": "uint256",
          "name": "",
          "type": "uint256"
        }
      ],
      "stateMutability": "view",
      "type": "function"
    },
    {
      "inputs": [
        {
          "internalType": "uint256",
          "name": "amount",
          "type": "uint256"
        },
        {
          "internalType": "uint256",
          "name": "deadline",
          "type": "uint256"
        },
        {
          "internalType": "uint8",
          "name": "v",
          "type": "uint8"
        },
        {
          "internalType": "bytes32",
          "name": "r",
          "type": "bytes32"
        },
        {
          "internalType": "bytes32",
          "name": "s",
          "type": "bytes32"
        }
      ],
      "name": "stakeWithPermit",
      "outputs": [],
      "stateMutability": "nonpayable",
      "type": "function"
    },
    {
      "inputs": [
        {
          "internalType": "uint256",
          "name": "amount",
          "type": "uint256"
        }
      ],
      "name": "stake",
      "outputs": [],
      "stateMutability": "nonpayable",
      "type": "function"
    },
    {
      "inputs": [
        {
          "internalType": "uint256",
          "name": "amount",
          "type": "uint256"
        }
      ],
      "name": "withdraw",
      "outputs": [],
      "stateMutability": "nonpayable",
      "type": "function"
    },
    {
      "inputs": [],
      "name": "getReward",
      "outputs": [],
      "stateMutability": "nonpayable",
      "type": "function"
    },
    {
      "inputs": [],
      "name": "exit",
      "outputs": [],
      "stateMutability": "nonpayable",
      "type": "function"
    },
    {
      "inputs": [
        {
          "internalType": "uint256",
          "name": "reward",
          "type": "uint256"
        }
      ],
      "name": "notifyRewardAmount",
      "outputs": [],
      "stateMutability": "nonpayable",
      "type": "function"
    },
    {
      "inputs": [
        {
          "internalType": "address",
          "name": "tokenAddress",
          "type": "address"
        },
        {
          "internalType": "uint256",
          "name": "tokenAmount",
          "type": "uint256"
        }
      ],
      "name": "recoverERC20",
      "outputs": [],
      "stateMutability": "nonpayable",
      "type": "function"
    },
    {
      "inputs": [
        {
          "internalType": "uint256",
          "name": "_rewardsDuration",
          "type": "uint256"
        }
      ],
      "name": "setRewardsDuration",
      "outputs": [],
      "stateMutability": "nonpayable",
      "type": "function"
    }
  ],
  "bytecode": "0x608060405260006004556000600555620151806006553480156200002257600080fd5b5060405162001866380380620018668339810160408190526200004591620000f7565b6001600090815562000056620000d6565b600180546001600160a01b0319166001600160a01b038316908117909155604051919250906000907f8be0079c531659141344cd1fd0a4f28419497f9722a3daafe3b4186f6b6457e0908290a350600280546001600160a01b039384166001600160a01b031991821617909155600380549290931691161790556200012e565b3390565b80516001600160a01b0381168114620000f257600080fd5b919050565b600080604083850312156200010a578182fd5b6200011583620000da565b91506200012560208401620000da565b90509250929050565b611728806200013e6000396000f3fe608060405234801561001057600080fd5b506004361061018d5760003560e01c80638980f11f116100de578063cd3daf9d11610097578063e9fad8ee11610071578063e9fad8ee146102ca578063ebe2b12b146102d2578063ecd9ba82146102da578063f2fde38b146102ed5761018d565b8063cd3daf9d146102b2578063d1af0c7d146102ba578063df136d65146102c25761018d565b80638980f11f146102565780638b876347146102695780638da5cb5b1461027c578063a694fc3a14610284578063c8f33c9114610297578063cc1a378f1461029f5761018d565b80633c6b16ab1161014b578063715018a611610125578063715018a61461022957806372f702f3146102315780637b0a47ee1461024657806380faa57d1461024e5761018d565b80633c6b16ab146101fb5780633d18b9121461020e57806370a08231146102165761018d565b80628cc262146101925780630700037d146101bb57806318160ddd146101ce5780631c1f78eb146101d65780632e1a7d4d146101de578063386a9525146101f3575b600080fd5b6101a56101a036600461117a565b610300565b6040516101b29190611639565b60405180910390f35b6101a56101c936600461117a565b610380565b6101a5610392565b6101a5610399565b6101f16101ec3660046111dd565b6103b7565b005b6101a5610503565b6101f16102093660046111dd565b610509565b6101f1610712565b6101a561022436600461117a565b610816565b6101f1610831565b6102396108ba565b6040516101b29190611276565b6101a56108c9565b6101a56108cf565b6101f1610264366004611194565b6108dd565b6101a561027736600461117a565b6109d0565b6102396109e2565b6101f16102923660046111dd565b6109f1565b6101a5610b24565b6101f16102ad3660046111dd565b610b2a565b6101a5610bea565b610239610c38565b6101a5610c47565b6101f1610c4d565b6101a5610c70565b6101f16102e836600461120d565b610c76565b6101f16102fb36600461117a565b610e2a565b6001600160a01b0381166000908152600a60209081526040808320546009909252822054610378919061037290670de0b6b3a76400009061036c9061034d90610347610bea565b90610eeb565b6001600160a01b0388166000908152600c602052604090205490610efe565b90610f0a565b90610f16565b90505b919050565b600a6020526000908152604090205481565b600b545b90565b60006103b2600654600554610efe90919063ffffffff16565b905090565b600260005414156103e35760405162461bcd60e51b81526004016103da906115c1565b60405180910390fd5b6002600055336103f1610bea565b6008556103fc6108cf565b6007556001600160a01b038116156104435761041781610300565b6001600160a01b0382166000908152600a60209081526040808320939093556008546009909152919020555b600082116104635760405162461bcd60e51b81526004016103da90611472565b600b546104709083610eeb565b600b55336000908152600c602052604090205461048d9083610eeb565b336000818152600c60205260409020919091556003546104b9916001600160a01b039091169084610f22565b336001600160a01b03167f7084f5476618d8e60b11ef0d7d3f06914655adb8793e28ff7f018d4c76d505d5836040516104f29190611639565b60405180910390a250506001600055565b60065481565b610511610f7d565b6001600160a01b03166105226109e2565b6001600160a01b0316146105485760405162461bcd60e51b81526004016103da9061149d565b6000610552610bea565b60085561055d6108cf565b6007556001600160a01b038116156105a45761057881610300565b6001600160a01b0382166000908152600a60209081526040808320939093556008546009909152919020555b60045442106105c3576006546105bb908390610f0a565b600555610606565b6004546000906105d39042610eeb565b905060006105ec60055483610efe90919063ffffffff16565b6006549091506106009061036c8684610f16565b60055550505b6002546040516370a0823160e01b81526000916001600160a01b0316906370a0823190610637903090600401611276565b60206040518083038186803b15801561064f57600080fd5b505afa158015610663573d6000803e3d6000fd5b505050506040513d601f19601f8201168201806040525081019061068791906111f5565b905061069e60065482610f0a90919063ffffffff16565b60055411156106bf5760405162461bcd60e51b81526004016103da906114d2565b4260078190556006546106d29190610f16565b6004556040517fde88a922e0d3b88b24e9623efeb464919c6bf9f66857a65e2bfcf2ce87a9433d90610705908590611639565b60405180910390a1505050565b600260005414156107355760405162461bcd60e51b81526004016103da906115c1565b600260005533610743610bea565b60085561074e6108cf565b6007556001600160a01b038116156107955761076981610300565b6001600160a01b0382166000908152600a60209081526040808320939093556008546009909152919020555b336000908152600a6020526040902054801561080d57336000818152600a60205260408120556002546107d4916001600160a01b039091169083610f22565b336001600160a01b03167fe2403640ba68fed3a2f88b7557551d1993f84b99bb10ff833f0cf8db0c5e0486826040516104f29190611639565b50506001600055565b6001600160a01b03166000908152600c602052604090205490565b610839610f7d565b6001600160a01b031661084a6109e2565b6001600160a01b0316146108705760405162461bcd60e51b81526004016103da9061149d565b6001546040516000916001600160a01b0316907f8be0079c531659141344cd1fd0a4f28419497f9722a3daafe3b4186f6b6457e0908390a3600180546001600160a01b0319169055565b6003546001600160a01b031681565b60055481565b60006103b242600454610f81565b6108e5610f7d565b6001600160a01b03166108f66109e2565b6001600160a01b03161461091c5760405162461bcd60e51b81526004016103da9061149d565b6002600054141561093f5760405162461bcd60e51b81526004016103da906115c1565b60026000556003546001600160a01b03838116911614156109725760405162461bcd60e51b81526004016103da906115f8565b61098e61097d6109e2565b6001600160a01b0384169083610f22565b7f8c1256b8896378cd5044f80c202f9772b9d77dc85c8a6eb51967210b09bfaa2882826040516109bf9291906112ef565b60405180910390a150506001600055565b60096020526000908152604090205481565b6001546001600160a01b031690565b60026000541415610a145760405162461bcd60e51b81526004016103da906115c1565b600260005533610a22610bea565b600855610a2d6108cf565b6007556001600160a01b03811615610a7457610a4881610300565b6001600160a01b0382166000908152600a60209081526040808320939093556008546009909152919020555b60008211610a945760405162461bcd60e51b81526004016103da90611404565b600b54610aa19083610f16565b600b55336000908152600c6020526040902054610abe9083610f16565b336000818152600c6020526040902091909155600354610aeb916001600160a01b03909116903085610f97565b336001600160a01b03167f9e71bc8eea02a63969f509818f2dafb9254532904319f9dbda79b67bd34a5f3d836040516104f29190611639565b60075481565b610b32610f7d565b6001600160a01b0316610b436109e2565b6001600160a01b031614610b695760405162461bcd60e51b81526004016103da9061149d565b6004544211610b8a5760405162461bcd60e51b81526004016103da9061133b565b60008111610baa5760405162461bcd60e51b81526004016103da90611540565b60068190556040517ffb46ca5a5e06d4540d6387b930a7c978bce0db5f449ec6b3f5d07c6e1d44f2d390610bdf908390611639565b60405180910390a150565b6000600b5460001415610c005750600854610396565b6103b2610c2f600b5461036c670de0b6b3a7640000610c29600554610c296007546103476108cf565b90610efe565b60085490610f16565b6002546001600160a01b031681565b60085481565b336000908152600c6020526040902054610c66906103b7565b610c6e610712565b565b60045481565b60026000541415610c995760405162461bcd60e51b81526004016103da906115c1565b600260005533610ca7610bea565b600855610cb26108cf565b6007556001600160a01b03811615610cf957610ccd81610300565b6001600160a01b0382166000908152600a60209081526040808320939093556008546009909152919020555b60008611610d195760405162461bcd60e51b81526004016103da90611404565b600b54610d269087610f16565b600b55336000908152600c6020526040902054610d439087610f16565b336000818152600c60205260409081902092909255600354915163d505accf60e01b81526001600160a01b039092169163d505accf91610d919130908b908b908b908b908b906004016112ae565b600060405180830381600087803b158015610dab57600080fd5b505af1158015610dbf573d6000803e3d6000fd5b5050600354610ddc92506001600160a01b03169050333089610f97565b336001600160a01b03167f9e71bc8eea02a63969f509818f2dafb9254532904319f9dbda79b67bd34a5f3d87604051610e159190611639565b60405180910390a25050600160005550505050565b610e32610f7d565b6001600160a01b0316610e436109e2565b6001600160a01b031614610e695760405162461bcd60e51b81526004016103da9061149d565b6001600160a01b038116610e8f5760405162461bcd60e51b81526004016103da906113be565b6001546040516001600160a01b038084169216907f8be0079c531659141344cd1fd0a4f28419497f9722a3daafe3b4186f6b6457e090600090a3600180546001600160a01b0319166001600160a01b0392909216919091179055565b6000610ef78284611699565b9392505050565b6000610ef7828461167a565b6000610ef7828461165a565b6000610ef78284611642565b610f788363a9059cbb60e01b8484604051602401610f419291906112ef565b60408051601f198184030181529190526020810180516001600160e01b03166001600160e01b031990931692909217909152610fbe565b505050565b3390565b6000818310610f905781610ef7565b5090919050565b610fb8846323b872dd60e01b858585604051602401610f419392919061128a565b50505050565b6000611013826040518060400160405280602081526020017f5361666545524332303a206c6f772d6c6576656c2063616c6c206661696c6564815250856001600160a01b031661104d9092919063ffffffff16565b805190915015610f78578080602001905181019061103191906111bd565b610f785760405162461bcd60e51b81526004016103da90611577565b606061105c8484600085611064565b949350505050565b6060824710156110865760405162461bcd60e51b81526004016103da9061142c565b61108f85611124565b6110ab5760405162461bcd60e51b81526004016103da90611509565b600080866001600160a01b031685876040516110c7919061125a565b60006040518083038185875af1925050503d8060008114611104576040519150601f19603f3d011682016040523d82523d6000602084013e611109565b606091505b509150915061111982828661112a565b979650505050505050565b3b151590565b60608315611139575081610ef7565b8251156111495782518084602001fd5b8160405162461bcd60e51b81526004016103da9190611308565b80356001600160a01b038116811461037b57600080fd5b60006020828403121561118b578081fd5b610ef782611163565b600080604083850312156111a6578081fd5b6111af83611163565b946020939093013593505050565b6000602082840312156111ce578081fd5b81518015158114610ef7578182fd5b6000602082840312156111ee578081fd5b5035919050565b600060208284031215611206578081fd5b5051919050565b600080600080600060a08688031215611224578081fd5b8535945060208601359350604086013560ff81168114611242578182fd5b94979396509394606081013594506080013592915050565b6000825161126c8184602087016116b0565b9190910192915050565b6001600160a01b0391909116815260200190565b6001600160a01b039384168152919092166020820152604081019190915260600190565b6001600160a01b0397881681529590961660208601526040850193909352606084019190915260ff16608083015260a082015260c081019190915260e00190565b6001600160a01b03929092168252602082015260400190565b60006020825282518060208401526113278160408501602087016116b0565b601f01601f19169190910160400192915050565b60208082526058908201527f50726576696f7573207265776172647320706572696f64206d7573742062652060408201527f636f6d706c657465206265666f7265206368616e67696e67207468652064757260608201527f6174696f6e20666f7220746865206e657720706572696f640000000000000000608082015260a00190565b60208082526026908201527f4f776e61626c653a206e6577206f776e657220697320746865207a65726f206160408201526564647265737360d01b606082015260800190565b6020808252600e908201526d043616e6e6f74207374616b6520360941b604082015260600190565b60208082526026908201527f416464726573733a20696e73756666696369656e742062616c616e636520666f6040820152651c8818d85b1b60d21b606082015260800190565b602080825260119082015270043616e6e6f74207769746864726177203607c1b604082015260600190565b6020808252818101527f4f776e61626c653a2063616c6c6572206973206e6f7420746865206f776e6572604082015260600190565b60208082526018908201527f50726f76696465642072657761726420746f6f20686967680000000000000000604082015260600190565b6020808252601d908201527f416464726573733a2063616c6c20746f206e6f6e2d636f6e7472616374000000604082015260600190565b6020808252601d908201527f526577617264206475726174696f6e2063616e2774206265207a65726f000000604082015260600190565b6020808252602a908201527f5361666545524332303a204552433230206f7065726174696f6e20646964206e6040820152691bdd081cdd58d8d9595960b21b606082015260800190565b6020808252601f908201527f5265656e7472616e637947756172643a207265656e7472616e742063616c6c00604082015260600190565b60208082526021908201527f43616e6e6f7420776974686472617720746865207374616b696e6720746f6b656040820152603760f91b606082015260800190565b90815260200190565b60008219821115611655576116556116dc565b500190565b60008261167557634e487b7160e01b81526012600452602481fd5b500490565b6000816000190483118215151615611694576116946116dc565b500290565b6000828210156116ab576116ab6116dc565b500390565b60005b838110156116cb5781810151838201526020016116b3565b83811115610fb85750506000910152565b634e487b7160e01b600052601160045260246000fdfea2646970667358221220321ac2a517b33ccaa6e7e3a7bd2621c0a48a4505707388fc8605e1ca1f30bb3764736f6c63430008000033",
  "immutableReferences": {},
  "source": "pragma solidity 0.8.0;\n\nimport \"@openzeppelin/contracts/access/Ownable.sol\";\nimport \"@openzeppelin/contracts/utils/math/Math.sol\";\nimport \"@openzeppelin/contracts/utils/math/SafeMath.sol\";\nimport \"@openzeppelin/contracts/token/ERC20/utils/SafeERC20.sol\";\nimport \"@openzeppelin/contracts/security/ReentrancyGuard.sol\";\n\nimport \"@partyswap-libs/party-swap-core/contracts/interfaces/IPartyERC20.sol\";\n\n// https://docs.synthetix.io/contracts/source/contracts/stakingrewards\ncontract StakingRewards is ReentrancyGuard, Ownable {\n    using SafeMath for uint256;\n    using SafeERC20 for IERC20;\n\n    /* ========== STATE VARIABLES ========== */\n\n    IERC20 public rewardsToken;\n    IERC20 public stakingToken;\n    uint256 public periodFinish = 0;\n    uint256 public rewardRate = 0;\n    uint256 public rewardsDuration = 1 days;\n    uint256 public lastUpdateTime;\n    uint256 public rewardPerTokenStored;\n\n    mapping(address => uint256) public userRewardPerTokenPaid;\n    mapping(address => uint256) public rewards;\n\n    uint256 private _totalSupply;\n    mapping(address => uint256) private _balances;\n\n    /* ========== CONSTRUCTOR ========== */\n\n    constructor(address _rewardsToken, address _stakingToken) public {\n        rewardsToken = IERC20(_rewardsToken);\n        stakingToken = IERC20(_stakingToken);\n    }\n\n    /* ========== VIEWS ========== */\n\n    function totalSupply() external view returns (uint256) {\n        return _totalSupply;\n    }\n\n    function balanceOf(address account) external view returns (uint256) {\n        return _balances[account];\n    }\n\n    function lastTimeRewardApplicable() public view returns (uint256) {\n        return Math.min(block.timestamp, periodFinish);\n    }\n\n    function rewardPerToken() public view returns (uint256) {\n        if (_totalSupply == 0) {\n            return rewardPerTokenStored;\n        }\n        return\n            rewardPerTokenStored.add(\n                lastTimeRewardApplicable()\n                    .sub(lastUpdateTime)\n                    .mul(rewardRate)\n                    .mul(1e18)\n                    .div(_totalSupply)\n            );\n    }\n\n    function earned(address account) public view returns (uint256) {\n        return\n            _balances[account]\n                .mul(rewardPerToken().sub(userRewardPerTokenPaid[account]))\n                .div(1e18)\n                .add(rewards[account]);\n    }\n\n    function getRewardForDuration() external view returns (uint256) {\n        return rewardRate.mul(rewardsDuration);\n    }\n\n    /* ========== MUTATIVE FUNCTIONS ========== */\n\n    function stakeWithPermit(\n        uint256 amount,\n        uint256 deadline,\n        uint8 v,\n        bytes32 r,\n        bytes32 s\n    ) external nonReentrant updateReward(msg.sender) {\n        require(amount > 0, \"Cannot stake 0\");\n        _totalSupply = _totalSupply.add(amount);\n        _balances[msg.sender] = _balances[msg.sender].add(amount);\n\n        // permit\n        IPartyERC20(address(stakingToken)).permit(\n            msg.sender,\n            address(this),\n            amount,\n            deadline,\n            v,\n            r,\n            s\n        );\n\n        stakingToken.safeTransferFrom(msg.sender, address(this), amount);\n        emit Staked(msg.sender, amount);\n    }\n\n    function stake(uint256 amount)\n        external\n        nonReentrant\n        updateReward(msg.sender)\n    {\n        require(amount > 0, \"Cannot stake 0\");\n        _totalSupply = _totalSupply.add(amount);\n        _balances[msg.sender] = _balances[msg.sender].add(amount);\n        stakingToken.safeTransferFrom(msg.sender, address(this), amount);\n        emit Staked(msg.sender, amount);\n    }\n\n    function withdraw(uint256 amount)\n        public\n        nonReentrant\n        updateReward(msg.sender)\n    {\n        require(amount > 0, \"Cannot withdraw 0\");\n        _totalSupply = _totalSupply.sub(amount);\n        _balances[msg.sender] = _balances[msg.sender].sub(amount);\n        stakingToken.safeTransfer(msg.sender, amount);\n        emit Withdrawn(msg.sender, amount);\n    }\n\n    function getReward() public nonReentrant updateReward(msg.sender) {\n        uint256 reward = rewards[msg.sender];\n        if (reward > 0) {\n            rewards[msg.sender] = 0;\n            rewardsToken.safeTransfer(msg.sender, reward);\n            emit RewardPaid(msg.sender, reward);\n        }\n    }\n\n    function exit() external {\n        withdraw(_balances[msg.sender]);\n        getReward();\n    }\n\n    /* ========== RESTRICTED FUNCTIONS ========== */\n\n    // Always needs to update the balance of the contract when calling this method\n    function notifyRewardAmount(uint256 reward)\n        external\n        onlyOwner\n        updateReward(address(0))\n    {\n        if (block.timestamp >= periodFinish) {\n            rewardRate = reward.div(rewardsDuration);\n        } else {\n            uint256 remaining = periodFinish.sub(block.timestamp);\n            uint256 leftover = remaining.mul(rewardRate);\n            rewardRate = reward.add(leftover).div(rewardsDuration);\n        }\n\n        // Ensure the provided reward amount is not more than the balance in the contract.\n        // This keeps the reward rate in the right range, preventing overflows due to\n        // very high values of rewardRate in the earned and rewardsPerToken functions;\n        // Reward + leftover must be less than 2^256 / 10^18 to avoid overflow.\n        uint256 balance = rewardsToken.balanceOf(address(this));\n        require(\n            rewardRate <= balance.div(rewardsDuration),\n            \"Provided reward too high\"\n        );\n\n        lastUpdateTime = block.timestamp;\n        periodFinish = block.timestamp.add(rewardsDuration);\n        emit RewardAdded(reward);\n    }\n\n    // Added to support recovering LP Rewards from other systems such as BAL to be distributed to holders\n    function recoverERC20(address tokenAddress, uint256 tokenAmount)\n        external\n        onlyOwner\n        nonReentrant\n    {\n        require(\n            tokenAddress != address(stakingToken),\n            \"Cannot withdraw the staking token\"\n        );\n        IERC20(tokenAddress).safeTransfer(owner(), tokenAmount);\n        emit Recovered(tokenAddress, tokenAmount);\n    }\n\n    function setRewardsDuration(uint256 _rewardsDuration) external onlyOwner {\n        require(\n            block.timestamp > periodFinish,\n            \"Previous rewards period must be complete before changing the duration for the new period\"\n        );\n        require(_rewardsDuration > 0, \"Reward duration can't be zero\");\n        rewardsDuration = _rewardsDuration;\n        emit RewardsDurationUpdated(rewardsDuration);\n    }\n\n    /* ========== MODIFIERS ========== */\n\n    modifier updateReward(address account) {\n        rewardPerTokenStored = rewardPerToken();\n        lastUpdateTime = lastTimeRewardApplicable();\n        if (account != address(0)) {\n            rewards[account] = earned(account);\n            userRewardPerTokenPaid[account] = rewardPerTokenStored;\n        }\n        _;\n    }\n\n    /* ========== EVENTS ========== */\n\n    event RewardAdded(uint256 reward);\n    event Staked(address indexed user, uint256 amount);\n    event Withdrawn(address indexed user, uint256 amount);\n    event RewardPaid(address indexed user, uint256 reward);\n    event RewardsDurationUpdated(uint256 newDuration);\n    event Recovered(address token, uint256 amount);\n}\n",
  "sourcePath": "/home/pedro/Documents/projects/avalabs/party-swap/party-pinatas/contracts/StakingRewards.sol",
  "compiler": {
    "name": "solc",
    "version": "0.8.0+commit.c7dfd78e.Emscripten.clang"
  },
  "schemaVersion": "3.4.1",
  "updatedAt": "2021-11-10T19:01:26.831Z",
  "devdoc": {
    "kind": "dev",
    "methods": {
      "owner()": {
        "details": "Returns the address of the current owner."
      },
      "renounceOwnership()": {
        "details": "Leaves the contract without owner. It will not be possible to call `onlyOwner` functions anymore. Can only be called by the current owner. NOTE: Renouncing ownership will leave the contract without an owner, thereby removing any functionality that is only available to the owner."
      },
      "transferOwnership(address)": {
        "details": "Transfers ownership of the contract to a new account (`newOwner`). Can only be called by the current owner."
      }
    },
    "version": 1
  },
  "userdoc": {
    "kind": "user",
    "methods": {},
    "version": 1
  }
}