{
  "contractName": "TreasuryVester",
  "abi": [
    {
      "inputs": [
        {
          "internalType": "address",
          "name": "yay_",
          "type": "address"
        }
      ],
      "stateMutability": "nonpayable",
      "type": "constructor"
    },
    {
      "anonymous": false,
      "inputs": [
        {
          "indexed": true,
          "internalType": "address",
          "name": "previousOwner",
          "type": "address"
        },
        {
          "indexed": true,
          "internalType": "address",
          "name": "newOwner",
          "type": "address"
        }
      ],
      "name": "OwnershipTransferred",
      "type": "event"
    },
    {
      "anonymous": false,
      "inputs": [
        {
          "indexed": false,
          "internalType": "address",
          "name": "recipient",
          "type": "address"
        }
      ],
      "name": "RecipientChanged",
      "type": "event"
    },
    {
      "anonymous": false,
      "inputs": [
        {
          "indexed": false,
          "internalType": "uint256",
          "name": "amount",
          "type": "uint256"
        },
        {
          "indexed": false,
          "internalType": "address",
          "name": "recipient",
          "type": "address"
        }
      ],
      "name": "TokensVested",
      "type": "event"
    },
    {
      "anonymous": false,
      "inputs": [],
      "name": "VestingEnabled",
      "type": "event"
    },
    {
      "inputs": [],
      "name": "halvingPeriod",
      "outputs": [
        {
          "internalType": "uint256",
          "name": "",
          "type": "uint256"
        }
      ],
      "stateMutability": "view",
      "type": "function",
      "constant": true
    },
    {
      "inputs": [],
      "name": "lastUpdate",
      "outputs": [
        {
          "internalType": "uint256",
          "name": "",
          "type": "uint256"
        }
      ],
      "stateMutability": "view",
      "type": "function",
      "constant": true
    },
    {
      "inputs": [],
      "name": "nextSlash",
      "outputs": [
        {
          "internalType": "uint256",
          "name": "",
          "type": "uint256"
        }
      ],
      "stateMutability": "view",
      "type": "function",
      "constant": true
    },
    {
      "inputs": [],
      "name": "owner",
      "outputs": [
        {
          "internalType": "address",
          "name": "",
          "type": "address"
        }
      ],
      "stateMutability": "view",
      "type": "function",
      "constant": true
    },
    {
      "inputs": [],
      "name": "recipient",
      "outputs": [
        {
          "internalType": "address",
          "name": "",
          "type": "address"
        }
      ],
      "stateMutability": "view",
      "type": "function",
      "constant": true
    },
    {
      "inputs": [],
      "name": "renounceOwnership",
      "outputs": [],
      "stateMutability": "nonpayable",
      "type": "function"
    },
    {
      "inputs": [],
      "name": "startingBalance",
      "outputs": [
        {
          "internalType": "uint256",
          "name": "",
          "type": "uint256"
        }
      ],
      "stateMutability": "view",
      "type": "function",
      "constant": true
    },
    {
      "inputs": [
        {
          "internalType": "address",
          "name": "newOwner",
          "type": "address"
        }
      ],
      "name": "transferOwnership",
      "outputs": [],
      "stateMutability": "nonpayable",
      "type": "function"
    },
    {
      "inputs": [],
      "name": "vestingAmount",
      "outputs": [
        {
          "internalType": "uint256",
          "name": "",
          "type": "uint256"
        }
      ],
      "stateMutability": "view",
      "type": "function",
      "constant": true
    },
    {
      "inputs": [],
      "name": "vestingCliff",
      "outputs": [
        {
          "internalType": "uint256",
          "name": "",
          "type": "uint256"
        }
      ],
      "stateMutability": "view",
      "type": "function",
      "constant": true
    },
    {
      "inputs": [],
      "name": "vestingEnabled",
      "outputs": [
        {
          "internalType": "bool",
          "name": "",
          "type": "bool"
        }
      ],
      "stateMutability": "view",
      "type": "function",
      "constant": true
    },
    {
      "inputs": [],
      "name": "yay",
      "outputs": [
        {
          "internalType": "address",
          "name": "",
          "type": "address"
        }
      ],
      "stateMutability": "view",
      "type": "function",
      "constant": true
    },
    {
      "inputs": [],
      "name": "startVesting",
      "outputs": [],
      "stateMutability": "nonpayable",
      "type": "function"
    },
    {
      "inputs": [
        {
          "internalType": "address",
          "name": "recipient_",
          "type": "address"
        }
      ],
      "name": "setRecipient",
      "outputs": [],
      "stateMutability": "nonpayable",
      "type": "function"
    },
    {
      "inputs": [],
      "name": "claim",
      "outputs": [
        {
          "internalType": "uint256",
          "name": "",
          "type": "uint256"
        }
      ],
      "stateMutability": "nonpayable",
      "type": "function"
    }
  ],
  "bytecode": "0x608060405265959ca410c800600455620151806005556105b46006556706adbe5342282000600a5534801561003357600080fd5b50604051610f9f380380610f9f833981016040819052610052916100de565b600061005c6100da565b600080546001600160a01b0319166001600160a01b0383169081178255604051929350917f8be0079c531659141344cd1fd0a4f28419497f9722a3daafe3b4186f6b6457e0908290a35060018055600280546001600160a01b0319166001600160a01b0392909216919091179055600060095560065460075561010c565b3390565b6000602082840312156100ef578081fd5b81516001600160a01b0381168114610105578182fd5b9392505050565b610e848061011b6000396000f3fe608060405234801561001057600080fd5b50600436106100f45760003560e01c80637f87bbd611610097578063d569bdeb11610066578063d569bdeb1461018e578063deb36e3214610196578063f2fde38b1461019e578063f3640e74146101b1576100f4565b80637f87bbd6146101615780638da5cb5b1461017657806394bd2d3b1461017e578063c046371114610186576100f4565b80634e71d92d116100d35780634e71d92d146101345780635a3e251f1461013c57806366d003ac14610144578063715018a614610159576100f4565b8062728f76146100f957806328485cfb146101175780633bbed4a01461011f575b600080fd5b6101016101b9565b60405161010e9190610d99565b60405180910390f35b6101016101bf565b61013261012d366004610901565b6101c5565b005b61010161028f565b6101016103f0565b61014c6103f6565b60405161010e919061097c565b610132610405565b61016961048e565b60405161010e91906109a9565b61014c610497565b6101016104a6565b6101016104ac565b61014c6104b2565b6101326104c1565b6101326101ac366004610901565b610624565b6101016106e4565b60045481565b60075481565b6101cd6106ea565b6001600160a01b03166101de610497565b6001600160a01b03161461020d5760405162461bcd60e51b815260040161020490610cac565b60405180910390fd5b6001600160a01b0381166102335760405162461bcd60e51b8152600401610204906109e7565b600380546001600160a01b0319166001600160a01b0383811691909117918290556040517fff2d07bd188a9eb41acbc4a7db39e18956c95ab7f54f434d97849bf6206e577c9261028492169061097c565b60405180910390a150565b6000600260015414156102b45760405162461bcd60e51b815260040161020490610d62565b600260015560085460ff166102db5760405162461bcd60e51b815260040161020490610ae3565b6003546001600160a01b031633146103055760405162461bcd60e51b815260040161020490610a94565b6005546009546103159190610db9565b4210156103345760405162461bcd60e51b815260040161020490610c69565b60075461036457600160065461034a9190610df1565b60075560045461035c90600290610dd1565b600455610376565b6007546103729060016106ee565b6007555b4260095560035460045460025461039b926001600160a01b0391821692911690610701565b6004546003546040517f277d5afb43bf7105f031c47c411e874903f073633432bbe9f5b50c848a0349e1926103dd9290916001600160a01b0390911690610da2565b60405180910390a1506004546001805590565b60065481565b6003546001600160a01b031681565b61040d6106ea565b6001600160a01b031661041e610497565b6001600160a01b0316146104445760405162461bcd60e51b815260040161020490610cac565b600080546040516001600160a01b03909116907f8be0079c531659141344cd1fd0a4f28419497f9722a3daafe3b4186f6b6457e0908390a3600080546001600160a01b0319169055565b60085460ff1681565b6000546001600160a01b031690565b600a5481565b60095481565b6002546001600160a01b031681565b6104c96106ea565b6001600160a01b03166104da610497565b6001600160a01b0316146105005760405162461bcd60e51b815260040161020490610cac565b60085460ff16156105235760405162461bcd60e51b815260040161020490610b2d565b600a546002546040516370a0823160e01b81526001600160a01b03909116906370a082319061055690309060040161097c565b60206040518083038186803b15801561056e57600080fd5b505afa158015610582573d6000803e3d6000fd5b505050506040513d601f19601f820116820180604052508101906105a69190610948565b10156105c45760405162461bcd60e51b815260040161020490610b82565b6003546001600160a01b03166105ec5760405162461bcd60e51b815260040161020490610c1a565b6008805460ff191660011790556040517ff78a71daf05bb8e3a2ef9c526b1bb785285cdb83a6130cd12a3bbd5c99c15fa390600090a1565b61062c6106ea565b6001600160a01b031661063d610497565b6001600160a01b0316146106635760405162461bcd60e51b815260040161020490610cac565b6001600160a01b0381166106895760405162461bcd60e51b815260040161020490610a4e565b600080546040516001600160a01b03808516939216917f8be0079c531659141344cd1fd0a4f28419497f9722a3daafe3b4186f6b6457e091a3600080546001600160a01b0319166001600160a01b0392909216919091179055565b60055481565b3390565b60006106fa8284610df1565b9392505050565b6107578363a9059cbb60e01b8484604051602401610720929190610990565b60408051601f198184030181529190526020810180516001600160e01b03166001600160e01b03199093169290921790915261075c565b505050565b60006107b1826040518060400160405280602081526020017f5361666545524332303a206c6f772d6c6576656c2063616c6c206661696c6564815250856001600160a01b03166107eb9092919063ffffffff16565b80519091501561075757808060200190518101906107cf9190610928565b6107575760405162461bcd60e51b815260040161020490610d18565b60606107fa8484600085610802565b949350505050565b6060824710156108245760405162461bcd60e51b815260040161020490610bd4565b61082d856108c2565b6108495760405162461bcd60e51b815260040161020490610ce1565b600080866001600160a01b031685876040516108659190610960565b60006040518083038185875af1925050503d80600081146108a2576040519150601f19603f3d011682016040523d82523d6000602084013e6108a7565b606091505b50915091506108b78282866108c8565b979650505050505050565b3b151590565b606083156108d75750816106fa565b8251156108e75782518084602001fd5b8160405162461bcd60e51b815260040161020491906109b4565b600060208284031215610912578081fd5b81356001600160a01b03811681146106fa578182fd5b600060208284031215610939578081fd5b815180151581146106fa578182fd5b600060208284031215610959578081fd5b5051919050565b60008251610972818460208701610e08565b9190910192915050565b6001600160a01b0391909116815260200190565b6001600160a01b03929092168252602082015260400190565b901515815260200190565b60006020825282518060208401526109d3816040850160208701610e08565b601f01601f19169190910160400192915050565b60208082526041908201527f54726561737572795665737465723a3a736574526563697069656e743a20526560408201527f63697069656e742063616e277420626520746865207a65726f206164647265736060820152607360f81b608082015260a00190565b60208082526026908201527f4f776e61626c653a206e6577206f776e657220697320746865207a65726f206160408201526564647265737360d01b606082015260800190565b6020808252602f908201527f54726561737572795665737465723a3a636c61696d3a206f6e6c79207265636960408201526e7069656e742063616e20636c61696d60881b606082015260800190565b6020808252602a908201527f54726561737572795665737465723a3a636c61696d3a2076657374696e67206e6040820152691bdd08195b98589b195960b21b606082015260800190565b60208082526035908201527f54726561737572795665737465723a3a737461727456657374696e673a2076656040820152741cdd1a5b99c8185b1c9958591e481cdd185c9d1959605a1b606082015260800190565b60208082526032908201527f54726561737572795665737465723a3a737461727456657374696e673a20696e604082015271636f72726563742059415920737570706c7960701b606082015260800190565b60208082526026908201527f416464726573733a20696e73756666696369656e742062616c616e636520666f6040820152651c8818d85b1b60d21b606082015260800190565b6020808252602f908201527f54726561737572795665737465723a3a737461727456657374696e673a20726560408201526e18da5c1a595b9d081b9bdd081cd95d608a1b606082015260800190565b60208082526023908201527f54726561737572795665737465723a3a636c61696d3a206e6f742074696d65206040820152621e595d60ea1b606082015260800190565b6020808252818101527f4f776e61626c653a2063616c6c6572206973206e6f7420746865206f776e6572604082015260600190565b6020808252601d908201527f416464726573733a2063616c6c20746f206e6f6e2d636f6e7472616374000000604082015260600190565b6020808252602a908201527f5361666545524332303a204552433230206f7065726174696f6e20646964206e6040820152691bdd081cdd58d8d9595960b21b606082015260800190565b6020808252601f908201527f5265656e7472616e637947756172643a207265656e7472616e742063616c6c00604082015260600190565b90815260200190565b9182526001600160a01b0316602082015260400190565b60008219821115610dcc57610dcc610e38565b500190565b600082610dec57634e487b7160e01b81526012600452602481fd5b500490565b600082821015610e0357610e03610e38565b500390565b60005b83811015610e23578181015183820152602001610e0b565b83811115610e32576000848401525b50505050565b634e487b7160e01b600052601160045260246000fdfea2646970667358221220915962873724192f517dbb3d71ee1305f11fb6fae2d70f03e92177243bae0ebb64736f6c63430008000033",
  "immutableReferences": {},
  "source": "pragma solidity 0.8.0;\n\nimport \"@openzeppelin/contracts/utils/math/SafeMath.sol\";\nimport \"@openzeppelin/contracts/access/Ownable.sol\";\nimport \"@openzeppelin/contracts/security/ReentrancyGuard.sol\";\nimport \"@openzeppelin/contracts/token/ERC20/utils/SafeERC20.sol\";\nimport \"@openzeppelin/contracts/token/ERC20/IERC20.sol\";\n\n/**\n * Contract to control the release of YAY.\n */\ncontract TreasuryVester is Ownable, ReentrancyGuard {\n    using SafeMath for uint256;\n    using SafeERC20 for IERC20;\n\n    address public yay;\n    address public recipient;\n\n    // Amount to distribute at each interval in wei\n    // 16,450 YAY\n    uint256 public vestingAmount = 164_500_000_000_000;\n\n    // Interval to distribute in seconds\n    uint256 public vestingCliff = 86_400;\n\n    // Number of distribution intervals before the distribution amount halves\n    // Halving should occur once every four years (no leap day).\n    // At one distribution per day, that's 365 * 4 = 1460\n    uint256 public halvingPeriod = 1460;\n\n    // Countdown till the nest halving in seconds\n    uint256 public nextSlash;\n\n    bool public vestingEnabled;\n\n    // Timestamp of latest distribution\n    uint256 public lastUpdate;\n\n    // Amount of YAY required to start distributing denominated in wei\n    // Should be 48,125,000 YAY\n    uint256 public startingBalance = 481_250_000_000_000_000;\n\n    event VestingEnabled();\n    event TokensVested(uint256 amount, address recipient);\n    event RecipientChanged(address recipient);\n\n    // YAY Distribution plan:\n    // According to the Pangolin Litepaper, we initially will distribute\n    // 175342.465 YAY per day. Vesting period will be 24 hours: 86400 seconds.\n    // Halving will occur every four years. No leap day. 4 years: 1460 distributions\n\n    constructor(address yay_) {\n        yay = yay_;\n\n        lastUpdate = 0;\n        nextSlash = halvingPeriod;\n    }\n\n    /**\n     * Enable distribution. A sufficient amount of YAY >= startingBalance must be transferred\n     * to the contract before enabling. The recipient must also be set. Can only be called by\n     * the owner.\n     */\n    function startVesting() external onlyOwner {\n        require(\n            !vestingEnabled,\n            \"TreasuryVester::startVesting: vesting already started\"\n        );\n        require(\n            IERC20(yay).balanceOf(address(this)) >= startingBalance,\n            \"TreasuryVester::startVesting: incorrect YAY supply\"\n        );\n        require(\n            recipient != address(0),\n            \"TreasuryVester::startVesting: recipient not set\"\n        );\n        vestingEnabled = true;\n\n        emit VestingEnabled();\n    }\n\n    /**\n     * Sets the recipient of the vested distributions. In the initial Pangolin scheme, this\n     * should be the address of the LiquidityPoolManager. Can only be called by the contract\n     * owner.\n     */\n    function setRecipient(address recipient_) external onlyOwner {\n        require(\n            recipient_ != address(0),\n            \"TreasuryVester::setRecipient: Recipient can't be the zero address\"\n        );\n        recipient = recipient_;\n        emit RecipientChanged(recipient);\n    }\n\n    /**\n     * Vest the next YAY allocation. Requires vestingCliff seconds in between calls. YAY will\n     * be distributed to the recipient.\n     */\n    function claim() external nonReentrant returns (uint256) {\n        require(vestingEnabled, \"TreasuryVester::claim: vesting not enabled\");\n        require(\n            msg.sender == recipient,\n            \"TreasuryVester::claim: only recipient can claim\"\n        );\n        require(\n            block.timestamp >= lastUpdate + vestingCliff,\n            \"TreasuryVester::claim: not time yet\"\n        );\n\n        // If we've finished a halving period, reduce the amount\n        if (nextSlash == 0) {\n            nextSlash = halvingPeriod - 1;\n            vestingAmount = vestingAmount / 2;\n        } else {\n            nextSlash = nextSlash.sub(1);\n        }\n\n        // Update the timelock\n        lastUpdate = block.timestamp;\n\n        // Distribute the tokens\n        IERC20(yay).safeTransfer(recipient, vestingAmount);\n        emit TokensVested(vestingAmount, recipient);\n\n        return vestingAmount;\n    }\n}\n",
  "sourcePath": "/home/pedro/Documents/projects/avalabs/party-swap/party-governance/contracts/TreasuryVester.sol",
  "compiler": {
    "name": "solc",
    "version": "0.8.0+commit.c7dfd78e.Emscripten.clang"
  },
  "schemaVersion": "3.4.1",
  "updatedAt": "2021-07-29T02:23:11.691Z",
  "networkType": "ethereum",
  "devdoc": {
    "kind": "dev",
    "methods": {
      "owner()": {
        "details": "Returns the address of the current owner."
      },
      "renounceOwnership()": {
        "details": "Leaves the contract without owner. It will not be possible to call `onlyOwner` functions anymore. Can only be called by the current owner. NOTE: Renouncing ownership will leave the contract without an owner, thereby removing any functionality that is only available to the owner."
      },
      "transferOwnership(address)": {
        "details": "Transfers ownership of the contract to a new account (`newOwner`). Can only be called by the current owner."
      }
    },
    "version": 1
  },
  "userdoc": {
    "kind": "user",
    "methods": {
      "claim()": {
        "notice": "Vest the next YAY allocation. Requires vestingCliff seconds in between calls. YAY will be distributed to the recipient."
      },
      "setRecipient(address)": {
        "notice": "Sets the recipient of the vested distributions. In the initial Pangolin scheme, this should be the address of the LiquidityPoolManager. Can only be called by the contract owner."
      },
      "startVesting()": {
        "notice": "Enable distribution. A sufficient amount of YAY >= startingBalance must be transferred to the contract before enabling. The recipient must also be set. Can only be called by the owner."
      }
    },
    "notice": "Contract to control the release of YAY.",
    "version": 1
  }
}