{
  "contractName": "TreasuryVester",
  "abi": [
    {
      "inputs": [
        {
          "internalType": "address",
          "name": "party_",
          "type": "address"
        }
      ],
      "stateMutability": "nonpayable",
      "type": "constructor"
    },
    {
      "anonymous": false,
      "inputs": [
        {
          "indexed": true,
          "internalType": "address",
          "name": "previousOwner",
          "type": "address"
        },
        {
          "indexed": true,
          "internalType": "address",
          "name": "newOwner",
          "type": "address"
        }
      ],
      "name": "OwnershipTransferred",
      "type": "event"
    },
    {
      "anonymous": false,
      "inputs": [
        {
          "indexed": false,
          "internalType": "address",
          "name": "recipient",
          "type": "address"
        }
      ],
      "name": "RecipientChanged",
      "type": "event"
    },
    {
      "anonymous": false,
      "inputs": [
        {
          "indexed": false,
          "internalType": "uint256",
          "name": "amount",
          "type": "uint256"
        },
        {
          "indexed": false,
          "internalType": "address",
          "name": "recipient",
          "type": "address"
        }
      ],
      "name": "TokensVested",
      "type": "event"
    },
    {
      "anonymous": false,
      "inputs": [],
      "name": "VestingEnabled",
      "type": "event"
    },
    {
      "inputs": [],
      "name": "halvingPeriod",
      "outputs": [
        {
          "internalType": "uint256",
          "name": "",
          "type": "uint256"
        }
      ],
      "stateMutability": "view",
      "type": "function",
      "constant": true
    },
    {
      "inputs": [],
      "name": "lastUpdate",
      "outputs": [
        {
          "internalType": "uint256",
          "name": "",
          "type": "uint256"
        }
      ],
      "stateMutability": "view",
      "type": "function",
      "constant": true
    },
    {
      "inputs": [],
      "name": "nextSlash",
      "outputs": [
        {
          "internalType": "uint256",
          "name": "",
          "type": "uint256"
        }
      ],
      "stateMutability": "view",
      "type": "function",
      "constant": true
    },
    {
      "inputs": [],
      "name": "owner",
      "outputs": [
        {
          "internalType": "address",
          "name": "",
          "type": "address"
        }
      ],
      "stateMutability": "view",
      "type": "function",
      "constant": true
    },
    {
      "inputs": [],
      "name": "party",
      "outputs": [
        {
          "internalType": "address",
          "name": "",
          "type": "address"
        }
      ],
      "stateMutability": "view",
      "type": "function",
      "constant": true
    },
    {
      "inputs": [],
      "name": "recipient",
      "outputs": [
        {
          "internalType": "address",
          "name": "",
          "type": "address"
        }
      ],
      "stateMutability": "view",
      "type": "function",
      "constant": true
    },
    {
      "inputs": [],
      "name": "renounceOwnership",
      "outputs": [],
      "stateMutability": "nonpayable",
      "type": "function"
    },
    {
      "inputs": [],
      "name": "startingBalance",
      "outputs": [
        {
          "internalType": "uint256",
          "name": "",
          "type": "uint256"
        }
      ],
      "stateMutability": "view",
      "type": "function",
      "constant": true
    },
    {
      "inputs": [
        {
          "internalType": "address",
          "name": "newOwner",
          "type": "address"
        }
      ],
      "name": "transferOwnership",
      "outputs": [],
      "stateMutability": "nonpayable",
      "type": "function"
    },
    {
      "inputs": [],
      "name": "vestingAmount",
      "outputs": [
        {
          "internalType": "uint256",
          "name": "",
          "type": "uint256"
        }
      ],
      "stateMutability": "view",
      "type": "function",
      "constant": true
    },
    {
      "inputs": [],
      "name": "vestingCliff",
      "outputs": [
        {
          "internalType": "uint256",
          "name": "",
          "type": "uint256"
        }
      ],
      "stateMutability": "view",
      "type": "function",
      "constant": true
    },
    {
      "inputs": [],
      "name": "vestingEnabled",
      "outputs": [
        {
          "internalType": "bool",
          "name": "",
          "type": "bool"
        }
      ],
      "stateMutability": "view",
      "type": "function",
      "constant": true
    },
    {
      "inputs": [],
      "name": "startVesting",
      "outputs": [],
      "stateMutability": "nonpayable",
      "type": "function"
    },
    {
      "inputs": [
        {
          "internalType": "address",
          "name": "recipient_",
          "type": "address"
        }
      ],
      "name": "setRecipient",
      "outputs": [],
      "stateMutability": "nonpayable",
      "type": "function"
    },
    {
      "inputs": [],
      "name": "claim",
      "outputs": [
        {
          "internalType": "uint256",
          "name": "",
          "type": "uint256"
        }
      ],
      "stateMutability": "nonpayable",
      "type": "function"
    }
  ],
  "bytecode": "0x608060405269037bc19c042a27c80000600455620151806005556105b46006556a27cedd7a40462be4200000600a5534801561003a57600080fd5b50604051610fa8380380610fa8833981016040819052610059916100e5565b60006100636100e1565b600080546001600160a01b0319166001600160a01b0383169081178255604051929350917f8be0079c531659141344cd1fd0a4f28419497f9722a3daafe3b4186f6b6457e0908290a35060018055600280546001600160a01b0319166001600160a01b03929092169190911790556000600955600654600755610113565b3390565b6000602082840312156100f6578081fd5b81516001600160a01b038116811461010c578182fd5b9392505050565b610e86806101226000396000f3fe608060405234801561001057600080fd5b50600436106100f45760003560e01c8063715018a611610097578063c046371111610066578063c04637111461018e578063deb36e3214610196578063f2fde38b1461019e578063f3640e74146101b1576100f4565b8063715018a6146101615780637f87bbd6146101695780638da5cb5b1461017e57806394bd2d3b14610186576100f4565b80633bbed4a0116100d35780633bbed4a0146101345780634e71d92d146101495780635a3e251f1461015157806366d003ac14610159576100f4565b8062728f76146100f957806328485cfb14610117578063354284f21461011f575b600080fd5b6101016101b9565b60405161010e9190610d9b565b60405180910390f35b6101016101bf565b6101276101c5565b60405161010e919061097c565b610147610142366004610901565b6101d4565b005b61010161029e565b6101016103ff565b610127610405565b610147610414565b61017161049d565b60405161010e91906109a9565b6101276104a6565b6101016104b5565b6101016104bb565b6101476104c1565b6101476101ac366004610901565b610624565b6101016106e4565b60045481565b60075481565b6002546001600160a01b031681565b6101dc6106ea565b6001600160a01b03166101ed6104a6565b6001600160a01b03161461021c5760405162461bcd60e51b815260040161021390610cae565b60405180910390fd5b6001600160a01b0381166102425760405162461bcd60e51b8152600401610213906109e7565b600380546001600160a01b0319166001600160a01b0383811691909117918290556040517fff2d07bd188a9eb41acbc4a7db39e18956c95ab7f54f434d97849bf6206e577c9261029392169061097c565b60405180910390a150565b6000600260015414156102c35760405162461bcd60e51b815260040161021390610d64565b600260015560085460ff166102ea5760405162461bcd60e51b815260040161021390610ae3565b6003546001600160a01b031633146103145760405162461bcd60e51b815260040161021390610a94565b6005546009546103249190610dbb565b4210156103435760405162461bcd60e51b815260040161021390610c6b565b6007546103735760016006546103599190610df3565b60075560045461036b90600290610dd3565b600455610385565b6007546103819060016106ee565b6007555b426009556003546004546002546103aa926001600160a01b0391821692911690610701565b6004546003546040517f277d5afb43bf7105f031c47c411e874903f073633432bbe9f5b50c848a0349e1926103ec9290916001600160a01b0390911690610da4565b60405180910390a1506004546001805590565b60065481565b6003546001600160a01b031681565b61041c6106ea565b6001600160a01b031661042d6104a6565b6001600160a01b0316146104535760405162461bcd60e51b815260040161021390610cae565b600080546040516001600160a01b03909116907f8be0079c531659141344cd1fd0a4f28419497f9722a3daafe3b4186f6b6457e0908390a3600080546001600160a01b0319169055565b60085460ff1681565b6000546001600160a01b031690565b600a5481565b60095481565b6104c96106ea565b6001600160a01b03166104da6104a6565b6001600160a01b0316146105005760405162461bcd60e51b815260040161021390610cae565b60085460ff16156105235760405162461bcd60e51b815260040161021390610b81565b600a546002546040516370a0823160e01b81526001600160a01b03909116906370a082319061055690309060040161097c565b60206040518083038186803b15801561056e57600080fd5b505afa158015610582573d6000803e3d6000fd5b505050506040513d601f19601f820116820180604052508101906105a69190610948565b10156105c45760405162461bcd60e51b815260040161021390610b2d565b6003546001600160a01b03166105ec5760405162461bcd60e51b815260040161021390610c1c565b6008805460ff191660011790556040517ff78a71daf05bb8e3a2ef9c526b1bb785285cdb83a6130cd12a3bbd5c99c15fa390600090a1565b61062c6106ea565b6001600160a01b031661063d6104a6565b6001600160a01b0316146106635760405162461bcd60e51b815260040161021390610cae565b6001600160a01b0381166106895760405162461bcd60e51b815260040161021390610a4e565b600080546040516001600160a01b03808516939216917f8be0079c531659141344cd1fd0a4f28419497f9722a3daafe3b4186f6b6457e091a3600080546001600160a01b0319166001600160a01b0392909216919091179055565b60055481565b3390565b60006106fa8284610df3565b9392505050565b6107578363a9059cbb60e01b8484604051602401610720929190610990565b60408051601f198184030181529190526020810180516001600160e01b03166001600160e01b03199093169290921790915261075c565b505050565b60006107b1826040518060400160405280602081526020017f5361666545524332303a206c6f772d6c6576656c2063616c6c206661696c6564815250856001600160a01b03166107eb9092919063ffffffff16565b80519091501561075757808060200190518101906107cf9190610928565b6107575760405162461bcd60e51b815260040161021390610d1a565b60606107fa8484600085610802565b949350505050565b6060824710156108245760405162461bcd60e51b815260040161021390610bd6565b61082d856108c2565b6108495760405162461bcd60e51b815260040161021390610ce3565b600080866001600160a01b031685876040516108659190610960565b60006040518083038185875af1925050503d80600081146108a2576040519150601f19603f3d011682016040523d82523d6000602084013e6108a7565b606091505b50915091506108b78282866108c8565b979650505050505050565b3b151590565b606083156108d75750816106fa565b8251156108e75782518084602001fd5b8160405162461bcd60e51b815260040161021391906109b4565b600060208284031215610912578081fd5b81356001600160a01b03811681146106fa578182fd5b600060208284031215610939578081fd5b815180151581146106fa578182fd5b600060208284031215610959578081fd5b5051919050565b60008251610972818460208701610e0a565b9190910192915050565b6001600160a01b0391909116815260200190565b6001600160a01b03929092168252602082015260400190565b901515815260200190565b60006020825282518060208401526109d3816040850160208701610e0a565b601f01601f19169190910160400192915050565b60208082526041908201527f54726561737572795665737465723a3a736574526563697069656e743a20526560408201527f63697069656e742063616e277420626520746865207a65726f206164647265736060820152607360f81b608082015260a00190565b60208082526026908201527f4f776e61626c653a206e6577206f776e657220697320746865207a65726f206160408201526564647265737360d01b606082015260800190565b6020808252602f908201527f54726561737572795665737465723a3a636c61696d3a206f6e6c79207265636960408201526e7069656e742063616e20636c61696d60881b606082015260800190565b6020808252602a908201527f54726561737572795665737465723a3a636c61696d3a2076657374696e67206e6040820152691bdd08195b98589b195960b21b606082015260800190565b60208082526034908201527f54726561737572795665737465723a3a737461727456657374696e673a20696e604082015273636f727265637420504152545920737570706c7960601b606082015260800190565b60208082526035908201527f54726561737572795665737465723a3a737461727456657374696e673a2076656040820152741cdd1a5b99c8185b1c9958591e481cdd185c9d1959605a1b606082015260800190565b60208082526026908201527f416464726573733a20696e73756666696369656e742062616c616e636520666f6040820152651c8818d85b1b60d21b606082015260800190565b6020808252602f908201527f54726561737572795665737465723a3a737461727456657374696e673a20726560408201526e18da5c1a595b9d081b9bdd081cd95d608a1b606082015260800190565b60208082526023908201527f54726561737572795665737465723a3a636c61696d3a206e6f742074696d65206040820152621e595d60ea1b606082015260800190565b6020808252818101527f4f776e61626c653a2063616c6c6572206973206e6f7420746865206f776e6572604082015260600190565b6020808252601d908201527f416464726573733a2063616c6c20746f206e6f6e2d636f6e7472616374000000604082015260600190565b6020808252602a908201527f5361666545524332303a204552433230206f7065726174696f6e20646964206e6040820152691bdd081cdd58d8d9595960b21b606082015260800190565b6020808252601f908201527f5265656e7472616e637947756172643a207265656e7472616e742063616c6c00604082015260600190565b90815260200190565b9182526001600160a01b0316602082015260400190565b60008219821115610dce57610dce610e3a565b500190565b600082610dee57634e487b7160e01b81526012600452602481fd5b500490565b600082821015610e0557610e05610e3a565b500390565b60005b83811015610e25578181015183820152602001610e0d565b83811115610e34576000848401525b50505050565b634e487b7160e01b600052601160045260246000fdfea264697066735822122015dd99c3609efe1bda0a425c3a087cc3627dc6063752eb7f5869984619b3796764736f6c63430008000033",
  "immutableReferences": {},
  "source": "pragma solidity 0.8.0;\n\nimport \"@openzeppelin/contracts/utils/math/SafeMath.sol\";\nimport \"@openzeppelin/contracts/access/Ownable.sol\";\nimport \"@openzeppelin/contracts/security/ReentrancyGuard.sol\";\nimport \"@openzeppelin/contracts/token/ERC20/utils/SafeERC20.sol\";\nimport \"@openzeppelin/contracts/token/ERC20/IERC20.sol\";\n\n/**\n * Contract to control the release of PARTY.\n */\ncontract TreasuryVester is Ownable, ReentrancyGuard {\n    using SafeMath for uint256;\n    using SafeERC20 for IERC20;\n\n    address public party;\n    address public recipient;\n\n    // Amount to distribute at each interval in wei\n    // 16,450 PARTY\n    uint256 public vestingAmount = 16_450_000_000_000_000_000_000;\n\n    // Interval to distribute in seconds\n    uint256 public vestingCliff = 86_400;\n\n    // Number of distribution intervals before the distribution amount halves\n    // Halving should occur once every four years (no leap day).\n    // At one distribution per day, that's 365 * 4 = 1460\n    uint256 public halvingPeriod = 1460;\n\n    // Countdown till the nest halving in seconds\n    uint256 public nextSlash;\n\n    bool public vestingEnabled;\n\n    // Timestamp of latest distribution\n    uint256 public lastUpdate;\n\n    // Amount of PARTY required to start distributing denominated in wei\n    // Should be 48,125,000 PARTY\n    uint256 public startingBalance = 48_125_000_000_000_000_000_000_000;\n\n    event VestingEnabled();\n    event TokensVested(uint256 amount, address recipient);\n    event RecipientChanged(address recipient);\n\n    // PARTY Distribution plan:\n    // According to the Pangolin Litepaper, we initially will distribute\n    // 175342.465 PARTY per day. Vesting period will be 24 hours: 86400 seconds.\n    // Halving will occur every four years. No leap day. 4 years: 1460 distributions\n\n    constructor(address party_) {\n        party = party_;\n\n        lastUpdate = 0;\n        nextSlash = halvingPeriod;\n    }\n\n    /**\n     * Enable distribution. A sufficient amount of PARTY >= startingBalance must be transferred\n     * to the contract before enabling. The recipient must also be set. Can only be called by\n     * the owner.\n     */\n    function startVesting() external onlyOwner {\n        require(\n            !vestingEnabled,\n            \"TreasuryVester::startVesting: vesting already started\"\n        );\n        require(\n            IERC20(party).balanceOf(address(this)) >= startingBalance,\n            \"TreasuryVester::startVesting: incorrect PARTY supply\"\n        );\n        require(\n            recipient != address(0),\n            \"TreasuryVester::startVesting: recipient not set\"\n        );\n        vestingEnabled = true;\n\n        emit VestingEnabled();\n    }\n\n    /**\n     * Sets the recipient of the vested distributions. In the initial Pangolin scheme, this\n     * should be the address of the LiquidityPoolManager. Can only be called by the contract\n     * owner.\n     */\n    function setRecipient(address recipient_) external onlyOwner {\n        require(\n            recipient_ != address(0),\n            \"TreasuryVester::setRecipient: Recipient can't be the zero address\"\n        );\n        recipient = recipient_;\n        emit RecipientChanged(recipient);\n    }\n\n    /**\n     * Vest the next PARTY allocation. Requires vestingCliff seconds in between calls. PARTY will\n     * be distributed to the recipient.\n     */\n    function claim() external nonReentrant returns (uint256) {\n        require(vestingEnabled, \"TreasuryVester::claim: vesting not enabled\");\n        require(\n            msg.sender == recipient,\n            \"TreasuryVester::claim: only recipient can claim\"\n        );\n        require(\n            block.timestamp >= lastUpdate + vestingCliff,\n            \"TreasuryVester::claim: not time yet\"\n        );\n\n        // If we've finished a halving period, reduce the amount\n        if (nextSlash == 0) {\n            nextSlash = halvingPeriod - 1;\n            vestingAmount = vestingAmount / 2;\n        } else {\n            nextSlash = nextSlash.sub(1);\n        }\n\n        // Update the timelock\n        lastUpdate = block.timestamp;\n\n        // Distribute the tokens\n        IERC20(party).safeTransfer(recipient, vestingAmount);\n        emit TokensVested(vestingAmount, recipient);\n\n        return vestingAmount;\n    }\n}\n",
  "sourcePath": "/home/pedro/Documents/projects/avalabs/party-swap/party-pinatas/contracts/TreasuryVester.sol",
  "compiler": {
    "name": "solc",
    "version": "0.8.0+commit.c7dfd78e.Emscripten.clang"
  },
  "schemaVersion": "3.4.1",
  "updatedAt": "2021-08-23T02:58:42.448Z",
  "networkType": "ethereum",
  "devdoc": {
    "kind": "dev",
    "methods": {
      "owner()": {
        "details": "Returns the address of the current owner."
      },
      "renounceOwnership()": {
        "details": "Leaves the contract without owner. It will not be possible to call `onlyOwner` functions anymore. Can only be called by the current owner. NOTE: Renouncing ownership will leave the contract without an owner, thereby removing any functionality that is only available to the owner."
      },
      "transferOwnership(address)": {
        "details": "Transfers ownership of the contract to a new account (`newOwner`). Can only be called by the current owner."
      }
    },
    "version": 1
  },
  "userdoc": {
    "kind": "user",
    "methods": {
      "claim()": {
        "notice": "Vest the next PARTY allocation. Requires vestingCliff seconds in between calls. PARTY will be distributed to the recipient."
      },
      "setRecipient(address)": {
        "notice": "Sets the recipient of the vested distributions. In the initial Pangolin scheme, this should be the address of the LiquidityPoolManager. Can only be called by the contract owner."
      },
      "startVesting()": {
        "notice": "Enable distribution. A sufficient amount of PARTY >= startingBalance must be transferred to the contract before enabling. The recipient must also be set. Can only be called by the owner."
      }
    },
    "notice": "Contract to control the release of PARTY.",
    "version": 1
  }
}