{
  "contractName": "YAYToken",
  "abi": [
    {
      "inputs": [
        {
          "internalType": "address",
          "name": "initialTotalSupplyHolder",
          "type": "address"
        }
      ],
      "stateMutability": "nonpayable",
      "type": "constructor"
    },
    {
      "anonymous": false,
      "inputs": [
        {
          "indexed": true,
          "internalType": "address",
          "name": "owner",
          "type": "address"
        },
        {
          "indexed": true,
          "internalType": "address",
          "name": "spender",
          "type": "address"
        },
        {
          "indexed": false,
          "internalType": "uint256",
          "name": "value",
          "type": "uint256"
        }
      ],
      "name": "Approval",
      "type": "event"
    },
    {
      "anonymous": false,
      "inputs": [
        {
          "indexed": true,
          "internalType": "address",
          "name": "previousOwner",
          "type": "address"
        },
        {
          "indexed": true,
          "internalType": "address",
          "name": "newOwner",
          "type": "address"
        }
      ],
      "name": "OwnershipTransferred",
      "type": "event"
    },
    {
      "anonymous": false,
      "inputs": [
        {
          "indexed": true,
          "internalType": "address",
          "name": "from",
          "type": "address"
        },
        {
          "indexed": true,
          "internalType": "address",
          "name": "to",
          "type": "address"
        },
        {
          "indexed": false,
          "internalType": "uint256",
          "name": "value",
          "type": "uint256"
        }
      ],
      "name": "Transfer",
      "type": "event"
    },
    {
      "inputs": [],
      "name": "DOMAIN_SEPARATOR",
      "outputs": [
        {
          "internalType": "bytes32",
          "name": "",
          "type": "bytes32"
        }
      ],
      "stateMutability": "view",
      "type": "function",
      "constant": true
    },
    {
      "inputs": [],
      "name": "PERMIT_TYPEHASH",
      "outputs": [
        {
          "internalType": "bytes32",
          "name": "",
          "type": "bytes32"
        }
      ],
      "stateMutability": "view",
      "type": "function",
      "constant": true
    },
    {
      "inputs": [
        {
          "internalType": "address",
          "name": "owner",
          "type": "address"
        },
        {
          "internalType": "address",
          "name": "spender",
          "type": "address"
        }
      ],
      "name": "allowance",
      "outputs": [
        {
          "internalType": "uint256",
          "name": "",
          "type": "uint256"
        }
      ],
      "stateMutability": "view",
      "type": "function",
      "constant": true
    },
    {
      "inputs": [
        {
          "internalType": "address",
          "name": "spender",
          "type": "address"
        },
        {
          "internalType": "uint256",
          "name": "amount",
          "type": "uint256"
        }
      ],
      "name": "approve",
      "outputs": [
        {
          "internalType": "bool",
          "name": "",
          "type": "bool"
        }
      ],
      "stateMutability": "nonpayable",
      "type": "function"
    },
    {
      "inputs": [
        {
          "internalType": "address",
          "name": "account",
          "type": "address"
        }
      ],
      "name": "balanceOf",
      "outputs": [
        {
          "internalType": "uint256",
          "name": "",
          "type": "uint256"
        }
      ],
      "stateMutability": "view",
      "type": "function",
      "constant": true
    },
    {
      "inputs": [
        {
          "internalType": "address",
          "name": "spender",
          "type": "address"
        },
        {
          "internalType": "uint256",
          "name": "subtractedValue",
          "type": "uint256"
        }
      ],
      "name": "decreaseAllowance",
      "outputs": [
        {
          "internalType": "bool",
          "name": "",
          "type": "bool"
        }
      ],
      "stateMutability": "nonpayable",
      "type": "function"
    },
    {
      "inputs": [
        {
          "internalType": "address",
          "name": "spender",
          "type": "address"
        },
        {
          "internalType": "uint256",
          "name": "addedValue",
          "type": "uint256"
        }
      ],
      "name": "increaseAllowance",
      "outputs": [
        {
          "internalType": "bool",
          "name": "",
          "type": "bool"
        }
      ],
      "stateMutability": "nonpayable",
      "type": "function"
    },
    {
      "inputs": [],
      "name": "initialSupply",
      "outputs": [
        {
          "internalType": "uint256",
          "name": "",
          "type": "uint256"
        }
      ],
      "stateMutability": "view",
      "type": "function",
      "constant": true
    },
    {
      "inputs": [],
      "name": "name",
      "outputs": [
        {
          "internalType": "string",
          "name": "",
          "type": "string"
        }
      ],
      "stateMutability": "view",
      "type": "function",
      "constant": true
    },
    {
      "inputs": [
        {
          "internalType": "address",
          "name": "",
          "type": "address"
        }
      ],
      "name": "nonces",
      "outputs": [
        {
          "internalType": "uint256",
          "name": "",
          "type": "uint256"
        }
      ],
      "stateMutability": "view",
      "type": "function",
      "constant": true
    },
    {
      "inputs": [],
      "name": "owner",
      "outputs": [
        {
          "internalType": "address",
          "name": "",
          "type": "address"
        }
      ],
      "stateMutability": "view",
      "type": "function",
      "constant": true
    },
    {
      "inputs": [],
      "name": "renounceOwnership",
      "outputs": [],
      "stateMutability": "nonpayable",
      "type": "function"
    },
    {
      "inputs": [],
      "name": "symbol",
      "outputs": [
        {
          "internalType": "string",
          "name": "",
          "type": "string"
        }
      ],
      "stateMutability": "view",
      "type": "function",
      "constant": true
    },
    {
      "inputs": [],
      "name": "totalSupply",
      "outputs": [
        {
          "internalType": "uint256",
          "name": "",
          "type": "uint256"
        }
      ],
      "stateMutability": "view",
      "type": "function",
      "constant": true
    },
    {
      "inputs": [
        {
          "internalType": "address",
          "name": "recipient",
          "type": "address"
        },
        {
          "internalType": "uint256",
          "name": "amount",
          "type": "uint256"
        }
      ],
      "name": "transfer",
      "outputs": [
        {
          "internalType": "bool",
          "name": "",
          "type": "bool"
        }
      ],
      "stateMutability": "nonpayable",
      "type": "function"
    },
    {
      "inputs": [
        {
          "internalType": "address",
          "name": "sender",
          "type": "address"
        },
        {
          "internalType": "address",
          "name": "recipient",
          "type": "address"
        },
        {
          "internalType": "uint256",
          "name": "amount",
          "type": "uint256"
        }
      ],
      "name": "transferFrom",
      "outputs": [
        {
          "internalType": "bool",
          "name": "",
          "type": "bool"
        }
      ],
      "stateMutability": "nonpayable",
      "type": "function"
    },
    {
      "inputs": [
        {
          "internalType": "address",
          "name": "newOwner",
          "type": "address"
        }
      ],
      "name": "transferOwnership",
      "outputs": [],
      "stateMutability": "nonpayable",
      "type": "function"
    },
    {
      "inputs": [],
      "name": "decimals",
      "outputs": [
        {
          "internalType": "uint8",
          "name": "",
          "type": "uint8"
        }
      ],
      "stateMutability": "view",
      "type": "function",
      "constant": true
    },
    {
      "inputs": [
        {
          "internalType": "uint256",
          "name": "_amount",
          "type": "uint256"
        }
      ],
      "name": "burnOwnTokens",
      "outputs": [],
      "stateMutability": "nonpayable",
      "type": "function"
    },
    {
      "inputs": [
        {
          "internalType": "address",
          "name": "owner",
          "type": "address"
        },
        {
          "internalType": "address",
          "name": "spender",
          "type": "address"
        },
        {
          "internalType": "uint256",
          "name": "value",
          "type": "uint256"
        },
        {
          "internalType": "uint256",
          "name": "deadline",
          "type": "uint256"
        },
        {
          "internalType": "uint8",
          "name": "v",
          "type": "uint8"
        },
        {
          "internalType": "bytes32",
          "name": "r",
          "type": "bytes32"
        },
        {
          "internalType": "bytes32",
          "name": "s",
          "type": "bytes32"
        }
      ],
      "name": "permit",
      "outputs": [],
      "stateMutability": "nonpayable",
      "type": "function"
    }
  ],
  "bytecode": "0x60806040523480156200001157600080fd5b5060405162002a1338038062002a1383398181016040528101906200003791906200052b565b6040518060400160405280600381526020017f59415900000000000000000000000000000000000000000000000000000000008152506040518060400160405280600381526020017f59415900000000000000000000000000000000000000000000000000000000008152508160039080519060200190620000bb92919062000464565b508060049080519060200190620000d492919062000464565b5050506000620000e96200025860201b60201c565b905080600560006101000a81548173ffffffffffffffffffffffffffffffffffffffff021916908373ffffffffffffffffffffffffffffffffffffffff1602179055508073ffffffffffffffffffffffffffffffffffffffff16600073ffffffffffffffffffffffffffffffffffffffff167f8be0079c531659141344cd1fd0a4f28419497f9722a3daafe3b4186f6b6457e060405160405180910390a35060004690507f8b73c3c69bb8fe3d512ecc4cf759cc79239f7b179b0ffacaa9a75d522b39400f620001be6200026060201b60201c565b805190602001206040518060400160405280600181526020017f31000000000000000000000000000000000000000000000000000000000000008152508051906020012083306040516020016200021a959493929190620005cc565b604051602081830303815290604052805190602001206006819055506200025082670f43fc2c04ee0000620002fa60201b60201c565b5050620007cc565b600033905090565b60606003805462000271906200071e565b80601f01602080910402602001604051908101604052809291908181526020018280546200029f906200071e565b8015620002f05780601f10620002c457610100808354040283529160200191620002f0565b820191906000526020600020905b815481529060010190602001808311620002d257829003601f168201915b5050505050905090565b600073ffffffffffffffffffffffffffffffffffffffff168273ffffffffffffffffffffffffffffffffffffffff1614156200036d576040517f08c379a0000000000000000000000000000000000000000000000000000000008152600401620003649062000629565b60405180910390fd5b62000381600083836200045f60201b60201c565b806002600082825462000395919062000679565b92505081905550806000808473ffffffffffffffffffffffffffffffffffffffff1673ffffffffffffffffffffffffffffffffffffffff1681526020019081526020016000206000828254620003ec919062000679565b925050819055508173ffffffffffffffffffffffffffffffffffffffff16600073ffffffffffffffffffffffffffffffffffffffff167fddf252ad1be2c89b69c2b068fc378daa952ba7f163c4a11628f55a4df523b3ef836040516200045391906200064b565b60405180910390a35050565b505050565b82805462000472906200071e565b90600052602060002090601f016020900481019282620004965760008555620004e2565b82601f10620004b157805160ff1916838001178555620004e2565b82800160010185558215620004e2579182015b82811115620004e1578251825591602001919060010190620004c4565b5b509050620004f19190620004f5565b5090565b5b8082111562000510576000816000905550600101620004f6565b5090565b6000815190506200052581620007b2565b92915050565b6000602082840312156200053e57600080fd5b60006200054e8482850162000514565b91505092915050565b6200056281620006d6565b82525050565b6200057381620006ea565b82525050565b600062000588601f8362000668565b91507f45524332303a206d696e7420746f20746865207a65726f2061646472657373006000830152602082019050919050565b620005c68162000714565b82525050565b600060a082019050620005e3600083018862000568565b620005f2602083018762000568565b62000601604083018662000568565b620006106060830185620005bb565b6200061f608083018462000557565b9695505050505050565b60006020820190508181036000830152620006448162000579565b9050919050565b6000602082019050620006626000830184620005bb565b92915050565b600082825260208201905092915050565b6000620006868262000714565b9150620006938362000714565b9250827fffffffffffffffffffffffffffffffffffffffffffffffffffffffffffffffff03821115620006cb57620006ca62000754565b5b828201905092915050565b6000620006e382620006f4565b9050919050565b6000819050919050565b600073ffffffffffffffffffffffffffffffffffffffff82169050919050565b6000819050919050565b600060028204905060018216806200073757607f821691505b602082108114156200074e576200074d62000783565b5b50919050565b7f4e487b7100000000000000000000000000000000000000000000000000000000600052601160045260246000fd5b7f4e487b7100000000000000000000000000000000000000000000000000000000600052602260045260246000fd5b620007bd81620006d6565b8114620007c957600080fd5b50565b61223780620007dc6000396000f3fe608060405234801561001057600080fd5b506004361061012c5760003560e01c8063715018a6116100ad578063a9059cbb11610071578063a9059cbb1461034b578063d505accf1461037b578063dd62ed3e14610397578063dd7f92d2146103c7578063f2fde38b146103e35761012c565b8063715018a6146102a55780637ecebe00146102af5780638da5cb5b146102df57806395d89b41146102fd578063a457c2d71461031b5761012c565b8063313ce567116100f4578063313ce567146101eb5780633644e51514610209578063378dc3dc14610227578063395093511461024557806370a08231146102755761012c565b806306fdde0314610131578063095ea7b31461014f57806318160ddd1461017f57806323b872dd1461019d57806330adf81f146101cd575b600080fd5b6101396103ff565b6040516101469190611d76565b60405180910390f35b6101696004803603810190610164919061164c565b610491565b6040516101769190611c9a565b60405180910390f35b6101876104af565b6040516101949190611f38565b60405180910390f35b6101b760048036038101906101b2919061155f565b6104b9565b6040516101c49190611c9a565b60405180910390f35b6101d56105ba565b6040516101e29190611cb5565b60405180910390f35b6101f36105e1565b6040516102009190611f53565b60405180910390f35b6102116105ea565b60405161021e9190611cb5565b60405180910390f35b61022f6105f0565b60405161023c9190611f38565b60405180910390f35b61025f600480360381019061025a919061164c565b6105fc565b60405161026c9190611c9a565b60405180910390f35b61028f600480360381019061028a91906114fa565b6106a8565b60405161029c9190611f38565b60405180910390f35b6102ad6106f0565b005b6102c960048036038101906102c491906114fa565b61082d565b6040516102d69190611f38565b60405180910390f35b6102e7610845565b6040516102f49190611c7f565b60405180910390f35b61030561086f565b6040516103129190611d76565b60405180910390f35b6103356004803603810190610330919061164c565b610901565b6040516103429190611c9a565b60405180910390f35b6103656004803603810190610360919061164c565b6109f5565b6040516103729190611c9a565b60405180910390f35b610395600480360381019061039091906115ae565b610a13565b005b6103b160048036038101906103ac9190611523565b610c3b565b6040516103be9190611f38565b60405180910390f35b6103e160048036038101906103dc9190611688565b610cc2565b005b6103fd60048036038101906103f891906114fa565b610ccf565b005b60606003805461040e906120b1565b80601f016020809104026020016040519081016040528092919081815260200182805461043a906120b1565b80156104875780601f1061045c57610100808354040283529160200191610487565b820191906000526020600020905b81548152906001019060200180831161046a57829003601f168201915b5050505050905090565b60006104a561049e610e7b565b8484610e83565b6001905092915050565b6000600254905090565b60006104c684848461104e565b6000600160008673ffffffffffffffffffffffffffffffffffffffff1673ffffffffffffffffffffffffffffffffffffffff1681526020019081526020016000206000610511610e7b565b73ffffffffffffffffffffffffffffffffffffffff1673ffffffffffffffffffffffffffffffffffffffff16815260200190815260200160002054905082811015610591576040517f08c379a000000000000000000000000000000000000000000000000000000000815260040161058890611e58565b60405180910390fd5b6105ae8561059d610e7b565b85846105a99190611feb565b610e83565b60019150509392505050565b7f6e71edae12b1b97f4d1f60370fef10105fa2faae0126114a169c64845d6126c960001b81565b6000600a905090565b60065481565b670f43fc2c04ee000081565b600061069e610609610e7b565b848460016000610617610e7b565b73ffffffffffffffffffffffffffffffffffffffff1673ffffffffffffffffffffffffffffffffffffffff16815260200190815260200160002060008873ffffffffffffffffffffffffffffffffffffffff1673ffffffffffffffffffffffffffffffffffffffff168152602001908152602001600020546106999190611f95565b610e83565b6001905092915050565b60008060008373ffffffffffffffffffffffffffffffffffffffff1673ffffffffffffffffffffffffffffffffffffffff168152602001908152602001600020549050919050565b6106f8610e7b565b73ffffffffffffffffffffffffffffffffffffffff16610716610845565b73ffffffffffffffffffffffffffffffffffffffff161461076c576040517f08c379a000000000000000000000000000000000000000000000000000000000815260040161076390611e78565b60405180910390fd5b600073ffffffffffffffffffffffffffffffffffffffff16600560009054906101000a900473ffffffffffffffffffffffffffffffffffffffff1673ffffffffffffffffffffffffffffffffffffffff167f8be0079c531659141344cd1fd0a4f28419497f9722a3daafe3b4186f6b6457e060405160405180910390a36000600560006101000a81548173ffffffffffffffffffffffffffffffffffffffff021916908373ffffffffffffffffffffffffffffffffffffffff160217905550565b60076020528060005260406000206000915090505481565b6000600560009054906101000a900473ffffffffffffffffffffffffffffffffffffffff16905090565b60606004805461087e906120b1565b80601f01602080910402602001604051908101604052809291908181526020018280546108aa906120b1565b80156108f75780601f106108cc576101008083540402835291602001916108f7565b820191906000526020600020905b8154815290600101906020018083116108da57829003601f168201915b5050505050905090565b60008060016000610910610e7b565b73ffffffffffffffffffffffffffffffffffffffff1673ffffffffffffffffffffffffffffffffffffffff16815260200190815260200160002060008573ffffffffffffffffffffffffffffffffffffffff1673ffffffffffffffffffffffffffffffffffffffff168152602001908152602001600020549050828110156109cd576040517f08c379a00000000000000000000000000000000000000000000000000000000081526004016109c490611f18565b60405180910390fd5b6109ea6109d8610e7b565b8585846109e59190611feb565b610e83565b600191505092915050565b6000610a09610a02610e7b565b848461104e565b6001905092915050565b42841015610a56576040517f08c379a0000000000000000000000000000000000000000000000000000000008152600401610a4d90611ed8565b60405180910390fd5b60006006547f6e71edae12b1b97f4d1f60370fef10105fa2faae0126114a169c64845d6126c960001b898989600760008e73ffffffffffffffffffffffffffffffffffffffff1673ffffffffffffffffffffffffffffffffffffffff1681526020019081526020016000206000815480929190610ad2906120e3565b919050558a604051602001610aec96959493929190611cd0565b60405160208183030381529060405280519060200120604051602001610b13929190611c48565b604051602081830303815290604052805190602001209050600060018286868660405160008152602001604052604051610b509493929190611d31565b6020604051602081039080840390855afa158015610b72573d6000803e3d6000fd5b505050602060405103519050600073ffffffffffffffffffffffffffffffffffffffff168173ffffffffffffffffffffffffffffffffffffffff1614158015610be657508873ffffffffffffffffffffffffffffffffffffffff168173ffffffffffffffffffffffffffffffffffffffff16145b610c25576040517f08c379a0000000000000000000000000000000000000000000000000000000008152600401610c1c90611d98565b60405180910390fd5b610c30898989610e83565b505050505050505050565b6000600160008473ffffffffffffffffffffffffffffffffffffffff1673ffffffffffffffffffffffffffffffffffffffff16815260200190815260200160002060008373ffffffffffffffffffffffffffffffffffffffff1673ffffffffffffffffffffffffffffffffffffffff16815260200190815260200160002054905092915050565b610ccc33826112cd565b50565b610cd7610e7b565b73ffffffffffffffffffffffffffffffffffffffff16610cf5610845565b73ffffffffffffffffffffffffffffffffffffffff1614610d4b576040517f08c379a0000000000000000000000000000000000000000000000000000000008152600401610d4290611e78565b60405180910390fd5b600073ffffffffffffffffffffffffffffffffffffffff168173ffffffffffffffffffffffffffffffffffffffff161415610dbb576040517f08c379a0000000000000000000000000000000000000000000000000000000008152600401610db290611df8565b60405180910390fd5b8073ffffffffffffffffffffffffffffffffffffffff16600560009054906101000a900473ffffffffffffffffffffffffffffffffffffffff1673ffffffffffffffffffffffffffffffffffffffff167f8be0079c531659141344cd1fd0a4f28419497f9722a3daafe3b4186f6b6457e060405160405180910390a380600560006101000a81548173ffffffffffffffffffffffffffffffffffffffff021916908373ffffffffffffffffffffffffffffffffffffffff16021790555050565b600033905090565b600073ffffffffffffffffffffffffffffffffffffffff168373ffffffffffffffffffffffffffffffffffffffff161415610ef3576040517f08c379a0000000000000000000000000000000000000000000000000000000008152600401610eea90611ef8565b60405180910390fd5b600073ffffffffffffffffffffffffffffffffffffffff168273ffffffffffffffffffffffffffffffffffffffff161415610f63576040517f08c379a0000000000000000000000000000000000000000000000000000000008152600401610f5a90611e18565b60405180910390fd5b80600160008573ffffffffffffffffffffffffffffffffffffffff1673ffffffffffffffffffffffffffffffffffffffff16815260200190815260200160002060008473ffffffffffffffffffffffffffffffffffffffff1673ffffffffffffffffffffffffffffffffffffffff168152602001908152602001600020819055508173ffffffffffffffffffffffffffffffffffffffff168373ffffffffffffffffffffffffffffffffffffffff167f8c5be1e5ebec7d5bd14f71427d1e84f3dd0314c0f7b2291e5b200ac8c7c3b925836040516110419190611f38565b60405180910390a3505050565b600073ffffffffffffffffffffffffffffffffffffffff168373ffffffffffffffffffffffffffffffffffffffff1614156110be576040517f08c379a00000000000000000000000000000000000000000000000000000000081526004016110b590611eb8565b60405180910390fd5b600073ffffffffffffffffffffffffffffffffffffffff168273ffffffffffffffffffffffffffffffffffffffff16141561112e576040517f08c379a000000000000000000000000000000000000000000000000000000000815260040161112590611db8565b60405180910390fd5b6111398383836114a1565b60008060008573ffffffffffffffffffffffffffffffffffffffff1673ffffffffffffffffffffffffffffffffffffffff168152602001908152602001600020549050818110156111bf576040517f08c379a00000000000000000000000000000000000000000000000000000000081526004016111b690611e38565b60405180910390fd5b81816111cb9190611feb565b6000808673ffffffffffffffffffffffffffffffffffffffff1673ffffffffffffffffffffffffffffffffffffffff16815260200190815260200160002081905550816000808573ffffffffffffffffffffffffffffffffffffffff1673ffffffffffffffffffffffffffffffffffffffff168152602001908152602001600020600082825461125b9190611f95565b925050819055508273ffffffffffffffffffffffffffffffffffffffff168473ffffffffffffffffffffffffffffffffffffffff167fddf252ad1be2c89b69c2b068fc378daa952ba7f163c4a11628f55a4df523b3ef846040516112bf9190611f38565b60405180910390a350505050565b600073ffffffffffffffffffffffffffffffffffffffff168273ffffffffffffffffffffffffffffffffffffffff16141561133d576040517f08c379a000000000000000000000000000000000000000000000000000000000815260040161133490611e98565b60405180910390fd5b611349826000836114a1565b60008060008473ffffffffffffffffffffffffffffffffffffffff1673ffffffffffffffffffffffffffffffffffffffff168152602001908152602001600020549050818110156113cf576040517f08c379a00000000000000000000000000000000000000000000000000000000081526004016113c690611dd8565b60405180910390fd5b81816113db9190611feb565b6000808573ffffffffffffffffffffffffffffffffffffffff1673ffffffffffffffffffffffffffffffffffffffff16815260200190815260200160002081905550816002600082825461142f9190611feb565b92505081905550600073ffffffffffffffffffffffffffffffffffffffff168373ffffffffffffffffffffffffffffffffffffffff167fddf252ad1be2c89b69c2b068fc378daa952ba7f163c4a11628f55a4df523b3ef846040516114949190611f38565b60405180910390a3505050565b505050565b6000813590506114b5816121a5565b92915050565b6000813590506114ca816121bc565b92915050565b6000813590506114df816121d3565b92915050565b6000813590506114f4816121ea565b92915050565b60006020828403121561150c57600080fd5b600061151a848285016114a6565b91505092915050565b6000806040838503121561153657600080fd5b6000611544858286016114a6565b9250506020611555858286016114a6565b9150509250929050565b60008060006060848603121561157457600080fd5b6000611582868287016114a6565b9350506020611593868287016114a6565b92505060406115a4868287016114d0565b9150509250925092565b600080600080600080600060e0888a0312156115c957600080fd5b60006115d78a828b016114a6565b97505060206115e88a828b016114a6565b96505060406115f98a828b016114d0565b955050606061160a8a828b016114d0565b945050608061161b8a828b016114e5565b93505060a061162c8a828b016114bb565b92505060c061163d8a828b016114bb565b91505092959891949750929550565b6000806040838503121561165f57600080fd5b600061166d858286016114a6565b925050602061167e858286016114d0565b9150509250929050565b60006020828403121561169a57600080fd5b60006116a8848285016114d0565b91505092915050565b6116ba8161201f565b82525050565b6116c981612031565b82525050565b6116d88161203d565b82525050565b6116ef6116ea8261203d565b61212c565b82525050565b600061170082611f6e565b61170a8185611f79565b935061171a81856020860161207e565b61172381612194565b840191505092915050565b600061173b601683611f79565b91507f5941593a20494e56414c49445f5349474e4154555245000000000000000000006000830152602082019050919050565b600061177b602383611f79565b91507f45524332303a207472616e7366657220746f20746865207a65726f206164647260008301527f65737300000000000000000000000000000000000000000000000000000000006020830152604082019050919050565b60006117e1602283611f79565b91507f45524332303a206275726e20616d6f756e7420657863656564732062616c616e60008301527f63650000000000000000000000000000000000000000000000000000000000006020830152604082019050919050565b6000611847602683611f79565b91507f4f776e61626c653a206e6577206f776e657220697320746865207a65726f206160008301527f64647265737300000000000000000000000000000000000000000000000000006020830152604082019050919050565b60006118ad602283611f79565b91507f45524332303a20617070726f766520746f20746865207a65726f20616464726560008301527f73730000000000000000000000000000000000000000000000000000000000006020830152604082019050919050565b6000611913600283611f8a565b91507f19010000000000000000000000000000000000000000000000000000000000006000830152600282019050919050565b6000611953602683611f79565b91507f45524332303a207472616e7366657220616d6f756e742065786365656473206260008301527f616c616e636500000000000000000000000000000000000000000000000000006020830152604082019050919050565b60006119b9602883611f79565b91507f45524332303a207472616e7366657220616d6f756e742065786365656473206160008301527f6c6c6f77616e63650000000000000000000000000000000000000000000000006020830152604082019050919050565b6000611a1f602083611f79565b91507f4f776e61626c653a2063616c6c6572206973206e6f7420746865206f776e65726000830152602082019050919050565b6000611a5f602183611f79565b91507f45524332303a206275726e2066726f6d20746865207a65726f2061646472657360008301527f73000000000000000000000000000000000000000000000000000000000000006020830152604082019050919050565b6000611ac5602583611f79565b91507f45524332303a207472616e736665722066726f6d20746865207a65726f20616460008301527f64726573730000000000000000000000000000000000000000000000000000006020830152604082019050919050565b6000611b2b600c83611f79565b91507f5941593a204558504952454400000000000000000000000000000000000000006000830152602082019050919050565b6000611b6b602483611f79565b91507f45524332303a20617070726f76652066726f6d20746865207a65726f2061646460008301527f72657373000000000000000000000000000000000000000000000000000000006020830152604082019050919050565b6000611bd1602583611f79565b91507f45524332303a2064656372656173656420616c6c6f77616e63652062656c6f7760008301527f207a65726f0000000000000000000000000000000000000000000000000000006020830152604082019050919050565b611c3381612067565b82525050565b611c4281612071565b82525050565b6000611c5382611906565b9150611c5f82856116de565b602082019150611c6f82846116de565b6020820191508190509392505050565b6000602082019050611c9460008301846116b1565b92915050565b6000602082019050611caf60008301846116c0565b92915050565b6000602082019050611cca60008301846116cf565b92915050565b600060c082019050611ce560008301896116cf565b611cf260208301886116b1565b611cff60408301876116b1565b611d0c6060830186611c2a565b611d196080830185611c2a565b611d2660a0830184611c2a565b979650505050505050565b6000608082019050611d4660008301876116cf565b611d536020830186611c39565b611d6060408301856116cf565b611d6d60608301846116cf565b95945050505050565b60006020820190508181036000830152611d9081846116f5565b905092915050565b60006020820190508181036000830152611db18161172e565b9050919050565b60006020820190508181036000830152611dd18161176e565b9050919050565b60006020820190508181036000830152611df1816117d4565b9050919050565b60006020820190508181036000830152611e118161183a565b9050919050565b60006020820190508181036000830152611e31816118a0565b9050919050565b60006020820190508181036000830152611e5181611946565b9050919050565b60006020820190508181036000830152611e71816119ac565b9050919050565b60006020820190508181036000830152611e9181611a12565b9050919050565b60006020820190508181036000830152611eb181611a52565b9050919050565b60006020820190508181036000830152611ed181611ab8565b9050919050565b60006020820190508181036000830152611ef181611b1e565b9050919050565b60006020820190508181036000830152611f1181611b5e565b9050919050565b60006020820190508181036000830152611f3181611bc4565b9050919050565b6000602082019050611f4d6000830184611c2a565b92915050565b6000602082019050611f686000830184611c39565b92915050565b600081519050919050565b600082825260208201905092915050565b600081905092915050565b6000611fa082612067565b9150611fab83612067565b9250827fffffffffffffffffffffffffffffffffffffffffffffffffffffffffffffffff03821115611fe057611fdf612136565b5b828201905092915050565b6000611ff682612067565b915061200183612067565b92508282101561201457612013612136565b5b828203905092915050565b600061202a82612047565b9050919050565b60008115159050919050565b6000819050919050565b600073ffffffffffffffffffffffffffffffffffffffff82169050919050565b6000819050919050565b600060ff82169050919050565b60005b8381101561209c578082015181840152602081019050612081565b838111156120ab576000848401525b50505050565b600060028204905060018216806120c957607f821691505b602082108114156120dd576120dc612165565b5b50919050565b60006120ee82612067565b91507fffffffffffffffffffffffffffffffffffffffffffffffffffffffffffffffff82141561212157612120612136565b5b600182019050919050565b6000819050919050565b7f4e487b7100000000000000000000000000000000000000000000000000000000600052601160045260246000fd5b7f4e487b7100000000000000000000000000000000000000000000000000000000600052602260045260246000fd5b6000601f19601f8301169050919050565b6121ae8161201f565b81146121b957600080fd5b50565b6121c58161203d565b81146121d057600080fd5b50565b6121dc81612067565b81146121e757600080fd5b50565b6121f381612071565b81146121fe57600080fd5b5056fea264697066735822122079c5190f9dec548c19d334baff19f05342d8407ff396e9070b694b1c5f0648f964736f6c63430008000033",
  "immutableReferences": {},
  "source": "import \"@openzeppelin/contracts/utils/math/SafeMath.sol\";\nimport \"@openzeppelin/contracts/token/ERC20/ERC20.sol\";\nimport \"@openzeppelin/contracts/access/Ownable.sol\";\n\npragma solidity >=0.6.12;\n\n// YAYToken with Governance.\ncontract YAYToken is ERC20(\"YAY\", \"YAY\"), Ownable {\n    using SafeMath for uint256;\n\n    uint256 public constant initialSupply = 1100000000000000000;\n\n    bytes32 public DOMAIN_SEPARATOR;\n    // keccak256(\"Permit(address owner,address spender,uint256 value,uint256 nonce,uint256 deadline)\");\n    bytes32 public constant PERMIT_TYPEHASH =\n        0x6e71edae12b1b97f4d1f60370fef10105fa2faae0126114a169c64845d6126c9;\n    mapping(address => uint256) public nonces;\n\n    constructor(address initialTotalSupplyHolder) public {\n        uint256 chainId;\n        assembly {\n            chainId := chainid()\n        }\n        DOMAIN_SEPARATOR = keccak256(\n            abi.encode(\n                keccak256(\n                    \"EIP712Domain(string name,string version,uint256 chainId,address verifyingContract)\"\n                ),\n                keccak256(bytes(name())),\n                keccak256(bytes(\"1\")),\n                chainId,\n                address(this)\n            )\n        );\n        _mint(initialTotalSupplyHolder, initialSupply);\n    }\n\n    function decimals() public view virtual override returns (uint8) {\n        return 10;\n    }\n\n    // Burns the callers tokens\n    function burnOwnTokens(uint256 _amount) external {\n        _burn(msg.sender, _amount);\n    }\n\n    function permit(\n        address owner,\n        address spender,\n        uint256 value,\n        uint256 deadline,\n        uint8 v,\n        bytes32 r,\n        bytes32 s\n    ) external {\n        require(deadline >= block.timestamp, \"YAY: EXPIRED\");\n        bytes32 digest =\n            keccak256(\n                abi.encodePacked(\n                    \"\\x19\\x01\",\n                    DOMAIN_SEPARATOR,\n                    keccak256(\n                        abi.encode(\n                            PERMIT_TYPEHASH,\n                            owner,\n                            spender,\n                            value,\n                            nonces[owner]++,\n                            deadline\n                        )\n                    )\n                )\n            );\n        address recoveredAddress = ecrecover(digest, v, r, s);\n        require(\n            recoveredAddress != address(0) && recoveredAddress == owner,\n            \"YAY: INVALID_SIGNATURE\"\n        );\n        _approve(owner, spender, value);\n    }\n}\n",
  "sourcePath": "/home/pedro/Documents/projects/avalabs/pefi/penguin-contracts-deployed/contracts/YAYToken.sol",
  "compiler": {
    "name": "solc",
    "version": "0.8.0+commit.c7dfd78e.Emscripten.clang"
  },
  "schemaVersion": "3.4.1",
  "updatedAt": "2021-06-22T01:36:47.533Z",
  "networkType": "ethereum",
  "devdoc": {
    "kind": "dev",
    "methods": {
      "allowance(address,address)": {
        "details": "See {IERC20-allowance}."
      },
      "approve(address,uint256)": {
        "details": "See {IERC20-approve}. Requirements: - `spender` cannot be the zero address."
      },
      "balanceOf(address)": {
        "details": "See {IERC20-balanceOf}."
      },
      "decimals()": {
        "details": "Returns the number of decimals used to get its user representation. For example, if `decimals` equals `2`, a balance of `505` tokens should be displayed to a user as `5,05` (`505 / 10 ** 2`). Tokens usually opt for a value of 18, imitating the relationship between Ether and Wei. This is the value {ERC20} uses, unless this function is overridden; NOTE: This information is only used for _display_ purposes: it in no way affects any of the arithmetic of the contract, including {IERC20-balanceOf} and {IERC20-transfer}."
      },
      "decreaseAllowance(address,uint256)": {
        "details": "Atomically decreases the allowance granted to `spender` by the caller. This is an alternative to {approve} that can be used as a mitigation for problems described in {IERC20-approve}. Emits an {Approval} event indicating the updated allowance. Requirements: - `spender` cannot be the zero address. - `spender` must have allowance for the caller of at least `subtractedValue`."
      },
      "increaseAllowance(address,uint256)": {
        "details": "Atomically increases the allowance granted to `spender` by the caller. This is an alternative to {approve} that can be used as a mitigation for problems described in {IERC20-approve}. Emits an {Approval} event indicating the updated allowance. Requirements: - `spender` cannot be the zero address."
      },
      "name()": {
        "details": "Returns the name of the token."
      },
      "owner()": {
        "details": "Returns the address of the current owner."
      },
      "renounceOwnership()": {
        "details": "Leaves the contract without owner. It will not be possible to call `onlyOwner` functions anymore. Can only be called by the current owner. NOTE: Renouncing ownership will leave the contract without an owner, thereby removing any functionality that is only available to the owner."
      },
      "symbol()": {
        "details": "Returns the symbol of the token, usually a shorter version of the name."
      },
      "totalSupply()": {
        "details": "See {IERC20-totalSupply}."
      },
      "transfer(address,uint256)": {
        "details": "See {IERC20-transfer}. Requirements: - `recipient` cannot be the zero address. - the caller must have a balance of at least `amount`."
      },
      "transferFrom(address,address,uint256)": {
        "details": "See {IERC20-transferFrom}. Emits an {Approval} event indicating the updated allowance. This is not required by the EIP. See the note at the beginning of {ERC20}. Requirements: - `sender` and `recipient` cannot be the zero address. - `sender` must have a balance of at least `amount`. - the caller must have allowance for ``sender``'s tokens of at least `amount`."
      },
      "transferOwnership(address)": {
        "details": "Transfers ownership of the contract to a new account (`newOwner`). Can only be called by the current owner."
      }
    },
    "version": 1
  },
  "userdoc": {
    "kind": "user",
    "methods": {},
    "version": 1
  }
}